{
  "contractName": "AbsoluteVote",
  "abi": [
    {
      "constant": true,
      "inputs": [
        {
          "name": "",
          "type": "bytes32"
        }
      ],
      "name": "parameters",
      "outputs": [
        {
          "name": "reputationSystem",
          "type": "address"
        },
        {
          "name": "precReq",
          "type": "uint256"
        },
        {
          "name": "allowOwner",
          "type": "bool"
        }
      ],
      "payable": false,
      "stateMutability": "view",
      "type": "function"
    },
    {
      "constant": true,
      "inputs": [],
      "name": "proposalsCnt",
      "outputs": [
        {
          "name": "",
          "type": "uint256"
        }
      ],
      "payable": false,
      "stateMutability": "view",
      "type": "function"
    },
    {
      "constant": true,
      "inputs": [
        {
          "name": "",
          "type": "bytes32"
        }
      ],
      "name": "proposals",
      "outputs": [
        {
          "name": "owner",
          "type": "address"
        },
        {
          "name": "avatar",
          "type": "address"
        },
        {
          "name": "numOfChoices",
          "type": "uint256"
        },
        {
          "name": "executable",
          "type": "address"
        },
        {
          "name": "paramsHash",
          "type": "bytes32"
        },
        {
          "name": "totalVotes",
          "type": "uint256"
        },
        {
          "name": "open",
          "type": "bool"
        }
      ],
      "payable": false,
      "stateMutability": "view",
      "type": "function"
    },
    {
      "constant": true,
      "inputs": [],
      "name": "MAX_NUM_OF_CHOICES",
      "outputs": [
        {
          "name": "",
          "type": "uint256"
        }
      ],
      "payable": false,
      "stateMutability": "view",
      "type": "function"
    },
    {
      "anonymous": false,
      "inputs": [
        {
          "indexed": true,
          "name": "_proposalId",
          "type": "bytes32"
        },
        {
          "indexed": false,
          "name": "_isOwnerVote",
          "type": "bool"
        }
      ],
      "name": "AVVoteProposal",
      "type": "event"
    },
    {
      "anonymous": false,
      "inputs": [
        {
          "indexed": true,
          "name": "_proposalId",
          "type": "bytes32"
        },
        {
          "indexed": true,
          "name": "_avatar",
          "type": "address"
        },
        {
          "indexed": true,
          "name": "_voter",
          "type": "address"
        },
        {
          "indexed": false,
          "name": "_reputation",
          "type": "uint256"
        }
      ],
      "name": "RefreshReputation",
      "type": "event"
    },
    {
      "anonymous": false,
      "inputs": [
        {
          "indexed": true,
          "name": "_proposalId",
          "type": "bytes32"
        },
        {
          "indexed": true,
          "name": "_avatar",
          "type": "address"
        },
        {
          "indexed": false,
          "name": "_numOfChoices",
          "type": "uint256"
        },
        {
          "indexed": false,
          "name": "_proposer",
          "type": "address"
        },
        {
          "indexed": false,
          "name": "_paramsHash",
          "type": "bytes32"
        }
      ],
      "name": "NewProposal",
      "type": "event"
    },
    {
      "anonymous": false,
      "inputs": [
        {
          "indexed": true,
          "name": "_proposalId",
          "type": "bytes32"
        },
        {
          "indexed": true,
          "name": "_avatar",
          "type": "address"
        },
        {
          "indexed": false,
          "name": "_decision",
          "type": "uint256"
        },
        {
          "indexed": false,
          "name": "_totalReputation",
          "type": "uint256"
        }
      ],
      "name": "ExecuteProposal",
      "type": "event"
    },
    {
      "anonymous": false,
      "inputs": [
        {
          "indexed": true,
          "name": "_proposalId",
          "type": "bytes32"
        },
        {
          "indexed": true,
          "name": "_avatar",
          "type": "address"
        },
        {
          "indexed": true,
          "name": "_voter",
          "type": "address"
        },
        {
          "indexed": false,
          "name": "_vote",
          "type": "uint256"
        },
        {
          "indexed": false,
          "name": "_reputation",
          "type": "uint256"
        }
      ],
      "name": "VoteProposal",
      "type": "event"
    },
    {
      "anonymous": false,
      "inputs": [
        {
          "indexed": true,
          "name": "_proposalId",
          "type": "bytes32"
        },
        {
          "indexed": true,
          "name": "_avatar",
          "type": "address"
        }
      ],
      "name": "CancelProposal",
      "type": "event"
    },
    {
      "anonymous": false,
      "inputs": [
        {
          "indexed": true,
          "name": "_proposalId",
          "type": "bytes32"
        },
        {
          "indexed": true,
          "name": "_avatar",
          "type": "address"
        },
        {
          "indexed": true,
          "name": "_voter",
          "type": "address"
        }
      ],
      "name": "CancelVoting",
      "type": "event"
    },
    {
      "constant": false,
      "inputs": [
        {
          "name": "_numOfChoices",
          "type": "uint256"
        },
        {
          "name": "_paramsHash",
          "type": "bytes32"
        },
        {
          "name": "_avatar",
          "type": "address"
        },
        {
          "name": "_executable",
          "type": "address"
        },
        {
          "name": "",
          "type": "address"
        }
      ],
      "name": "propose",
      "outputs": [
        {
          "name": "",
          "type": "bytes32"
        }
      ],
      "payable": false,
      "stateMutability": "nonpayable",
      "type": "function"
    },
    {
      "constant": false,
      "inputs": [
        {
          "name": "_proposalId",
          "type": "bytes32"
        }
      ],
      "name": "cancelProposal",
      "outputs": [
        {
          "name": "",
          "type": "bool"
        }
      ],
      "payable": false,
      "stateMutability": "nonpayable",
      "type": "function"
    },
    {
      "constant": false,
      "inputs": [
        {
          "name": "_proposalId",
          "type": "bytes32"
        },
        {
          "name": "_vote",
          "type": "uint256"
        }
      ],
      "name": "vote",
      "outputs": [
        {
          "name": "",
          "type": "bool"
        }
      ],
      "payable": false,
      "stateMutability": "nonpayable",
      "type": "function"
    },
    {
      "constant": false,
      "inputs": [
        {
          "name": "_proposalId",
          "type": "bytes32"
        },
        {
          "name": "_vote",
          "type": "uint256"
        },
        {
          "name": "_voter",
          "type": "address"
        }
      ],
      "name": "ownerVote",
      "outputs": [
        {
          "name": "",
          "type": "bool"
        }
      ],
      "payable": false,
      "stateMutability": "nonpayable",
      "type": "function"
    },
    {
      "constant": false,
      "inputs": [
        {
          "name": "_proposalId",
          "type": "bytes32"
        },
        {
          "name": "_vote",
          "type": "uint256"
        },
        {
          "name": "_rep",
          "type": "uint256"
        },
        {
          "name": "",
          "type": "uint256"
        }
      ],
      "name": "voteWithSpecifiedAmounts",
      "outputs": [
        {
          "name": "",
          "type": "bool"
        }
      ],
      "payable": false,
      "stateMutability": "nonpayable",
      "type": "function"
    },
    {
      "constant": false,
      "inputs": [
        {
          "name": "_proposalId",
          "type": "bytes32"
        }
      ],
      "name": "cancelVote",
      "outputs": [],
      "payable": false,
      "stateMutability": "nonpayable",
      "type": "function"
    },
    {
      "constant": true,
      "inputs": [
        {
          "name": "_proposalId",
          "type": "bytes32"
        }
      ],
      "name": "getNumberOfChoices",
      "outputs": [
        {
          "name": "",
          "type": "uint256"
        }
      ],
      "payable": false,
      "stateMutability": "view",
      "type": "function"
    },
    {
      "constant": true,
      "inputs": [
        {
          "name": "_proposalId",
          "type": "bytes32"
        },
        {
          "name": "_voter",
          "type": "address"
        }
      ],
      "name": "voteInfo",
      "outputs": [
        {
          "name": "",
          "type": "uint256"
        },
        {
          "name": "",
          "type": "uint256"
        }
      ],
      "payable": false,
      "stateMutability": "view",
      "type": "function"
    },
    {
      "constant": true,
      "inputs": [
        {
          "name": "_proposalId",
          "type": "bytes32"
        },
        {
          "name": "_choice",
          "type": "uint256"
        }
      ],
      "name": "voteStatus",
      "outputs": [
        {
          "name": "",
          "type": "uint256"
        }
      ],
      "payable": false,
      "stateMutability": "view",
      "type": "function"
    },
    {
      "constant": true,
      "inputs": [
        {
          "name": "_proposalId",
          "type": "bytes32"
        }
      ],
      "name": "isVotable",
      "outputs": [
        {
          "name": "",
          "type": "bool"
        }
      ],
      "payable": false,
      "stateMutability": "view",
      "type": "function"
    },
    {
      "constant": true,
      "inputs": [],
      "name": "isAbstainAllow",
      "outputs": [
        {
          "name": "",
          "type": "bool"
        }
      ],
      "payable": false,
      "stateMutability": "pure",
      "type": "function"
    },
    {
      "constant": false,
      "inputs": [
        {
          "name": "_proposalId",
          "type": "bytes32"
        },
        {
          "name": "_voters",
          "type": "address[]"
        }
      ],
      "name": "refreshReputation",
      "outputs": [
        {
          "name": "",
          "type": "bool"
        }
      ],
      "payable": false,
      "stateMutability": "nonpayable",
      "type": "function"
    },
    {
      "constant": true,
      "inputs": [],
      "name": "getAllowedRangeOfChoices",
      "outputs": [
        {
          "name": "min",
          "type": "uint256"
        },
        {
          "name": "max",
          "type": "uint256"
        }
      ],
      "payable": false,
      "stateMutability": "pure",
      "type": "function"
    },
    {
      "constant": false,
      "inputs": [
        {
          "name": "_proposalId",
          "type": "bytes32"
        }
      ],
      "name": "execute",
      "outputs": [
        {
          "name": "",
          "type": "bool"
        }
      ],
      "payable": false,
      "stateMutability": "nonpayable",
      "type": "function"
    },
    {
      "constant": false,
      "inputs": [
        {
          "name": "_reputationSystem",
          "type": "address"
        },
        {
          "name": "_precReq",
          "type": "uint256"
        },
        {
          "name": "_allowOwner",
          "type": "bool"
        }
      ],
      "name": "setParameters",
      "outputs": [
        {
          "name": "",
          "type": "bytes32"
        }
      ],
      "payable": false,
      "stateMutability": "nonpayable",
      "type": "function"
    },
    {
      "constant": true,
      "inputs": [
        {
          "name": "_reputationSystem",
          "type": "address"
        },
        {
          "name": "_precReq",
          "type": "uint256"
        },
        {
          "name": "_allowOwner",
          "type": "bool"
        }
      ],
      "name": "getParametersHash",
      "outputs": [
        {
          "name": "",
          "type": "bytes32"
        }
      ],
      "payable": false,
      "stateMutability": "pure",
      "type": "function"
    }
  ],
  "bytecode": "0x608060405234801561001057600080fd5b506115f0806100206000396000f3006080604052600436106100f85763ffffffff60e060020a6000350416630250680481146100fd57806302a1cdaf1461013f5780630905c9f91461017a578063119ce91b146101ad57806321b4b3dc146101ea57806332ed5b12146101ff578063339e23d11461026157806337376ca81461029c5780635142bc1e146102b457806351d997b2146102c95780636320212b146102de5780638d22651e146103025780639525c0cc146103175780639ef1204c14610331578063a003651d1461034c578063ac5d874514610364578063b451291314610385578063c0835106146103a0578063e751f271146103b8578063fed0d7df146103d0575b600080fd5b34801561010957600080fd5b506101156004356103f9565b60408051600160a060020a0390941684526020840192909252151582820152519081900360600190f35b34801561014b57600080fd5b50610168600160a060020a03600435166024356044351515610427565b60408051918252519081900360200190f35b34801561018657600080fd5b50610168600435602435600160a060020a03604435811690606435811690608435166104f4565b3480156101b957600080fd5b506101d1600435600160a060020a03602435166107d3565b6040805192835260208301919091528051918290030190f35b3480156101f657600080fd5b50610168610826565b34801561020b57600080fd5b5061021760043561082c565b60408051600160a060020a039889168152968816602088015286810195909552929095166060850152608084015260a083019390935291151560c082015290519081900360e00190f35b34801561026d57600080fd5b50610288600435602435600160a060020a036044351661087b565b604080519115158252519081900360200190f35b3480156102a857600080fd5b5061028860043561090e565b3480156102c057600080fd5b506101d16109f4565b3480156102d557600080fd5b506102886109fc565b3480156102ea57600080fd5b50610288600480359060248035908101910135610a01565b34801561030e57600080fd5b50610168610cc2565b34801561032357600080fd5b5061032f600435610cc7565b005b34801561033d57600080fd5b50610288600435602435610cf7565b34801561035857600080fd5b50610168600435610d2e565b34801561037057600080fd5b50610288600435602435604435606435610d43565b34801561039157600080fd5b50610168600435602435610d7b565b3480156103ac57600080fd5b50610288600435610d9c565b3480156103c457600080fd5b50610288600435610db4565b3480156103dc57600080fd5b50610168600160a060020a03600435166024356044351515610de6565b600060208190529081526040902080546001820154600290920154600160a060020a03909116919060ff1683565b604080516c01000000000000000000000000600160a060020a03861602602080830191909152603482018590527f0100000000000000000000000000000000000000000000000000000000000000841515026054830152825160358184030181526055909201928390528151600093918291908401908083835b602083106104c05780518252601f1990920191602091820191016104a1565b5181516020939093036101000a60001901801990911692169190911790526040519201829003909120979650505050505050565b6000806104ff611551565b600087815260208190526040902054600160a060020a0316151561052257600080fd5b6000881180156105335750600a8811155b151561053e57600080fd5b600254604080516c01000000000000000000000000300260208083019190915260348083019490945282518083039094018452605490910191829052825182918401908083835b602083106105a45780518252601f199092019160209182019101610585565b6001836020036101000a03801982511681845116808217855250505050505090500191505060405180910390209150600260008154809291906001019190505550878160400181815250508681608001906000191690816000191681525050858160200190600160a060020a03169081600160a060020a031681525050848160600190600160a060020a03169081600160a060020a031681525050338160000190600160a060020a03169081600160a060020a03168152505060018160c00190151590811515815250508060016000846000191660001916815260200190815260200160002060008201518160000160006101000a815481600160a060020a030219169083600160a060020a0316021790555060208201518160010160006101000a815481600160a060020a030219169083600160a060020a031602179055506040820151816002015560608201518160030160006101000a815481600160a060020a030219169083600160a060020a031602179055506080820151816004019060001916905560a0820151816005015560c08201518160080160006101000a81548160ff02191690831515021790555090505085600160a060020a031682600019167f75b4ff136cc5de5957574c797de3334eb1c141271922b825eb071e0487ba2c5c8a338b6040518084815260200183600160a060020a0316600160a060020a031681526020018260001916600019168152602001935050505060405180910390a3509695505050505050565b6000806107de61158d565b5050506000918252600160208181526040808520600160a060020a03949094168552600790930181529282902082518084019093528054808452910154919092018190529091565b60025481565b60016020819052600091825260409091208054918101546002820154600383015460048401546005850154600890950154600160a060020a039687169694851695939490921692909160ff1687565b6000838152600160205260408120548490600160a060020a031633146108a057600080fd5b600085815260016020526040902060080154859060ff1615156108c257600080fd5b60008681526001602090815260408083206004015483529082905290206002015460ff1615156108f55760009250610905565b6109028685876000610e8b565b92505b50509392505050565b60008181526001602052604081205481908390600160a060020a0316331461093557600080fd5b600084815260016020526040902060080154849060ff16151561095757600080fd5b60008581526001602090815260408083206004015483529082905290206002015460ff16151561098a57600093506109ec565b60008581526001602081905260409091200154600160a060020a031692506109b1856110f2565b604051600160a060020a0384169086907f2eb3e89618ae3f1716cf6615be7ce4bbafed3578d8bc1de99897063e9db6a9f690600090a3600193505b505050919050565b6001600a9091565b600190565b600080610a0c6115a4565b505060008481526001602081815260408084206004810154855284835281852082516060810184528154600160a060020a03168152948101549385019390935260029092015460ff161515908301529180805b86831015610cb357600785016000898986818110610a7957fe5b90506020020135600160a060020a0316600160a060020a0316600160a060020a031681526020019081526020016000209150600082600101541115610ca8578351600160a060020a031663db89c044898986818110610ad457fe5b90506020020135600160a060020a03166040518263ffffffff1660e060020a0281526004018082600160a060020a0316600160a060020a03168152602001915050602060405180830381600087803b158015610b2f57600080fd5b505af1158015610b43573d6000803e3d6000fd5b505050506040513d6020811015610b5957600080fd5b50516001830154909150811115610bcb57600182015482546000908152600687016020526040902054610b9391830363ffffffff61118d16565b8254600090815260068701602052604090205560018201546005860154610bc191830363ffffffff61118d16565b6005860155610c36565b8160010154811015610c3657600182015482546000908152600687016020526040902054610c019183900363ffffffff6111a016565b8254600090815260068701602052604090205560018201546005860154610c309183900363ffffffff6111a016565b60058601555b60018201548114610ca85760018201819055878784818110610c5457fe5b600188015460408051868152905160209384029590950135600160a060020a0390811695921693508d927f10fd03c28ebd3a225145ef0c415b229b2bb2bf694934d4cca6346ea057e4b9d992918290030190a45b600190920191610a5f565b50600198975050505050505050565b600a81565b600081815260016020526040902060080154819060ff161515610ce957600080fd5b610cf382336111b2565b5050565b600082815260016020526040812060080154839060ff161515610d1957600080fd5b610d268433856000610e8b565b949350505050565b60009081526001602052604090206002015490565b600084815260016020526040812060080154859060ff161515610d6557600080fd5b610d7186338787610e8b565b9695505050505050565b60009182526001602090815260408084209284526006909201905290205490565b60009081526001602052604090206008015460ff1690565b600081815260016020526040812060080154829060ff161515610dd657600080fd5b610ddf836112a7565b9392505050565b60008060648411158015610dfa5750600084115b1515610e0557600080fd5b610e10858585610427565b60408051606081018252600160a060020a0397881681526020808201978852951515818301908152600084815296879052919095209451855473ffffffffffffffffffffffffffffffffffffffff1916971696909617845593516001840155505091516002909201805460ff19169215159290921790915590565b600080610e966115a4565b505060008581526001602081815260408084206004810154855284835281852082516060810184528154600160a060020a03168152948101549385019390935260029283015460ff16151591840191909152908101549092908190871115610efd57600080fd5b8260000151600160a060020a031663db89c044896040518263ffffffff1660e060020a0281526004018082600160a060020a0316600160a060020a03168152602001915050602060405180830381600087803b158015610f5c57600080fd5b505af1158015610f70573d6000803e3d6000fd5b505050506040513d6020811015610f8657600080fd5b5051915085821015610f9757600080fd5b5084801515610fa35750805b600160a060020a038816600090815260078501602052604090206001015415610fd057610fd089896111b2565b6000878152600685016020526040902054610ff290829063ffffffff61118d16565b6000888152600686016020526040902055600584015461101990829063ffffffff61118d16565b60058501556040805180820182528881526020808201848152600160a060020a03808d16600081815260078b0185528690209451855591516001948501559288015484518c8152928301879052845191949316928d927f066c061a3792cb3eb64a441a928655fcbafb4a54b49725fe9cd2951df5e7189e929081900390910190a460408051600160a060020a038a16331415815290518a917fe715e19c865cb724f3c292cc2fffc24d9cdd398e179fb366f008cc73028e1c52919081900360200190a26110e5896112a7565b9998505050505050505050565b6000818152600160205260408120905b60028201548111611126576000818152600683016020526040812055600101611102565b505060009081526001602081905260408220805473ffffffffffffffffffffffffffffffffffffffff19908116825591810180548316905560028101839055600381018054909216909155600481018290556005810191909155600801805460ff19169055565b8181018281101561119a57fe5b92915050565b6000828211156111ac57fe5b50900390565b60006111bc61158d565b50506000828152600160208181526040808420600160a060020a03861685526007810183528185208251808401845281548082529190950154858501819052908652600682019093529320546112179163ffffffff6111a016565b8151600090815260068401602090815260409091209190915581015160058301546112479163ffffffff6111a016565b6005830155600160a060020a038084166000818152600785016020526040808220828155600190810183905586015490519293169187917f0ecab23267930de581498fac1af19a95c888ec6583921ee9c47473e16245d3c891a450505050565b6000806000806000806112b8611551565b600088815260016020526040902060080154889060ff1615156112da57600080fd5b6000898152600160209081526040808320600481015484529183905290912054909750600160a060020a0316955085151561131457600080fd5b85600160a060020a03166318160ddd6040518163ffffffff1660e060020a028152600401602060405180830381600087803b15801561135257600080fd5b505af1158015611366573d6000803e3d6000fd5b505050506040513d602081101561137c57600080fd5b5051600488015460009081526020819052604081206001015491965090945092505b600287015483116115405760008381526006880160205260409020546064858702041015611535576040805160e0810182528854600160a060020a03908116825260018a01548116602083015260028a0154928201929092526003890154909116606082015260048801546080820152600588015460a0820152600888015460ff16151560c08201529150611432896110f2565b8160200151600160a060020a031689600019167f37471b9c9d295ffb1309ad070b8964700bfb7b555e8e8292d0b6cbc7dba35d108588604051808381526020018281526020019250505060405180910390a36060820151602080840151604080517f310ce4e2000000000000000000000000000000000000000000000000000000008152600481018e9052600160a060020a039283166024820152604481018890529051919093169263310ce4e29260648083019391928290030181600087803b1580156114ff57600080fd5b505af1158015611513573d6000803e3d6000fd5b505050506040513d602081101561152957600080fd5b50600198506115459050565b60019092019161139e565b600097505b50505050505050919050565b6040805160e081018252600080825260208201819052918101829052606081018290526080810182905260a0810182905260c081019190915290565b604080518082019091526000808252602082015290565b6040805160608101825260008082526020820181905291810191909152905600a165627a7a723058202b238a4d83e2b14bd62f24eebf8570a5142b94c7975b571528cb76a45e083f440029",
  "source": "pragma solidity ^0.4.24;\n\nimport \"../controller/Reputation.sol\";\nimport \"./IntVoteInterface.sol\";\n\n\ncontract AbsoluteVote is IntVoteInterface {\n    using SafeMath for uint;\n\n\n    struct Parameters {\n        Reputation reputationSystem; // the reputation system that is being used\n        uint precReq; // how many percentages required for the proposal to be passed\n        bool allowOwner; // does this proposal has an owner who has owner rights?\n    }\n\n    struct Voter {\n        uint vote; // 0 - 'abstain'\n        uint reputation; // amount of voter's reputation\n    }\n\n    struct Proposal {\n        address owner; // the proposal's owner\n        address avatar; // the avatar of the organization that owns the proposal\n        uint numOfChoices;\n        ExecutableInterface executable; // will be executed if the proposal will pass\n        bytes32 paramsHash; // the hash of the parameters of the proposal\n        uint totalVotes;\n        mapping(uint=>uint) votes;\n        mapping(address=>Voter) voters;\n        bool open; // voting open flag\n    }\n\n    event AVVoteProposal(bytes32 indexed _proposalId, bool _isOwnerVote);\n    event RefreshReputation(bytes32 indexed _proposalId, address indexed _avatar, address indexed _voter,uint _reputation);\n\n\n    mapping(bytes32=>Parameters) public parameters;  // A mapping from hashes to parameters\n    mapping(bytes32=>Proposal) public proposals; // Mapping from the ID of the proposal to the proposal itself.\n\n    uint public constant MAX_NUM_OF_CHOICES = 10;\n    uint public proposalsCnt; // Total amount of proposals\n\n  /**\n   * @dev Check that there is owner for the proposal and he sent the transaction\n   */\n    modifier onlyProposalOwner(bytes32 _proposalId) {\n        require(msg.sender == proposals[_proposalId].owner);\n        _;\n    }\n\n  /**\n   * @dev Check that the proposal is votable (open and not executed yet)\n   */\n    modifier votable(bytes32 _proposalId) {\n        require(proposals[_proposalId].open);\n        _;\n    }\n\n    /**\n     * @dev register a new proposal with the given parameters. Every proposal has a unique ID which is being\n     * generated by calculating keccak256 of a incremented counter.\n     * @param _numOfChoices number of voting choices\n     * @param _paramsHash defined the parameters of the voting machine used for this proposal\n     * @param _avatar an address to be sent as the payload to the _executable contract.\n     * @param _executable This contract will be executed when vote is over.\n     * @return proposal's id.\n     */\n    function propose(uint _numOfChoices, bytes32 _paramsHash, address _avatar, ExecutableInterface _executable,address)\n        external\n        returns(bytes32)\n    {\n        // Check valid params and number of choices:\n        require(parameters[_paramsHash].reputationSystem != address(0));\n        require(_numOfChoices > 0 && _numOfChoices <= MAX_NUM_OF_CHOICES);\n        // Generate a unique ID:\n        bytes32 proposalId = keccak256(abi.encodePacked(this, proposalsCnt));\n        proposalsCnt++;\n        // Open proposal:\n        Proposal memory proposal;\n        proposal.numOfChoices = _numOfChoices;\n        proposal.paramsHash = _paramsHash;\n        proposal.avatar = _avatar;\n        proposal.executable = _executable;\n        proposal.owner = msg.sender;\n        proposal.open = true;\n        proposals[proposalId] = proposal;\n        emit NewProposal(proposalId, _avatar, _numOfChoices, msg.sender, _paramsHash);\n        return proposalId;\n    }\n\n  /**\n   * @dev Cancel a proposal, only the owner can call this function and only if allowOwner flag is true.\n   * @param _proposalId the proposal ID\n   */\n    function cancelProposal(bytes32 _proposalId) external onlyProposalOwner(_proposalId) votable(_proposalId) returns(bool) {\n        if (! parameters[proposals[_proposalId].paramsHash].allowOwner) {\n            return false;\n        }\n        address avatar = proposals[_proposalId].avatar;\n        deleteProposal(_proposalId);\n        emit CancelProposal(_proposalId, avatar);\n        return true;\n    }\n\n  /**\n   * @dev voting function\n   * @param _proposalId id of the proposal\n   * @param _vote a value between 0 to and the proposal number of choices.\n   * @return bool true - the proposal has been executed\n   *              false - otherwise.\n   */\n    function vote(bytes32 _proposalId, uint _vote) external votable(_proposalId) returns(bool) {\n        return internalVote(_proposalId, msg.sender, _vote, 0);\n    }\n\n  /**\n   * @dev voting function with owner functionality (can vote on behalf of someone else)\n   * @param _proposalId id of the proposal\n   * @param _vote a value between 0 to and the proposal number of choices.\n   * @param _voter will be voted with that voter's address\n   * @return bool true - the proposal has been executed\n   *              false - otherwise.\n   */\n    function ownerVote(bytes32 _proposalId, uint _vote, address _voter)\n        external\n        onlyProposalOwner(_proposalId)\n        votable(_proposalId)\n        returns(bool)\n    {\n        if (! parameters[proposals[_proposalId].paramsHash].allowOwner) {\n            return false;\n        }\n        return  internalVote(_proposalId, _voter, _vote, 0);\n    }\n\n    function voteWithSpecifiedAmounts(bytes32 _proposalId,uint _vote,uint _rep,uint) external votable(_proposalId) returns(bool) {\n        return internalVote(_proposalId,msg.sender,_vote,_rep);\n    }\n\n  /**\n   * @dev Cancel the vote of the msg.sender: subtract the reputation amount from the votes\n   * and delete the voter from the proposal struct\n   * @param _proposalId id of the proposal\n   */\n    function cancelVote(bytes32 _proposalId) external votable(_proposalId) {\n        cancelVoteInternal(_proposalId, msg.sender);\n    }\n\n  /**\n   * @dev getNumberOfChoices returns the number of choices possible in this proposal\n   * @param _proposalId the ID of the proposal\n   * @return uint that contains number of choices\n   */\n    function getNumberOfChoices(bytes32 _proposalId) external view returns(uint) {\n        return proposals[_proposalId].numOfChoices;\n    }\n\n  /**\n   * @dev voteInfo returns the vote and the amount of reputation of the user committed to this proposal\n   * @param _proposalId the ID of the proposal\n   * @param _voter the address of the voter\n   * @return uint vote - the voters vote\n   *        uint reputation - amount of reputation committed by _voter to _proposalId\n   */\n    function voteInfo(bytes32 _proposalId, address _voter) external view returns(uint, uint) {\n        Voter memory voter = proposals[_proposalId].voters[_voter];\n        return (voter.vote, voter.reputation);\n    }\n\n    /**\n     * @dev voteStatus returns the reputation voted for a proposal for a specific voting choice.\n     * @param _proposalId the ID of the proposal\n     * @param _choice the index in the\n     * @return voted reputation for the given choice\n     */\n    function voteStatus(bytes32 _proposalId,uint _choice) external view returns(uint) {\n        return proposals[_proposalId].votes[_choice];\n    }\n\n    /**\n      * @dev isVotable check if the proposal is votable\n      * @param _proposalId the ID of the proposal\n      * @return bool true or false\n    */\n    function isVotable(bytes32 _proposalId) external view returns(bool) {\n        return  proposals[_proposalId].open;\n    }\n\n    /**\n     * @dev isAbstainAllow returns if the voting machine allow abstain (0)\n     * @return bool true or false\n     */\n    function isAbstainAllow() external pure returns(bool) {\n        return true;\n    }\n\n    /**\n     * @dev refreshReputation refresh the reputation for a given voters list\n     * @param _proposalId the ID of the proposal\n     * @param _voters list to be refreshed\n     * @return bool true or false\n     */\n    function refreshReputation(bytes32 _proposalId, address[] _voters) external returns(bool) {\n        Proposal storage proposal = proposals[_proposalId];\n        Parameters memory params = parameters[proposal.paramsHash];\n\n        for (uint i = 0; i < _voters.length; i++) {\n            Voter storage voter = proposal.voters[_voters[i]];\n             //check that the voters already votes.\n            if (voter.reputation > 0) {\n                //update only if there is a mismatch between the voter's system reputation\n                //and the reputation stored in the voting machine for the voter.\n                uint rep = params.reputationSystem.reputationOf(_voters[i]);\n                if (rep > voter.reputation) {\n                    proposal.votes[voter.vote] = proposal.votes[voter.vote].add(rep - voter.reputation);\n                    proposal.totalVotes = (proposal.totalVotes).add(rep - voter.reputation);\n                  } else if (rep < voter.reputation) {\n                    proposal.votes[voter.vote] = proposal.votes[voter.vote].sub(voter.reputation - rep);\n                    proposal.totalVotes = (proposal.totalVotes).sub(voter.reputation - rep);\n                  }\n                if (rep != voter.reputation) {\n                    voter.reputation = rep;\n                    emit RefreshReputation(_proposalId, proposal.avatar, _voters[i],rep);\n                }\n             }\n        }\n        return true;\n    }\n\n    /**\n     * @dev getAllowedRangeOfChoices returns the allowed range of choices for a voting machine.\n     * @return min - minimum number of choices\n               max - maximum number of choices\n     */\n    function getAllowedRangeOfChoices() external pure returns(uint min,uint max) {\n        return (1,MAX_NUM_OF_CHOICES);\n    }\n\n    /**\n      * @dev execute check if the proposal has been decided, and if so, execute the proposal\n      * @param _proposalId the id of the proposal\n      * @return bool true - the proposal has been executed\n      *              false - otherwise.\n     */\n    function execute(bytes32 _proposalId) external votable(_proposalId) returns(bool) {\n        return _execute(_proposalId);\n    }\n\n    /**\n     * @dev hash the parameters, save them if necessary, and return the hash value\n    */\n    function setParameters(Reputation _reputationSystem, uint _precReq, bool _allowOwner) public returns(bytes32) {\n        require(_precReq <= 100 && _precReq > 0);\n        bytes32 hashedParameters = getParametersHash(_reputationSystem, _precReq, _allowOwner);\n        parameters[hashedParameters] = Parameters({\n            reputationSystem: _reputationSystem,\n            precReq: _precReq,\n            allowOwner: _allowOwner\n        });\n        return hashedParameters;\n    }\n\n    /**\n     * @dev hashParameters returns a hash of the given parameters\n     */\n    function getParametersHash(Reputation _reputationSystem, uint _precReq, bool _allowOwner) public pure returns(bytes32) {\n        return keccak256(abi.encodePacked(_reputationSystem, _precReq, _allowOwner));\n    }\n\n    function cancelVoteInternal(bytes32 _proposalId, address _voter) internal {\n        Proposal storage proposal = proposals[_proposalId];\n        Voter memory voter = proposal.voters[_voter];\n        proposal.votes[voter.vote] = (proposal.votes[voter.vote]).sub(voter.reputation);\n        proposal.totalVotes = (proposal.totalVotes).sub(voter.reputation);\n        delete proposal.voters[_voter];\n        emit CancelVoting(_proposalId, proposal.avatar, _voter);\n    }\n\n    function deleteProposal(bytes32 _proposalId) internal {\n        Proposal storage proposal = proposals[_proposalId];\n        for (uint cnt = 0; cnt <= proposal.numOfChoices; cnt++) {\n            delete proposal.votes[cnt];\n        }\n        delete proposals[_proposalId];\n    }\n\n    /**\n      * @dev execute check if the proposal has been decided, and if so, execute the proposal\n      * @param _proposalId the id of the proposal\n      * @return bool true - the proposal has been executed\n      *              false - otherwise.\n     */\n    function _execute(bytes32 _proposalId) internal votable(_proposalId) returns(bool) {\n        Proposal storage proposal = proposals[_proposalId];\n        Reputation reputation = parameters[proposal.paramsHash].reputationSystem;\n        require(reputation != address(0));\n        uint totalReputation = reputation.totalSupply();\n        uint precReq = parameters[proposal.paramsHash].precReq;\n        // Check if someone crossed the bar:\n        for (uint cnt = 0; cnt <= proposal.numOfChoices; cnt++) {\n            if (proposal.votes[cnt] > totalReputation*precReq/100) {\n                Proposal memory tmpProposal = proposal;\n                deleteProposal(_proposalId);\n                emit ExecuteProposal(_proposalId, tmpProposal.avatar, cnt, totalReputation);\n                (tmpProposal.executable).execute(_proposalId, tmpProposal.avatar, int(cnt));\n                return true;\n            }\n        }\n        return false;\n    }\n\n    /**\n     * @dev Vote for a proposal, if the voter already voted, cancel the last vote and set a new one instead\n     * @param _proposalId id of the proposal\n     * @param _voter used in case the vote is cast for someone else\n     * @param _vote a value between 0 to and the proposal's number of choices.\n     * @return true in case of proposal execution otherwise false\n     * throws if proposal is not open or if it has been executed\n     * NB: executes the proposal if a decision has been reached\n     */\n    function internalVote(bytes32 _proposalId, address _voter, uint _vote, uint _rep) private returns(bool) {\n        Proposal storage proposal = proposals[_proposalId];\n        Parameters memory params = parameters[proposal.paramsHash];\n        // Check valid vote:\n        require(_vote <= proposal.numOfChoices);\n        // Check voter has enough reputation:\n        uint reputation = params.reputationSystem.reputationOf(_voter);\n        require(reputation >= _rep);\n        uint rep = _rep;\n        if (rep == 0) {\n            rep = reputation;\n        }\n        // If this voter has already voted, first cancel the vote:\n        if (proposal.voters[_voter].reputation != 0) {\n            cancelVoteInternal(_proposalId, _voter);\n        }\n        // The voting itself:\n        proposal.votes[_vote] = rep.add(proposal.votes[_vote]);\n        proposal.totalVotes = rep.add(proposal.totalVotes);\n        proposal.voters[_voter] = Voter({\n            reputation: rep,\n            vote: _vote\n        });\n        // Event:\n        emit VoteProposal(_proposalId, proposal.avatar, _voter, _vote, reputation);\n        emit AVVoteProposal(_proposalId, (_voter != msg.sender));\n        // execute the proposal if this vote was decisive:\n        return _execute(_proposalId);\n    }\n}\n",
  "sourcePath": "/home/adam/cryptoDev/Ethereum/daostack/arc/contracts/VotingMachines/AbsoluteVote.sol",
  "compiler": {
    "name": "solc",
    "version": "0.4.24+commit.e67f0147.Emscripten.clang"
  },
  "schemaVersion": "2.0.1",
  "updatedAt": "2018-09-08T15:54:15.454Z"
}