{
  "contractName": "ControllerCreator",
  "abi": [
    {
      "constant": false,
      "inputs": [
        {
          "name": "_avatar",
          "type": "address"
        }
      ],
      "name": "create",
      "outputs": [
        {
          "name": "",
          "type": "address"
        }
      ],
      "payable": false,
      "stateMutability": "nonpayable",
      "type": "function"
    }
  ],
  "bytecode": "0x608060405234801561001057600080fd5b506142b0806100206000396000f3006080604052600436106100405763ffffffff7c01000000000000000000000000000000000000000000000000000000006000350416639ed933188114610045575b600080fd5b34801561005157600080fd5b5061007373ffffffffffffffffffffffffffffffffffffffff6004351661009c565b6040805173ffffffffffffffffffffffffffffffffffffffff9092168252519081900360200190f35b600080826100a8610262565b73ffffffffffffffffffffffffffffffffffffffff909116815260405190819003602001906000f0801580156100e2573d6000803e3d6000fd5b50604080517fe869d45f0000000000000000000000000000000000000000000000000000000081523360048201526000602482018190527c1f00000000000000000000000000000000000000000000000000000000604483015273ffffffffffffffffffffffffffffffffffffffff878116606484015292519394509184169263e869d45f92608480840193602093929083900390910190829087803b15801561018b57600080fd5b505af115801561019f573d6000803e3d6000fd5b505050506040513d60208110156101b557600080fd5b5050604080517f039de01d00000000000000000000000000000000000000000000000000000000815230600482015273ffffffffffffffffffffffffffffffffffffffff858116602483015291519183169163039de01d916044808201926020929091908290030181600087803b15801561022f57600080fd5b505af1158015610243573d6000803e3d6000fd5b505050506040513d602081101561025957600080fd5b50909392505050565b6040516140128061027383390190560060806040523480156200001157600080fd5b5060405160208062004012833981016040818152915160018054600160a060020a031916600160a060020a0380841691909117918290557fe1758bd800000000000000000000000000000000000000000000000000000000845293519193169163e1758bd89160048083019260209291908290030181600087803b1580156200009957600080fd5b505af1158015620000ae573d6000803e3d6000fd5b505050506040513d6020811015620000c557600080fd5b505160028054600160a060020a031916600160a060020a03928316179055600154604080517f89ae1c90000000000000000000000000000000000000000000000000000000008152905191909216916389ae1c909160048083019260209291908290030181600087803b1580156200013c57600080fd5b505af115801562000151573d6000803e3d6000fd5b505050506040513d60208110156200016857600080fd5b505160038054600160a060020a031916600160a060020a039092169190911790555060408051808201825260008082527c1f000000000000000000000000000000000000000000000000000000006020808401918252338352829052928120915182559151600191909101805463ffffffff19167c0100000000000000000000000000000000000000000000000000000000909204919091179055613dfe9081906200021490396000f3006080604052600436106101715763ffffffff60e060020a600035041663039de01d8114610183578063177eebb0146101be5780631c4d5608146101fa57806320204fb7146102335780633a02263c1461026657806342427bf8146102975780634422d372146102be5780634f52b5be146102f95780635aef7de614610320578063634965da146103355780636407e4321461035f578063644b98ed146103895780636c525b13146103ba5780636e94d278146103db578063814784f614610405578063824f2f1f1461042657806389ae1c90146104605780638da03997146104755780639b51e35a146104965780639be2faed146104da578063b9a04cdd14610501578063c6ab78b914610532578063db6149ce14610563578063e08738da146105a6578063e1758bd8146105cd578063e4537a74146105e2578063e869d45f1461060d578063e8c98b2214610646578063eaf994b21461065e578063f76488be14610688578063fb4856a2146106af575b34801561017d57600080fd5b50600080fd5b34801561018f57600080fd5b506101aa600160a060020a03600435811690602435166106e6565b604080519115158252519081900360200190f35b3480156101ca57600080fd5b506101df600160a060020a0360043516610a57565b60408051921515835260208301919091528051918290030190f35b34801561020657600080fd5b50610221600160a060020a0360043581169060243516610a76565b60408051918252519081900360200190f35b34801561023f57600080fd5b50610221600160a060020a0360048035821691602480359081019201359060443516610ab8565b34801561027257600080fd5b5061027b610e33565b60408051600160a060020a039092168252519081900360200190f35b3480156102a357600080fd5b506101aa600160a060020a0360043581169060243516610e42565b3480156102ca57600080fd5b506102d66004356113bf565b60408051600160a060020a03909316835260208301919091528051918290030190f35b34801561030557600080fd5b506101aa600160a060020a03600435811690602435166113f5565b34801561032c57600080fd5b5061027b61182f565b34801561034157600080fd5b506101aa600435600160a060020a036024358116906044351661183e565b34801561036b57600080fd5b506101aa600435600160a060020a0360243581169060443516611b79565b34801561039557600080fd5b506101aa600160a060020a036004358116906024358116906044359060643516611eab565b3480156103c657600080fd5b506101aa600160a060020a03600435166121f0565b3480156103e757600080fd5b506101aa600435600160a060020a036024358116906044351661227a565b34801561041157600080fd5b506101df600160a060020a03600435166125ac565b34801561043257600080fd5b50610447600160a060020a03600435166125cb565b6040805192835260208301919091528051918290030190f35b34801561046c57600080fd5b5061027b6125fd565b34801561048157600080fd5b5061027b600160a060020a036004351661260c565b3480156104a257600080fd5b506104bd600160a060020a036004358116906024351661263e565b60408051600160e060020a03199092168252519081900360200190f35b3480156104e657600080fd5b506101aa600160a060020a0360043581169060243516612684565b34801561050d57600080fd5b506101aa600160a060020a0360043581169060243581169060443590606435166126b5565b34801561053e57600080fd5b506101aa600160a060020a036004358116906024358116906044359060643516612a04565b34801561056f57600080fd5b50610584600160a060020a0360043516612d49565b60408051928352600160e060020a031990911660208301528051918290030190f35b3480156105b257600080fd5b50610221600160a060020a0360043581169060243516612d68565b3480156105d957600080fd5b5061027b612e31565b3480156105ee57600080fd5b506101aa600160a060020a036004358116906024359060443516612e40565b34801561061957600080fd5b506101aa600160a060020a0360043581169060243590600160e060020a031960443516906064351661324b565b34801561065257600080fd5b506102d66004356135ff565b34801561066a57600080fd5b506101aa600435600160a060020a036024358116906044351661360d565b34801561069457600080fd5b506101aa600160a060020a036004358116906024351661393f565b3480156106bb57600080fd5b506101aa600160a060020a0360043581169060243581169060443581169060643590608435166139a1565b3360009081526020819052604081206001015460e060020a027c02000000000000000000000000000000000000000000000000000000009081161461072a57600080fd5b7f756e7265676973746572536368656d650000000000000000000000000000000060005b60055481101561084257600580548290811061076657fe5b600091825260209091206002909102015460058054600160a060020a039092169163c1786ab29133918590811061079957fe5b60009182526020808320600160029093020191909101546040805160e060020a63ffffffff8816028152600160a060020a03909516600486015260248501919091526044840188905251606480850194929391928390030190829087803b15801561080357600080fd5b505af1158015610817573d6000803e3d6000fd5b505050506040513d602081101561082d57600080fd5b5051151561083a57600080fd5b60010161074e565b6001548490600160a060020a0380831691161461085e57600080fd5b600160a060020a03861660009081526020819052604090206001015460e060020a9081021615156108925760009350610955565b33600090815260208190526040808220600190810154600160a060020a038a168452919092209091015460e060020a918202199102167c1f0000000000000000000000000000000000000000000000000000000016156108f157600080fd5b604051600160a060020a0387169033907f10bb2cf04cb8b902a8e736d494f1a51003be6d4b16ef6fb95ce62c38445023bf90600090a3600160a060020a03861660009081526020819052604081209081556001908101805463ffffffff1916905593505b50600090505b600654811015610a4f57600680548290811061097357fe5b600091825260209091206002909102015460068054600160a060020a0390921691638043154d913391859081106109a657fe5b60009182526020808320600160029093020191909101546040805160e060020a63ffffffff8816028152600160a060020a03909516600486015260248501919091526044840188905251606480850194929391928390030190829087803b158015610a1057600080fd5b505af1158015610a24573d6000803e3d6000fd5b505050506040513d6020811015610a3a57600080fd5b50511515610a4757600080fd5b60010161095b565b505092915050565b6007602052600090815260409020805460019091015460ff9091169082565b6001546000908290600160a060020a03808316911614610a9557600080fd5b600160a060020a03841660009081526020819052604090205491505b5092915050565b3360009081526020819052604081206001015460e060020a027c100000000000000000000000000000000000000000000000000000000090811614610afc57600080fd5b7f67656e6572696343616c6c00000000000000000000000000000000000000000060005b600554811015610c14576005805482908110610b3857fe5b600091825260209091206002909102015460058054600160a060020a039092169163c1786ab291339185908110610b6b57fe5b60009182526020808320600160029093020191909101546040805160e060020a63ffffffff8816028152600160a060020a03909516600486015260248501919091526044840188905251606480850194929391928390030190829087803b158015610bd557600080fd5b505af1158015610be9573d6000803e3d6000fd5b505050506040513d6020811015610bff57600080fd5b50511515610c0c57600080fd5b600101610b20565b6001548490600160a060020a03808316911614610c3057600080fd5b87600160a060020a03167f60cb6ac4ce80ddf7e096689e155fdb7a4e5354b2fc7bd67157bde32a1ce44cb688886040518080602001828103825284848281815260200192508082843760405192018290039550909350505050a2600154604080517f4650c308000000000000000000000000000000000000000000000000000000008152600160a060020a038b81166004830190815260248301938452604483018b9052931692634650c308928c928c928c9290916064018484808284378201915050945050505050600060405180830381600087803b158015610d1357600080fd5b505af1158015610d27573d6000803e3d6000fd5b505050503d6000853e602084f35b600654811015610e29576006805482908110610d4d57fe5b600091825260209091206002909102015460068054600160a060020a0390921691638043154d91339185908110610d8057fe5b60009182526020808320600160029093020191909101546040805160e060020a63ffffffff8816028152600160a060020a03909516600486015260248501919091526044840188905251606480850194929391928390030190829087803b158015610dea57600080fd5b505af1158015610dfe573d6000803e3d6000fd5b505050506040513d6020811015610e1457600080fd5b50511515610e2157600080fd5b600101610d35565b5050949350505050565b600454600160a060020a031681565b3360009081526020819052604081206001015460e060020a027c080000000000000000000000000000000000000000000000000000000090811614610e8657600080fd5b6001548290600160a060020a03808316911614610ea257600080fd5b600454600160a060020a031615610eb857600080fd5b600160a060020a0384161515610ecd57600080fd5b6004805473ffffffffffffffffffffffffffffffffffffffff1916600160a060020a038681169182178355600154604080517ff2fde38b00000000000000000000000000000000000000000000000000000000815294850193909352915191169163f2fde38b91602480830192600092919082900301818387803b158015610f5457600080fd5b505af1158015610f68573d6000803e3d6000fd5b5050505083600160a060020a0316600160009054906101000a9004600160a060020a0316600160a060020a0316638da5cb5b6040518163ffffffff1660e060020a028152600401602060405180830381600087803b158015610fc957600080fd5b505af1158015610fdd573d6000803e3d6000fd5b505050506040513d6020811015610ff357600080fd5b5051600160a060020a03161461100857600080fd5b600254604080517f8da5cb5b00000000000000000000000000000000000000000000000000000000815290513092600160a060020a031691638da5cb5b9160048083019260209291908290030181600087803b15801561106757600080fd5b505af115801561107b573d6000803e3d6000fd5b505050506040513d602081101561109157600080fd5b5051600160a060020a031614156111bd57600254604080517ff2fde38b000000000000000000000000000000000000000000000000000000008152600160a060020a0387811660048301529151919092169163f2fde38b91602480830192600092919082900301818387803b15801561110957600080fd5b505af115801561111d573d6000803e3d6000fd5b5050505083600160a060020a0316600260009054906101000a9004600160a060020a0316600160a060020a0316638da5cb5b6040518163ffffffff1660e060020a028152600401602060405180830381600087803b15801561117e57600080fd5b505af1158015611192573d6000803e3d6000fd5b505050506040513d60208110156111a857600080fd5b5051600160a060020a0316146111bd57600080fd5b600354604080517f8da5cb5b00000000000000000000000000000000000000000000000000000000815290513092600160a060020a031691638da5cb5b9160048083019260209291908290030181600087803b15801561121c57600080fd5b505af1158015611230573d6000803e3d6000fd5b505050506040513d602081101561124657600080fd5b5051600160a060020a0316141561137257600354604080517ff2fde38b000000000000000000000000000000000000000000000000000000008152600160a060020a0387811660048301529151919092169163f2fde38b91602480830192600092919082900301818387803b1580156112be57600080fd5b505af11580156112d2573d6000803e3d6000fd5b5050505083600160a060020a0316600360009054906101000a9004600160a060020a0316600160a060020a0316638da5cb5b6040518163ffffffff1660e060020a028152600401602060405180830381600087803b15801561133357600080fd5b505af1158015611347573d6000803e3d6000fd5b505050506040513d602081101561135d57600080fd5b5051600160a060020a03161461137257600080fd5b60045460408051600160a060020a039290921682525130917fdb7cbacf8df312d794506c0cc9af07f64d29ca075796ea2e950a3832cc9a63dd919081900360200190a25060019392505050565b60058054829081106113cd57fe5b600091825260209091206002909102018054600190910154600160a060020a03909116915082565b60006113ff613d4b565b611407613d4b565b33600090815260208190526040812060010154819060e060020a027c04000000000000000000000000000000000000000000000000000000009081161461144d57600080fd5b6001548690600160a060020a0380831691161461146957600080fd5b87600160a060020a031663e2b0caef6040518163ffffffff1660e060020a028152600401602060405180830381600087803b1580156114a757600080fd5b505af11580156114bb573d6000803e3d6000fd5b505050506040513d60208110156114d157600080fd5b5051925060009150818360028111156114e657fe5b14806114fd575060028360028111156114fb57fe5b145b1561164f57600160a060020a0388166000908152600760209081526040918290208251808401909352805460ff1615801584526001909101549183019190915290955061164f576001600580549050038560200151101561160f5760058054600019810190811061156a57fe5b6000918252602091829020604080518082019091526002909202018054600160a060020a0316825260010154818301529086015160058054929650869290919081106115b257fe5b60009182526020808320845160029390930201805473ffffffffffffffffffffffffffffffffffffffff1916600160a060020a03938416178155938101516001948501558881015188519092168352600790526040909120909101555b6005805490611622906000198301613d62565b50600160a060020a0388166000908152600760205260408120805460ff1916815560019081019190915591505b600183600281111561165d57fe5b14806116745750600283600281111561167257fe5b145b156117c657600160a060020a0388166000908152600860209081526040918290208251808401909352805460ff161580158452600190910154918301919091529095506117c65760016006805490500385602001511015611786576006805460001981019081106116e157fe5b6000918252602091829020604080518082019091526002909202018054600160a060020a03168252600101548183015290860151600680549296508692909190811061172957fe5b60009182526020808320845160029390930201805473ffffffffffffffffffffffffffffffffffffffff1916600160a060020a03938416178155938101516001948501558881015188519092168352600890526040909120909101555b6006805490611799906000198301613d62565b50600160a060020a0388166000908152600860205260408120805460ff1916815560019081019190915591505b8115611824576020850151600160a060020a038916907fcdf1a50ea6b7de555bd409f8a4a53ea43c6dc6b4caa961889da9e005f21bbaa990600086600281111561180c57fe5b60408051938452911460208301528051918290030190a25b509695505050505050565b600154600160a060020a031681565b3360009081526020819052604081206001015460e060020a90810281161461186557600080fd5b7f73656e644574686572000000000000000000000000000000000000000000000060005b60055481101561197d5760058054829081106118a157fe5b600091825260209091206002909102015460058054600160a060020a039092169163c1786ab2913391859081106118d457fe5b60009182526020808320600160029093020191909101546040805160e060020a63ffffffff8816028152600160a060020a03909516600486015260248501919091526044840188905251606480850194929391928390030190829087803b15801561193e57600080fd5b505af1158015611952573d6000803e3d6000fd5b505050506040513d602081101561196857600080fd5b5051151561197557600080fd5b600101611889565b6001548490600160a060020a0380831691161461199957600080fd5b604080518881529051600160a060020a0388169133917fda35e091786fbaaace32084910404a0e3a14f22a7645a4c3d0fec2c6731e3c349181900360200190a3600154604080517fcb16d4a2000000000000000000000000000000000000000000000000000000008152600481018a9052600160a060020a0389811660248301529151919092169163cb16d4a29160448083019260209291908290030181600087803b158015611a4857600080fd5b505af1158015611a5c573d6000803e3d6000fd5b505050506040513d6020811015611a7257600080fd5b5051935050600090505b600654811015611b70576006805482908110611a9457fe5b600091825260209091206002909102015460068054600160a060020a0390921691638043154d91339185908110611ac757fe5b60009182526020808320600160029093020191909101546040805160e060020a63ffffffff8816028152600160a060020a03909516600486015260248501919091526044840188905251606480850194929391928390030190829087803b158015611b3157600080fd5b505af1158015611b45573d6000803e3d6000fd5b505050506040513d6020811015611b5b57600080fd5b50511515611b6857600080fd5b600101611a7c565b50509392505050565b3360009081526020819052604081206001015460e060020a908102811614611ba057600080fd5b7f6d696e74546f6b656e730000000000000000000000000000000000000000000060005b600554811015611cb8576005805482908110611bdc57fe5b600091825260209091206002909102015460058054600160a060020a039092169163c1786ab291339185908110611c0f57fe5b60009182526020808320600160029093020191909101546040805160e060020a63ffffffff8816028152600160a060020a03909516600486015260248501919091526044840188905251606480850194929391928390030190829087803b158015611c7957600080fd5b505af1158015611c8d573d6000803e3d6000fd5b505050506040513d6020811015611ca357600080fd5b50511515611cb057600080fd5b600101611bc4565b6001548490600160a060020a03808316911614611cd457600080fd5b604080518881529051600160a060020a0388169133917f21f9c9a1a1f9a311a50f15fec5c1faa9e21fc9edf964f0fdecba5bd490484c5e9181900360200190a3600254604080517f40c10f19000000000000000000000000000000000000000000000000000000008152600160a060020a038981166004830152602482018b9052915191909216916340c10f199160448083019260209291908290030181600087803b158015611d8357600080fd5b505af1158015611d97573d6000803e3d6000fd5b505050506040513d6020811015611dad57600080fd5b5051935050600090505b600654811015611b70576006805482908110611dcf57fe5b600091825260209091206002909102015460068054600160a060020a0390921691638043154d91339185908110611e0257fe5b60009182526020808320600160029093020191909101546040805160e060020a63ffffffff8816028152600160a060020a03909516600486015260248501919091526044840188905251606480850194929391928390030190829087803b158015611e6c57600080fd5b505af1158015611e80573d6000803e3d6000fd5b505050506040513d6020811015611e9657600080fd5b50511515611ea357600080fd5b600101611db7565b3360009081526020819052604081206001015460e060020a908102811614611ed257600080fd5b7f65787465726e616c546f6b656e496e637265617365417070726f76616c00000060005b600554811015611fea576005805482908110611f0e57fe5b600091825260209091206002909102015460058054600160a060020a039092169163c1786ab291339185908110611f4157fe5b60009182526020808320600160029093020191909101546040805160e060020a63ffffffff8816028152600160a060020a03909516600486015260248501919091526044840188905251606480850194929391928390030190829087803b158015611fab57600080fd5b505af1158015611fbf573d6000803e3d6000fd5b505050506040513d6020811015611fd557600080fd5b50511515611fe257600080fd5b600101611ef6565b6001548490600160a060020a0380831691161461200657600080fd5b60408051600160a060020a038981168252602082018990528251908b169233927f2cee0640e7c161518a78fa901d8c0e4b2f51d42612532184a4f017a45b01ba28929081900390910190a3600154604080517f8cf1355c000000000000000000000000000000000000000000000000000000008152600160a060020a038b811660048301528a81166024830152604482018a905291519190921691638cf1355c9160648083019260209291908290030181600087803b1580156120c857600080fd5b505af11580156120dc573d6000803e3d6000fd5b505050506040513d60208110156120f257600080fd5b5051935050600090505b600654811015610e2957600680548290811061211457fe5b600091825260209091206002909102015460068054600160a060020a0390921691638043154d9133918590811061214757fe5b60009182526020808320600160029093020191909101546040805160e060020a63ffffffff8816028152600160a060020a03909516600486015260248501919091526044840188905251606480850194929391928390030190829087803b1580156121b157600080fd5b505af11580156121c5573d6000803e3d6000fd5b505050506040513d60208110156121db57600080fd5b505115156121e857600080fd5b6001016120fc565b6001546000908290600160a060020a0380831691161461220f57600080fd5b6122193384613d00565b15156122285760009150612274565b33600081815260208190526040808220828155600101805463ffffffff191690555182917f10bb2cf04cb8b902a8e736d494f1a51003be6d4b16ef6fb95ce62c38445023bf91a3600191505b50919050565b3360009081526020819052604081206001015460e060020a9081028116146122a157600080fd5b7f6275726e52657075746174696f6e00000000000000000000000000000000000060005b6005548110156123b95760058054829081106122dd57fe5b600091825260209091206002909102015460058054600160a060020a039092169163c1786ab29133918590811061231057fe5b60009182526020808320600160029093020191909101546040805160e060020a63ffffffff8816028152600160a060020a03909516600486015260248501919091526044840188905251606480850194929391928390030190829087803b15801561237a57600080fd5b505af115801561238e573d6000803e3d6000fd5b505050506040513d60208110156123a457600080fd5b505115156123b157600080fd5b6001016122c5565b6001548490600160a060020a038083169116146123d557600080fd5b604080518881529051600160a060020a0388169133917f186d8887e1b22f9d9b16849c36baa748950d09d9c9b67a4a6ea140eaad00c21c9181900360200190a3600354604080517f9dc29fac000000000000000000000000000000000000000000000000000000008152600160a060020a038981166004830152602482018b905291519190921691639dc29fac9160448083019260209291908290030181600087803b15801561248457600080fd5b505af1158015612498573d6000803e3d6000fd5b505050506040513d60208110156124ae57600080fd5b5051935050600090505b600654811015611b705760068054829081106124d057fe5b600091825260209091206002909102015460068054600160a060020a0390921691638043154d9133918590811061250357fe5b60009182526020808320600160029093020191909101546040805160e060020a63ffffffff8816028152600160a060020a03909516600486015260248501919091526044840188905251606480850194929391928390030190829087803b15801561256d57600080fd5b505af1158015612581573d6000803e3d6000fd5b505050506040513d602081101561259757600080fd5b505115156125a457600080fd5b6001016124b8565b6008602052600090815260409020805460019091015460ff9091169082565b60015460009081908390600160a060020a038083169116146125ec57600080fd5b600554600654909350915050915091565b600354600160a060020a031681565b6001546000908290600160a060020a0380831691161461262b57600080fd5b5050600354600160a060020a0316919050565b6001546000908290600160a060020a0380831691161461265d57600080fd5b505050600160a060020a031660009081526020819052604090206001015460e060020a0290565b6001546000908290600160a060020a038083169116146126a357600080fd5b6126ad8484613d00565b949350505050565b3360009081526020819052604081206001015460e060020a9081028116146126dc57600080fd5b7f65787465726e616c546f6b656e5472616e73666572000000000000000000000060005b6005548110156127f457600580548290811061271857fe5b600091825260209091206002909102015460058054600160a060020a039092169163c1786ab29133918590811061274b57fe5b60009182526020808320600160029093020191909101546040805160e060020a63ffffffff8816028152600160a060020a03909516600486015260248501919091526044840188905251606480850194929391928390030190829087803b1580156127b557600080fd5b505af11580156127c9573d6000803e3d6000fd5b505050506040513d60208110156127df57600080fd5b505115156127ec57600080fd5b600101612700565b6001548490600160a060020a0380831691161461281057600080fd5b86600160a060020a031688600160a060020a031633600160a060020a03167fd4c08afec48fd2cbe49032dc89d3b388b7a4e4f0563a1fdccd73339beb025aa1896040518082815260200191505060405180910390a4600154604080517fdab0efff000000000000000000000000000000000000000000000000000000008152600160a060020a038b811660048301528a81166024830152604482018a90529151919092169163dab0efff9160648083019260209291908290030181600087803b1580156128dc57600080fd5b505af11580156128f0573d6000803e3d6000fd5b505050506040513d602081101561290657600080fd5b5051935050600090505b600654811015610e2957600680548290811061292857fe5b600091825260209091206002909102015460068054600160a060020a0390921691638043154d9133918590811061295b57fe5b60009182526020808320600160029093020191909101546040805160e060020a63ffffffff8816028152600160a060020a03909516600486015260248501919091526044840188905251606480850194929391928390030190829087803b1580156129c557600080fd5b505af11580156129d9573d6000803e3d6000fd5b505050506040513d60208110156129ef57600080fd5b505115156129fc57600080fd5b600101612910565b3360009081526020819052604081206001015460e060020a908102811614612a2b57600080fd5b7f65787465726e616c546f6b656e4465637265617365417070726f76616c00000060005b600554811015612b43576005805482908110612a6757fe5b600091825260209091206002909102015460058054600160a060020a039092169163c1786ab291339185908110612a9a57fe5b60009182526020808320600160029093020191909101546040805160e060020a63ffffffff8816028152600160a060020a03909516600486015260248501919091526044840188905251606480850194929391928390030190829087803b158015612b0457600080fd5b505af1158015612b18573d6000803e3d6000fd5b505050506040513d6020811015612b2e57600080fd5b50511515612b3b57600080fd5b600101612a4f565b6001548490600160a060020a03808316911614612b5f57600080fd5b60408051600160a060020a038981168252602082018990528251908b169233927f56fc1f50d44108d3b715d77eb371d388bf2998c65b4eb5cf0ccd6c055be46d49929081900390910190a3600154604080517fd29ab9c4000000000000000000000000000000000000000000000000000000008152600160a060020a038b811660048301528a81166024830152604482018a90529151919092169163d29ab9c49160648083019260209291908290030181600087803b158015612c2157600080fd5b505af1158015612c35573d6000803e3d6000fd5b505050506040513d6020811015612c4b57600080fd5b5051935050600090505b600654811015610e29576006805482908110612c6d57fe5b600091825260209091206002909102015460068054600160a060020a0390921691638043154d91339185908110612ca057fe5b60009182526020808320600160029093020191909101546040805160e060020a63ffffffff8816028152600160a060020a03909516600486015260248501919091526044840188905251606480850194929391928390030190829087803b158015612d0a57600080fd5b505af1158015612d1e573d6000803e3d6000fd5b505050506040513d6020811015612d3457600080fd5b50511515612d4157600080fd5b600101612c55565b6000602081905290815260409020805460019091015460e060020a0282565b6000612d72613d4b565b50600160a060020a0383166000908152600760209081526040918290208251808401909352805460ff16158015845260019091015491830191909152612dde5760058160200151815481101515612dc557fe5b9060005260206000209060020201600101549150610ab1565b50600160a060020a0383166000908152600860209081526040918290208251808401909352805460ff16158015845260019091015491830191909152610ab15760068160200151815481101515612dc557fe5b600254600160a060020a031681565b33600090815260208190526040812060010154819060e060020a027c040000000000000000000000000000000000000000000000000000000090811614612e8657600080fd5b6001548390600160a060020a03808316911614612ea257600080fd5b85600160a060020a031663e2b0caef6040518163ffffffff1660e060020a028152600401602060405180830381600087803b158015612ee057600080fd5b505af1158015612ef4573d6000803e3d6000fd5b505050506040513d6020811015612f0a57600080fd5b505191506000826002811115612f1c57fe5b1480612f3357506002826002811115612f3157fe5b145b1561307957600160a060020a03861660009081526007602052604090205460ff16151561303957604080518082018252600160a060020a0388811680835260208084018a81526005805460018082018355600083815297517f036b6384b5eca791c62761152d0c79bb0604c104a5fb6f4eb0703f3154bb3db06002909302928301805473ffffffffffffffffffffffffffffffffffffffff1916919098161790965591517f036b6384b5eca791c62761152d0c79bb0604c104a5fb6f4eb0703f3154bb3db190920191909155855180870187528481529054600019018183019081529285526007909152939092209251835460ff19169015151783559051910155613079565b600160a060020a03861660009081526007602052604090206001015460058054879290811061306457fe5b60009182526020909120600160029092020101555b600182600281111561308757fe5b148061309e5750600282600281111561309c57fe5b145b156131e457600160a060020a03861660009081526008602052604090205460ff1615156131a457604080518082018252600160a060020a0388811680835260208084018a81526006805460018082018355600083815297517ff652222313e28459528d920b65115c16c04f3efc82aaedc97be59f3f377c0d3f6002909302928301805473ffffffffffffffffffffffffffffffffffffffff1916919098161790965591517ff652222313e28459528d920b65115c16c04f3efc82aaedc97be59f3f377c0d4090920191909155855180870187528481529054600019018183019081529285526008909152939092209251835460ff191690151517835590519101556131e4565b600160a060020a0386166000908152600860205260409020600101546006805487929081106131cf57fe5b60009182526020909120600160029092020101555b604051858152600160a060020a038716907f78800d7333b8d0174a0845569e3913b7ce4a3c03ca444dd9904172fc14f2fdad90879085906020810182600281111561322b57fe5b60ff1681526020019250505060405180910390a250600195945050505050565b6000613255613d4b565b3360009081526020819052604090206001015460e060020a027c02000000000000000000000000000000000000000000000000000000009081161461329957600080fd5b7f7265676973746572536368656d6500000000000000000000000000000000000060005b6005548110156133b15760058054829081106132d557fe5b600091825260209091206002909102015460058054600160a060020a039092169163c1786ab29133918590811061330857fe5b60009182526020808320600160029093020191909101546040805160e060020a63ffffffff8816028152600160a060020a03909516600486015260248501919091526044840188905251606480850194929391928390030190829087803b15801561337257600080fd5b505af1158015613386573d6000803e3d6000fd5b505050506040513d602081101561339c57600080fd5b505115156133a957600080fd5b6001016132bd565b6001548590600160a060020a038083169116146133cd57600080fd5b600160a060020a0389166000908152602081815260408083208151808301835281548152600191820154600160e060020a031960e060020a91820216828601908152338752948690529290942001549151929650918918910219167c1f00000000000000000000000000000000000000000000000000000000161561345157600080fd5b33600090815260208181526040909120600101549085015160e060020a90910219167c1f00000000000000000000000000000000000000000000000000000000161561349c57600080fd5b600160a060020a0389166000818152602081905260408082208b8155600101805463ffffffff191660e060020a8c8117041790555133917f546816e99403df442acb68ef69562682a50762c20a3fb6b472f7af9923736cfc91a36001945050600090505b6006548110156135f457600680548290811061351857fe5b600091825260209091206002909102015460068054600160a060020a0390921691638043154d9133918590811061354b57fe5b60009182526020808320600160029093020191909101546040805160e060020a63ffffffff8816028152600160a060020a03909516600486015260248501919091526044840188905251606480850194929391928390030190829087803b1580156135b557600080fd5b505af11580156135c9573d6000803e3d6000fd5b505050506040513d60208110156135df57600080fd5b505115156135ec57600080fd5b600101613500565b505050949350505050565b60068054829081106113cd57fe5b3360009081526020819052604081206001015460e060020a90810281161461363457600080fd5b7f6d696e7452657075746174696f6e00000000000000000000000000000000000060005b60055481101561374c57600580548290811061367057fe5b600091825260209091206002909102015460058054600160a060020a039092169163c1786ab2913391859081106136a357fe5b60009182526020808320600160029093020191909101546040805160e060020a63ffffffff8816028152600160a060020a03909516600486015260248501919091526044840188905251606480850194929391928390030190829087803b15801561370d57600080fd5b505af1158015613721573d6000803e3d6000fd5b505050506040513d602081101561373757600080fd5b5051151561374457600080fd5b600101613658565b6001548490600160a060020a0380831691161461376857600080fd5b604080518881529051600160a060020a0388169133917f837f2931e3df0592458212be4e470025f197feb7a8e39deb5b7f1f1d42e6f2629181900360200190a3600354604080517f40c10f19000000000000000000000000000000000000000000000000000000008152600160a060020a038981166004830152602482018b9052915191909216916340c10f199160448083019260209291908290030181600087803b15801561381757600080fd5b505af115801561382b573d6000803e3d6000fd5b505050506040513d602081101561384157600080fd5b5051935050600090505b600654811015611b7057600680548290811061386357fe5b600091825260209091206002909102015460068054600160a060020a0390921691638043154d9133918590811061389657fe5b60009182526020808320600160029093020191909101546040805160e060020a63ffffffff8816028152600160a060020a03909516600486015260248501919091526044840188905251606480850194929391928390030190829087803b15801561390057600080fd5b505af1158015613914573d6000803e3d6000fd5b505050506040513d602081101561392a57600080fd5b5051151561393757600080fd5b60010161384b565b6001546000908290600160a060020a0380831691161461395e57600080fd5b600160a060020a03841660009081526007602052604090205460ff16806126ad5750505050600160a060020a031660009081526008602052604090205460ff1690565b3360009081526020819052604081206001015460e060020a9081028116146139c857600080fd5b7f65787465726e616c546f6b656e5472616e7366657246726f6d0000000000000060005b600554811015613ae0576005805482908110613a0457fe5b600091825260209091206002909102015460058054600160a060020a039092169163c1786ab291339185908110613a3757fe5b60009182526020808320600160029093020191909101546040805160e060020a63ffffffff8816028152600160a060020a03909516600486015260248501919091526044840188905251606480850194929391928390030190829087803b158015613aa157600080fd5b505af1158015613ab5573d6000803e3d6000fd5b505050506040513d6020811015613acb57600080fd5b50511515613ad857600080fd5b6001016139ec565b6001548490600160a060020a03808316911614613afc57600080fd5b60408051600160a060020a038a8116825289811660208301528183018990529151918b169133917f283faba4b8dcfe263728666be500623fdf5ae89ac78e40952fe2493f918ed62c919081900360600190a3600154604080517fb756d5a2000000000000000000000000000000000000000000000000000000008152600160a060020a038c811660048301528b811660248301528a81166044830152606482018a90529151919092169163b756d5a29160848083019260209291908290030181600087803b158015613bcd57600080fd5b505af1158015613be1573d6000803e3d6000fd5b505050506040513d6020811015613bf757600080fd5b5051935050600090505b600654811015613cf5576006805482908110613c1957fe5b600091825260209091206002909102015460068054600160a060020a0390921691638043154d91339185908110613c4c57fe5b60009182526020808320600160029093020191909101546040805160e060020a63ffffffff8816028152600160a060020a03909516600486015260248501919091526044840188905251606480850194929391928390030190829087803b158015613cb657600080fd5b505af1158015613cca573d6000803e3d6000fd5b505050506040513d6020811015613ce057600080fd5b50511515613ced57600080fd5b600101613c01565b505095945050505050565b6001546000908290600160a060020a03808316911614613d1f57600080fd5b505050600160a060020a031660009081526020819052604090206001015460e060020a90810216151590565b604080518082019091526000808252602082015290565b815481835581811115613d8e57600202816002028360005260206000209182019101613d8e9190613d93565b505050565b613dcf91905b80821115613dcb57805473ffffffffffffffffffffffffffffffffffffffff1916815560006001820155600201613d99565b5090565b905600a165627a7a7230582039b8fba6298af43a7dbb112dc3344063b7542a0dbaf7fc0bdfb97876b473c6d10029a165627a7a723058209564a61ae733949ef288115e6527c8709ac5499ae4dae453067118b4c6a1869b0029",
  "source": "pragma solidity ^0.4.24;\n\nimport \"../controller/DAOToken.sol\";\nimport \"../controller/Reputation.sol\";\nimport \"./UniversalScheme.sol\";\nimport \"../controller/UController.sol\";\nimport \"../controller/Controller.sol\";\n\n\n/**\n * @title ControllerCreator for creating a single controller.\n */\n\ncontract ControllerCreator {\n\n    function create(Avatar _avatar) public returns(address) {\n        Controller controller = new Controller(_avatar);\n        controller.registerScheme(msg.sender,bytes32(0),bytes4(0x1F),address(_avatar));\n        controller.unregisterScheme(this,address(_avatar));\n        return address(controller);\n    }\n}\n\n/**\n * @title Genesis Scheme that creates organizations\n */\n\n\ncontract DaoCreator {\n\n    mapping(address=>address) public locks;\n\n    event NewOrg (address _avatar);\n    event InitialSchemesSet (address _avatar);\n    ControllerCreator controllerCreator;\n\n    constructor(ControllerCreator _controllerCreator) public {\n        controllerCreator = _controllerCreator;\n    }\n\n  /**\n    * @dev Create a new organization\n    * @param _orgName The name of the new organization\n    * @param _tokenName The name of the token associated with the organization\n    * @param _tokenSymbol The symbol of the token\n    * @param _founders An array with the addresses of the founders of the organization\n    * @param _foundersTokenAmount An array of amount of tokens that the founders\n    *  receive in the new organization\n    * @param _foundersReputationAmount An array of amount of reputation that the\n    *   founders receive in the new organization\n    * @param  _uController universal controller instance\n    *         if _uController address equal to zero the organization will use none universal controller.\n    * @param  _cap token cap - 0 for no cap.\n    * @return The address of the avatar of the controller\n    */\n    function forgeOrg (\n        bytes32 _orgName,\n        string _tokenName,\n        string _tokenSymbol,\n        address[] _founders,\n        uint[] _foundersTokenAmount,\n        uint[] _foundersReputationAmount,\n        UController _uController,\n        uint _cap\n      )\n      external\n      returns(address)\n      {\n        //The call for the private function is needed to bypass a deep stack issues\n        return _forgeOrg(\n            _orgName,\n            _tokenName,\n            _tokenSymbol,\n            _founders,\n            _foundersTokenAmount,\n            _foundersReputationAmount,\n            _uController,\n            _cap);\n    }\n\n     /**\n      * @dev Set initial schemes for the organization.\n      * @param _avatar organization avatar (returns from forgeOrg)\n      * @param _schemes the schemes to register for the organization\n      * @param _params the schemes's params\n      * @param _permissions the schemes permissions.\n      */\n    function setSchemes (\n        Avatar _avatar,\n        address[] _schemes,\n        bytes32[] _params,\n        bytes4[] _permissions\n    )\n        external\n    {\n        // this action can only be executed by the account that holds the lock\n        // for this controller\n        require(locks[address(_avatar)] == msg.sender);\n        // register initial schemes:\n        ControllerInterface controller = ControllerInterface(_avatar.owner());\n        for ( uint i = 0 ; i < _schemes.length ; i++ ) {\n            controller.registerScheme(_schemes[i], _params[i], _permissions[i],address(_avatar));\n        }\n        // Unregister self:\n        controller.unregisterScheme(this,address(_avatar));\n        // Remove lock:\n        delete locks[address(_avatar)];\n        emit InitialSchemesSet(address(_avatar));\n    }\n\n    /**\n     * @dev Create a new organization\n     * @param _orgName The name of the new organization\n     * @param _tokenName The name of the token associated with the organization\n     * @param _tokenSymbol The symbol of the token\n     * @param _founders An array with the addresses of the founders of the organization\n     * @param _foundersTokenAmount An array of amount of tokens that the founders\n     *  receive in the new organization\n     * @param _foundersReputationAmount An array of amount of reputation that the\n     *   founders receive in the new organization\n     * @param  _uController universal controller instance\n     *         if _uController address equal to zero the organization will use none universal controller.\n     * @param  _cap token cap - 0 for no cap.\n     * @return The address of the avatar of the controller\n     */\n    function _forgeOrg (\n        bytes32 _orgName,\n        string _tokenName,\n        string _tokenSymbol,\n        address[] _founders,\n        uint[] _foundersTokenAmount,\n        uint[] _foundersReputationAmount,\n        UController _uController,\n        uint _cap\n    ) private returns(address)\n    {\n        // Create Token, Reputation and Avatar:\n        require(_founders.length == _foundersTokenAmount.length);\n        require(_founders.length == _foundersReputationAmount.length);\n        require(_founders.length > 0);\n        DAOToken  nativeToken = new DAOToken(_tokenName, _tokenSymbol,_cap);\n        Reputation  nativeReputation = new Reputation();\n        Avatar  avatar = new Avatar(_orgName, nativeToken, nativeReputation);\n        ControllerInterface  controller;\n\n        // Mint token and reputation for founders:\n        for (uint i = 0 ; i < _founders.length ; i++ ) {\n            require(_founders[i] != address(0));\n            nativeToken.mint(_founders[i],_foundersTokenAmount[i]);\n            nativeReputation.mint(_founders[i],_foundersReputationAmount[i]);\n        }\n\n        // Create Controller:\n        if (UController(0) == _uController) {\n            controller = ControllerInterface(controllerCreator.create(avatar));\n            avatar.transferOwnership(controller);\n        } else {\n            controller = _uController;\n            avatar.transferOwnership(controller);\n            _uController.newOrganization(avatar);\n        }\n        // Transfer ownership:\n        nativeToken.transferOwnership(controller);\n        nativeReputation.transferOwnership(controller);\n\n        locks[address(avatar)] = msg.sender;\n\n        emit NewOrg (address(avatar));\n        return (address(avatar));\n    }\n}\n",
  "sourcePath": "/home/adam/cryptoDev/Ethereum/daostack/arc/contracts/universalSchemes/DaoCreator.sol",
  "compiler": {
    "name": "solc",
    "version": "0.4.24+commit.e67f0147.Emscripten.clang"
  },
  "schemaVersion": "2.0.1",
  "updatedAt": "2018-09-08T15:54:15.451Z"
}