{
  "contractName": "DaoCreator",
  "abi": [
    {
      "constant": true,
      "inputs": [
        {
          "name": "",
          "type": "address"
        }
      ],
      "name": "locks",
      "outputs": [
        {
          "name": "",
          "type": "address"
        }
      ],
      "payable": false,
      "stateMutability": "view",
      "type": "function"
    },
    {
      "inputs": [
        {
          "name": "_controllerCreator",
          "type": "address"
        }
      ],
      "payable": false,
      "stateMutability": "nonpayable",
      "type": "constructor"
    },
    {
      "anonymous": false,
      "inputs": [
        {
          "indexed": false,
          "name": "_avatar",
          "type": "address"
        }
      ],
      "name": "NewOrg",
      "type": "event"
    },
    {
      "anonymous": false,
      "inputs": [
        {
          "indexed": false,
          "name": "_avatar",
          "type": "address"
        }
      ],
      "name": "InitialSchemesSet",
      "type": "event"
    },
    {
      "constant": false,
      "inputs": [
        {
          "name": "_orgName",
          "type": "bytes32"
        },
        {
          "name": "_tokenName",
          "type": "string"
        },
        {
          "name": "_tokenSymbol",
          "type": "string"
        },
        {
          "name": "_founders",
          "type": "address[]"
        },
        {
          "name": "_foundersTokenAmount",
          "type": "uint256[]"
        },
        {
          "name": "_foundersReputationAmount",
          "type": "uint256[]"
        },
        {
          "name": "_uController",
          "type": "address"
        },
        {
          "name": "_cap",
          "type": "uint256"
        }
      ],
      "name": "forgeOrg",
      "outputs": [
        {
          "name": "",
          "type": "address"
        }
      ],
      "payable": false,
      "stateMutability": "nonpayable",
      "type": "function"
    },
    {
      "constant": false,
      "inputs": [
        {
          "name": "_avatar",
          "type": "address"
        },
        {
          "name": "_schemes",
          "type": "address[]"
        },
        {
          "name": "_params",
          "type": "bytes32[]"
        },
        {
          "name": "_permissions",
          "type": "bytes4[]"
        }
      ],
      "name": "setSchemes",
      "outputs": [],
      "payable": false,
      "stateMutability": "nonpayable",
      "type": "function"
    }
  ],
  "bytecode": "0x608060405234801561001057600080fd5b50604051602080612ed4833981016040525160018054600160a060020a031916600160a060020a03909216919091179055612e84806100506000396000f30060806040526004361061003d5763ffffffff60e060020a6000350416635de9a1378114610042578063722c9c3b1461007f578063cc873c2e146100c6575b600080fd5b34801561004e57600080fd5b50610063600160a060020a0360043516610129565b60408051600160a060020a039092168252519081900360200190f35b34801561008b57600080fd5b506100c460048035600160a060020a03169060248035808201929081013591604435808201929081013591606435908101910135610144565b005b3480156100d257600080fd5b5061006360048035906024803580820192908101359160443580820192908101359160643580820192908101359160843580820192908101359160a435908101910135600160a060020a0360c4351660e4356103f5565b600060208190529081526040902054600160a060020a031681565b600160a060020a038781166000908152602081905260408120549091829116331461016e57600080fd5b88600160a060020a0316638da5cb5b6040518163ffffffff1660e060020a028152600401602060405180830381600087803b1580156101ac57600080fd5b505af11580156101c0573d6000803e3d6000fd5b505050506040513d60208110156101d657600080fd5b50519150600090505b868110156102ed57600160a060020a03821663e869d45f89898481811061020257fe5b90506020020135600160a060020a0316888885818110151561022057fe5b6020029190910135905087878681811061023657fe5b6040805163ffffffff881660e060020a028152600160a060020a0396871660048201526024810195909552602091820293909301357fffffffff00000000000000000000000000000000000000000000000000000000166044850152938f1660648401525051608480830193928290030181600087803b1580156102b957600080fd5b505af11580156102cd573d6000803e3d6000fd5b505050506040513d60208110156102e357600080fd5b50506001016101df565b604080517f039de01d000000000000000000000000000000000000000000000000000000008152306004820152600160a060020a038b8116602483015291519184169163039de01d916044808201926020929091908290030181600087803b15801561035857600080fd5b505af115801561036c573d6000803e3d6000fd5b505050506040513d602081101561038257600080fd5b5050600160a060020a03891660008181526020818152604091829020805473ffffffffffffffffffffffffffffffffffffffff19169055815192835290517f9007c9042f12be953f7dbe3909f56c3f088e9fe294dbebbef4a67afa63462b6a9281900390910190a1505050505050505050565b60006104f88e8e8e8080601f0160208091040260200160405190810160405280939291908181526020018383808284378201915050505050508d8d8080601f0160208091040260200160405190810160405280939291908181526020018383808284378201915050505050508c8c808060200260200160405190810160405280939291908181526020018383602002808284378201915050505050508b8b808060200260200160405190810160405280939291908181526020018383602002808284378201915050505050508a8a80806020026020016040519081016040528093929190818152602001838360200280828437820191505050505050898961050a565b9e9d5050505050505050505050505050565b60008060008060008089518b5114151561052357600080fd5b88518b511461053157600080fd5b8a5160001061053f57600080fd5b8c8c8861054a610be2565b60408101829052606080825284519082015283518190602080830191608084019188019080838360005b8381101561058c578181015183820152602001610574565b50505050905090810190601f1680156105b95780820380516001836020036101000a031916815260200191505b50838103825285518152855160209182019187019080838360005b838110156105ec5781810151838201526020016105d4565b50505050905090810190601f1680156106195780820380516001836020036101000a031916815260200191505b5095505050505050604051809103906000f08015801561063d573d6000803e3d6000fd5b509450610648610bf2565b604051809103906000f080158015610664573d6000803e3d6000fd5b5093508d8585610672610c02565b928352600160a060020a039182166020840152166040808301919091525190819003606001906000f0801580156106ad573d6000803e3d6000fd5b509250600090505b8a51811015610871578a516000908c90839081106106cf57fe5b60209081029091010151600160a060020a031614156106ed57600080fd5b84600160a060020a03166340c10f198c8381518110151561070a57fe5b906020019060200201518c8481518110151561072257fe5b906020019060200201516040518363ffffffff1660e060020a0281526004018083600160a060020a0316600160a060020a0316815260200182815260200192505050602060405180830381600087803b15801561077e57600080fd5b505af1158015610792573d6000803e3d6000fd5b505050506040513d60208110156107a857600080fd5b50508a51600160a060020a038516906340c10f19908d90849081106107c957fe5b906020019060200201518b848151811015156107e157fe5b906020019060200201516040518363ffffffff1660e060020a0281526004018083600160a060020a0316600160a060020a0316815260200182815260200192505050602060405180830381600087803b15801561083d57600080fd5b505af1158015610851573d6000803e3d6000fd5b505050506040513d602081101561086757600080fd5b50506001016106b5565b600160a060020a038816151561099957600154604080517f9ed93318000000000000000000000000000000000000000000000000000000008152600160a060020a03868116600483015291519190921691639ed933189160248083019260209291908290030181600087803b1580156108e957600080fd5b505af11580156108fd573d6000803e3d6000fd5b505050506040513d602081101561091357600080fd5b5051604080517ff2fde38b000000000000000000000000000000000000000000000000000000008152600160a060020a03808416600483015291519294509085169163f2fde38b9160248082019260009290919082900301818387803b15801561097c57600080fd5b505af1158015610990573d6000803e3d6000fd5b50505050610a83565b87915082600160a060020a031663f2fde38b836040518263ffffffff1660e060020a0281526004018082600160a060020a0316600160a060020a03168152602001915050600060405180830381600087803b1580156109f757600080fd5b505af1158015610a0b573d6000803e3d6000fd5b5050505087600160a060020a031663b9981364846040518263ffffffff1660e060020a0281526004018082600160a060020a0316600160a060020a03168152602001915050600060405180830381600087803b158015610a6a57600080fd5b505af1158015610a7e573d6000803e3d6000fd5b505050505b84600160a060020a031663f2fde38b836040518263ffffffff1660e060020a0281526004018082600160a060020a0316600160a060020a03168152602001915050600060405180830381600087803b158015610ade57600080fd5b505af1158015610af2573d6000803e3d6000fd5b5050505083600160a060020a031663f2fde38b836040518263ffffffff1660e060020a0281526004018082600160a060020a0316600160a060020a03168152602001915050600060405180830381600087803b158015610b5157600080fd5b505af1158015610b65573d6000803e3d6000fd5b505050600160a060020a03841660008181526020818152604091829020805473ffffffffffffffffffffffffffffffffffffffff191633179055815192835290517f244496352f5e67e59ce96b4a53ef9ea7cb88b7db33eb13dc5e771bd04385a60e9350918290030190a150909c9b505050505050505050505050565b6040516112f980610c1383390190565b60405161055480611f0c83390190565b6040516109f98061246083390190560060806040526003805460a060020a60ff02191690553480156200002157600080fd5b50604051620012f9380380620012f983398101604090815281516020808401519284015160038054600160a060020a0319163317905591840180519094939093019262000075916004919086019062000098565b5081516200008b90600590602085019062000098565b50600655506200013d9050565b828054600181600116156101000203166002900490600052602060002090601f016020900481019282601f10620000db57805160ff19168380011785556200010b565b828001600101855582156200010b579182015b828111156200010b578251825591602001919060010190620000ee565b50620001199291506200011d565b5090565b6200013a91905b8082111562000119576000815560010162000124565b90565b6111ac806200014d6000396000f30060806040526004361061013d5763ffffffff7c010000000000000000000000000000000000000000000000000000000060003504166305d2035b811461014257806306fdde031461016b578063095ea7b3146101f557806318160ddd1461021957806323b872dd14610240578063313ce5671461026a578063355274ea146102955780634000aea0146102aa57806340c10f191461030657806342966c681461032a578063661884631461034457806370a0823114610368578063715018a6146103895780637d64bcb41461039e5780638da5cb5b146103b357806390db623f146103e457806395d89b4114610440578063a9059cbb14610455578063c1d34b8914610479578063cae9ca51146104db578063cb3993be14610537578063d73dd62314610593578063dd62ed3e146105b7578063f2fde38b146105de575b600080fd5b34801561014e57600080fd5b506101576105ff565b604080519115158252519081900360200190f35b34801561017757600080fd5b5061018061060f565b6040805160208082528351818301528351919283929083019185019080838360005b838110156101ba5781810151838201526020016101a2565b50505050905090810190601f1680156101e75780820380516001836020036101000a031916815260200191505b509250505060405180910390f35b34801561020157600080fd5b50610157600160a060020a036004351660243561069d565b34801561022557600080fd5b5061022e610703565b60408051918252519081900360200190f35b34801561024c57600080fd5b50610157600160a060020a0360043581169060243516604435610709565b34801561027657600080fd5b5061027f61086e565b6040805160ff9092168252519081900360200190f35b3480156102a157600080fd5b5061022e610873565b604080516020600460443581810135601f8101849004840285018401909552848452610157948235600160a060020a03169460248035953695946064949201919081908401838280828437509497506108799650505050505050565b34801561031257600080fd5b50610157600160a060020a0360043516602435610929565b34801561033657600080fd5b50610342600435610997565b005b34801561035057600080fd5b50610157600160a060020a03600435166024356109a4565b34801561037457600080fd5b5061022e600160a060020a0360043516610a94565b34801561039557600080fd5b50610342610aaf565b3480156103aa57600080fd5b50610157610b1d565b3480156103bf57600080fd5b506103c8610ba1565b60408051600160a060020a039092168252519081900360200190f35b604080516020600460443581810135601f8101849004840285018401909552848452610157948235600160a060020a0316946024803595369594606494920191908190840183828082843750949750610bb09650505050505050565b34801561044c57600080fd5b50610180610bd2565b34801561046157600080fd5b50610157600160a060020a0360043516602435610c2d565b604080516020601f60643560048181013592830184900484028501840190955281845261015794600160a060020a038135811695602480359092169560443595369560849401918190840183828082843750949750610cfc9650505050505050565b604080516020600460443581810135601f8101849004840285018401909552848452610157948235600160a060020a0316946024803595369594606494920191908190840183828082843750949750610dae9650505050505050565b604080516020600460443581810135601f8101849004840285018401909552848452610157948235600160a060020a0316946024803595369594606494920191908190840183828082843750949750610dd09650505050505050565b34801561059f57600080fd5b50610157600160a060020a0360043516602435610df2565b3480156105c357600080fd5b5061022e600160a060020a0360043581169060243516610e8b565b3480156105ea57600080fd5b50610342600160a060020a0360043516610eb6565b60035460a060020a900460ff1681565b6004805460408051602060026001851615610100026000190190941693909304601f810184900484028201840190925281815292918301828280156106955780601f1061066a57610100808354040283529160200191610695565b820191906000526020600020905b81548152906001019060200180831161067857829003601f168201915b505050505081565b336000818152600260209081526040808320600160a060020a038716808552908352818420869055815186815291519394909390927f8c5be1e5ebec7d5bd14f71427d1e84f3dd0314c0f7b2291e5b200ac8c7c3b925928290030190a350600192915050565b60015490565b6000600160a060020a038316151561072057600080fd5b600160a060020a03841660009081526020819052604090205482111561074557600080fd5b600160a060020a038416600090815260026020908152604080832033845290915290205482111561077557600080fd5b600160a060020a03841660009081526020819052604090205461079e908363ffffffff610ed616565b600160a060020a0380861660009081526020819052604080822093909355908516815220546107d3908363ffffffff610ee816565b600160a060020a03808516600090815260208181526040808320949094559187168152600282528281203382529091522054610815908363ffffffff610ed616565b600160a060020a0380861660008181526002602090815260408083203384528252918290209490945580518681529051928716939192600080516020611161833981519152929181900390910190a35060019392505050565b601281565b60065481565b6000600160a060020a03841630141561089157600080fd5b61089b8484610c2d565b5083600160a060020a0316348360405180828051906020019080838360005b838110156108d25781810151838201526020016108ba565b50505050905090810190601f1680156108ff5780820380516001836020036101000a031916815260200191505b5091505060006040518083038185875af192505050151561091f57600080fd5b5060019392505050565b600354600090600160a060020a0316331461094357600080fd5b60035460a060020a900460ff161561095a57600080fd5b600060065411156109865760065460015461097b908463ffffffff610ee816565b111561098657600080fd5b6109908383610efb565b9392505050565b6109a13382610ff3565b50565b336000908152600260209081526040808320600160a060020a0386168452909152812054808311156109f957336000908152600260209081526040808320600160a060020a0388168452909152812055610a2e565b610a09818463ffffffff610ed616565b336000908152600260209081526040808320600160a060020a03891684529091529020555b336000818152600260209081526040808320600160a060020a0389168085529083529281902054815190815290519293927f8c5be1e5ebec7d5bd14f71427d1e84f3dd0314c0f7b2291e5b200ac8c7c3b925929181900390910190a35060019392505050565b600160a060020a031660009081526020819052604090205490565b600354600160a060020a03163314610ac657600080fd5b600354604051600160a060020a03909116907ff8df31144d9c2f0f6b59d69b8b98abd5459d07f2742c4df920b25aae33c6482090600090a26003805473ffffffffffffffffffffffffffffffffffffffff19169055565b600354600090600160a060020a03163314610b3757600080fd5b60035460a060020a900460ff1615610b4e57600080fd5b6003805474ff0000000000000000000000000000000000000000191660a060020a1790556040517fae5184fba832cb2b1f702aca6117b8d265eaf03ad33eb133f19dde0f5920fa0890600090a150600190565b600354600160a060020a031681565b6000600160a060020a038416301415610bc857600080fd5b61089b8484610df2565b6005805460408051602060026001851615610100026000190190941693909304601f810184900484028201840190925281815292918301828280156106955780601f1061066a57610100808354040283529160200191610695565b6000600160a060020a0383161515610c4457600080fd5b33600090815260208190526040902054821115610c6057600080fd5b33600090815260208190526040902054610c80908363ffffffff610ed616565b3360009081526020819052604080822092909255600160a060020a03851681522054610cb2908363ffffffff610ee816565b600160a060020a038416600081815260208181526040918290209390935580518581529051919233926000805160206111618339815191529281900390910190a350600192915050565b6000600160a060020a038416301415610d1457600080fd5b610d1f858585610709565b5083600160a060020a0316348360405180828051906020019080838360005b83811015610d56578181015183820152602001610d3e565b50505050905090810190601f168015610d835780820380516001836020036101000a031916815260200191505b5091505060006040518083038185875af1925050501515610da357600080fd5b506001949350505050565b6000600160a060020a038416301415610dc657600080fd5b61089b848461069d565b6000600160a060020a038416301415610de857600080fd5b61089b84846109a4565b336000908152600260209081526040808320600160a060020a0386168452909152812054610e26908363ffffffff610ee816565b336000818152600260209081526040808320600160a060020a0389168085529083529281902085905580519485525191937f8c5be1e5ebec7d5bd14f71427d1e84f3dd0314c0f7b2291e5b200ac8c7c3b925929081900390910190a350600192915050565b600160a060020a03918216600090815260026020908152604080832093909416825291909152205490565b600354600160a060020a03163314610ecd57600080fd5b6109a1816110e2565b600082821115610ee257fe5b50900390565b81810182811015610ef557fe5b92915050565b600354600090600160a060020a03163314610f1557600080fd5b60035460a060020a900460ff1615610f2c57600080fd5b600154610f3f908363ffffffff610ee816565b600155600160a060020a038316600090815260208190526040902054610f6b908363ffffffff610ee816565b600160a060020a03841660008181526020818152604091829020939093558051858152905191927f0f6798a560793a54c3bcfe86a93cde1e73087d944c0ea20544137d412139688592918290030190a2604080518381529051600160a060020a038516916000916000805160206111618339815191529181900360200190a350600192915050565b600160a060020a03821660009081526020819052604090205481111561101857600080fd5b600160a060020a038216600090815260208190526040902054611041908263ffffffff610ed616565b600160a060020a03831660009081526020819052604090205560015461106d908263ffffffff610ed616565b600155604080518281529051600160a060020a038416917fcc16f5dbb4873280815c1ee09dbd06736cffcc184412cf7a71a0fdb75d397ca5919081900360200190a2604080518281529051600091600160a060020a038516916000805160206111618339815191529181900360200190a35050565b600160a060020a03811615156110f757600080fd5b600354604051600160a060020a038084169216907f8be0079c531659141344cd1fd0a4f28419497f9722a3daafe3b4186f6b6457e090600090a36003805473ffffffffffffffffffffffffffffffffffffffff1916600160a060020a03929092169190911790555600ddf252ad1be2c89b69c2b068fc378daa952ba7f163c4a11628f55a4df523b3efa165627a7a72305820abc9b48aafef1778b5cf8962bc38c510e68a4a7d065d06fbbe3c1c3e2e6c014900296080604052601260035560008054600160a060020a0319163317905561052a8061002a6000396000f3006080604052600436106100985763ffffffff7c010000000000000000000000000000000000000000000000000000000060003504166318160ddd811461009d57806327e235e3146100c4578063313ce567146100e557806340c10f19146100fa578063715018a6146101325780638da5cb5b146101495780639dc29fac1461017a578063db89c0441461019e578063f2fde38b146101bf575b600080fd5b3480156100a957600080fd5b506100b26101e0565b60408051918252519081900360200190f35b3480156100d057600080fd5b506100b2600160a060020a03600435166101e6565b3480156100f157600080fd5b506100b26101f8565b34801561010657600080fd5b5061011e600160a060020a03600435166024356101fe565b604080519115158252519081900360200190f35b34801561013e57600080fd5b506101476102b0565b005b34801561015557600080fd5b5061015e61031c565b60408051600160a060020a039092168252519081900360200190f35b34801561018657600080fd5b5061011e600160a060020a036004351660243561032b565b3480156101aa57600080fd5b506100b2600160a060020a036004351661041e565b3480156101cb57600080fd5b50610147600160a060020a0360043516610439565b60025481565b60016020526000908152604090205481565b60035481565b60008054600160a060020a0316331461021657600080fd5b600254610229908363ffffffff61045c16565b600255600160a060020a038316600090815260016020526040902054610255908363ffffffff61045c16565b600160a060020a038416600081815260016020908152604091829020939093558051858152905191927f0f6798a560793a54c3bcfe86a93cde1e73087d944c0ea20544137d412139688592918290030190a250600192915050565b600054600160a060020a031633146102c757600080fd5b60008054604051600160a060020a03909116917ff8df31144d9c2f0f6b59d69b8b98abd5459d07f2742c4df920b25aae33c6482091a26000805473ffffffffffffffffffffffffffffffffffffffff19169055565b600054600160a060020a031681565b600080548190600160a060020a0316331461034557600080fd5b50600160a060020a03831660009081526001602052604090205482908111156103835750600160a060020a0383166000908152600160205260409020545b600254610396908263ffffffff61046f16565b600255600160a060020a0384166000908152600160205260409020546103c2908263ffffffff61046f16565b600160a060020a038516600081815260016020908152604091829020939093558051848152905191927fcc16f5dbb4873280815c1ee09dbd06736cffcc184412cf7a71a0fdb75d397ca592918290030190a25060019392505050565b600160a060020a031660009081526001602052604090205490565b600054600160a060020a0316331461045057600080fd5b61045981610481565b50565b8181018281101561046957fe5b92915050565b60008282111561047b57fe5b50900390565b600160a060020a038116151561049657600080fd5b60008054604051600160a060020a03808516939216917f8be0079c531659141344cd1fd0a4f28419497f9722a3daafe3b4186f6b6457e091a36000805473ffffffffffffffffffffffffffffffffffffffff1916600160a060020a03929092169190911790555600a165627a7a7230582025a7b4518aec5866af282163ab77cb1c7085062b95e4f1ef356b42b392b6a6d90029608060405234801561001057600080fd5b506040516060806109f983398101604090815281516020830151919092015160008054600160a060020a0319908116331790915560019390935560028054600160a060020a0393841690851617905560038054929091169190921617905561097c8061007d6000396000f3006080604052600436106100a05763ffffffff60e060020a6000350416631386dc2d81146100d85780634650c308146100ff578063715018a61461016857806389ae1c901461017d5780638cf1355c146101ae5780638da5cb5b146101ec578063b756d5a214610201578063cb16d4a214610231578063d29ab9c414610255578063dab0efff1461027f578063e1758bd8146102a9578063f2fde38b146102be575b60408051348152905133917ff32a9f77675fd5917534c7746608fd3e309eac68fbdcbf5925e24ca97a704396919081900360200190a2005b3480156100e457600080fd5b506100ed6102df565b60408051918252519081900360200190f35b34801561010b57600080fd5b5060408051602060046024803582810135601f8101859004850286018501909652858552610166958335600160a060020a03169536956044949193909101919081908401838280828437509497506102e59650505050505050565b005b34801561017457600080fd5b5061016661038c565b34801561018957600080fd5b506101926103f8565b60408051600160a060020a039092168252519081900360200190f35b3480156101ba57600080fd5b506101d8600160a060020a0360043581169060243516604435610407565b604080519115158252519081900360200190f35b3480156101f857600080fd5b506101926104fe565b34801561020d57600080fd5b506101d8600160a060020a036004358116906024358116906044351660643561050d565b34801561023d57600080fd5b506101d8600435600160a060020a036024351661061f565b34801561026157600080fd5b506101d8600160a060020a03600435811690602435166044356106b6565b34801561028b57600080fd5b506101d8600160a060020a03600435811690602435166044356107ad565b3480156102b557600080fd5b506101926108a1565b3480156102ca57600080fd5b50610166600160a060020a03600435166108b0565b60015481565b60008054600160a060020a031633146102fd57600080fd5b82600160a060020a03168260405180828051906020019080838360005b8381101561033257818101518382015260200161031a565b50505050905090810190601f16801561035f5780820380516001836020036101000a031916815260200191505b509150506000604051808303816000865af191505090503d6000803e808015610387573d6000f35b3d6000fd5b600054600160a060020a031633146103a357600080fd5b60008054604051600160a060020a03909116917ff8df31144d9c2f0f6b59d69b8b98abd5459d07f2742c4df920b25aae33c6482091a26000805473ffffffffffffffffffffffffffffffffffffffff19169055565b600354600160a060020a031681565b60008054600160a060020a0316331461041f57600080fd5b83600160a060020a031663d73dd62384846040518363ffffffff1660e060020a0281526004018083600160a060020a0316600160a060020a0316815260200182815260200192505050602060405180830381600087803b15801561048257600080fd5b505af1158015610496573d6000803e3d6000fd5b505050506040513d60208110156104ac57600080fd5b505060408051600160a060020a038581168252602082018590528251908716927fbe7df27d98bd0614ae920a695c2c2be09c164d8456083da020a98538692c465f928290030190a25060019392505050565b600054600160a060020a031681565b60008054600160a060020a0316331461052557600080fd5b604080517f23b872dd000000000000000000000000000000000000000000000000000000008152600160a060020a0386811660048301528581166024830152604482018590529151918716916323b872dd916064808201926020929091908290030181600087803b15801561059957600080fd5b505af11580156105ad573d6000803e3d6000fd5b505050506040513d60208110156105c357600080fd5b505060408051600160a060020a03868116825285811660208301528183018590529151918716917f179c15de44aa7ab84896301974328eb40b5b40fe01cfe0fee2924ea712c3e8439181900360600190a2506001949350505050565b60008054600160a060020a0316331461063757600080fd5b604051600160a060020a0383169084156108fc029085906000818181858888f1935050505015801561066d573d6000803e3d6000fd5b50604080518481529051600160a060020a038416917f22fca66666089f39bc900dd6605b489df4aae6260cc8ea8257594cfb8c84926c919081900360200190a250600192915050565b60008054600160a060020a031633146106ce57600080fd5b83600160a060020a0316636618846384846040518363ffffffff1660e060020a0281526004018083600160a060020a0316600160a060020a0316815260200182815260200192505050602060405180830381600087803b15801561073157600080fd5b505af1158015610745573d6000803e3d6000fd5b505050506040513d602081101561075b57600080fd5b505060408051600160a060020a038581168252602082018590528251908716927f495e426dd61227fe840d969dfba17620c573364af8c37748ea71f96f744ae334928290030190a25060019392505050565b60008054600160a060020a031633146107c557600080fd5b83600160a060020a031663a9059cbb84846040518363ffffffff1660e060020a0281526004018083600160a060020a0316600160a060020a0316815260200182815260200192505050602060405180830381600087803b15801561082857600080fd5b505af115801561083c573d6000803e3d6000fd5b505050506040513d602081101561085257600080fd5b5050604080518381529051600160a060020a0380861692908716917f49dc2a60d2599a7b6932d78fb694c30dfc596fe4e0282b5d0fd184b52472c04d9181900360200190a35060019392505050565b600254600160a060020a031681565b600054600160a060020a031633146108c757600080fd5b6108d0816108d3565b50565b600160a060020a03811615156108e857600080fd5b60008054604051600160a060020a03808516939216917f8be0079c531659141344cd1fd0a4f28419497f9722a3daafe3b4186f6b6457e091a36000805473ffffffffffffffffffffffffffffffffffffffff1916600160a060020a03929092169190911790555600a165627a7a72305820adad334e105851d02848fd6fad6d44a40ba4ef3673fdb3f9f513d1d12d421f8e0029a165627a7a72305820ce43f002cc644a19cb789c8d2669541b2952eb299d167eb061aaf2c5463280000029",
  "source": "pragma solidity ^0.4.24;\n\nimport \"../controller/DAOToken.sol\";\nimport \"../controller/Reputation.sol\";\nimport \"./UniversalScheme.sol\";\nimport \"../controller/UController.sol\";\nimport \"../controller/Controller.sol\";\n\n\n/**\n * @title ControllerCreator for creating a single controller.\n */\n\ncontract ControllerCreator {\n\n    function create(Avatar _avatar) public returns(address) {\n        Controller controller = new Controller(_avatar);\n        controller.registerScheme(msg.sender,bytes32(0),bytes4(0x1F),address(_avatar));\n        controller.unregisterScheme(this,address(_avatar));\n        return address(controller);\n    }\n}\n\n/**\n * @title Genesis Scheme that creates organizations\n */\n\n\ncontract DaoCreator {\n\n    mapping(address=>address) public locks;\n\n    event NewOrg (address _avatar);\n    event InitialSchemesSet (address _avatar);\n    ControllerCreator controllerCreator;\n\n    constructor(ControllerCreator _controllerCreator) public {\n        controllerCreator = _controllerCreator;\n    }\n\n  /**\n    * @dev Create a new organization\n    * @param _orgName The name of the new organization\n    * @param _tokenName The name of the token associated with the organization\n    * @param _tokenSymbol The symbol of the token\n    * @param _founders An array with the addresses of the founders of the organization\n    * @param _foundersTokenAmount An array of amount of tokens that the founders\n    *  receive in the new organization\n    * @param _foundersReputationAmount An array of amount of reputation that the\n    *   founders receive in the new organization\n    * @param  _uController universal controller instance\n    *         if _uController address equal to zero the organization will use none universal controller.\n    * @param  _cap token cap - 0 for no cap.\n    * @return The address of the avatar of the controller\n    */\n    function forgeOrg (\n        bytes32 _orgName,\n        string _tokenName,\n        string _tokenSymbol,\n        address[] _founders,\n        uint[] _foundersTokenAmount,\n        uint[] _foundersReputationAmount,\n        UController _uController,\n        uint _cap\n      )\n      external\n      returns(address)\n      {\n        //The call for the private function is needed to bypass a deep stack issues\n        return _forgeOrg(\n            _orgName,\n            _tokenName,\n            _tokenSymbol,\n            _founders,\n            _foundersTokenAmount,\n            _foundersReputationAmount,\n            _uController,\n            _cap);\n    }\n\n     /**\n      * @dev Set initial schemes for the organization.\n      * @param _avatar organization avatar (returns from forgeOrg)\n      * @param _schemes the schemes to register for the organization\n      * @param _params the schemes's params\n      * @param _permissions the schemes permissions.\n      */\n    function setSchemes (\n        Avatar _avatar,\n        address[] _schemes,\n        bytes32[] _params,\n        bytes4[] _permissions\n    )\n        external\n    {\n        // this action can only be executed by the account that holds the lock\n        // for this controller\n        require(locks[address(_avatar)] == msg.sender);\n        // register initial schemes:\n        ControllerInterface controller = ControllerInterface(_avatar.owner());\n        for ( uint i = 0 ; i < _schemes.length ; i++ ) {\n            controller.registerScheme(_schemes[i], _params[i], _permissions[i],address(_avatar));\n        }\n        // Unregister self:\n        controller.unregisterScheme(this,address(_avatar));\n        // Remove lock:\n        delete locks[address(_avatar)];\n        emit InitialSchemesSet(address(_avatar));\n    }\n\n    /**\n     * @dev Create a new organization\n     * @param _orgName The name of the new organization\n     * @param _tokenName The name of the token associated with the organization\n     * @param _tokenSymbol The symbol of the token\n     * @param _founders An array with the addresses of the founders of the organization\n     * @param _foundersTokenAmount An array of amount of tokens that the founders\n     *  receive in the new organization\n     * @param _foundersReputationAmount An array of amount of reputation that the\n     *   founders receive in the new organization\n     * @param  _uController universal controller instance\n     *         if _uController address equal to zero the organization will use none universal controller.\n     * @param  _cap token cap - 0 for no cap.\n     * @return The address of the avatar of the controller\n     */\n    function _forgeOrg (\n        bytes32 _orgName,\n        string _tokenName,\n        string _tokenSymbol,\n        address[] _founders,\n        uint[] _foundersTokenAmount,\n        uint[] _foundersReputationAmount,\n        UController _uController,\n        uint _cap\n    ) private returns(address)\n    {\n        // Create Token, Reputation and Avatar:\n        require(_founders.length == _foundersTokenAmount.length);\n        require(_founders.length == _foundersReputationAmount.length);\n        require(_founders.length > 0);\n        DAOToken  nativeToken = new DAOToken(_tokenName, _tokenSymbol,_cap);\n        Reputation  nativeReputation = new Reputation();\n        Avatar  avatar = new Avatar(_orgName, nativeToken, nativeReputation);\n        ControllerInterface  controller;\n\n        // Mint token and reputation for founders:\n        for (uint i = 0 ; i < _founders.length ; i++ ) {\n            require(_founders[i] != address(0));\n            nativeToken.mint(_founders[i],_foundersTokenAmount[i]);\n            nativeReputation.mint(_founders[i],_foundersReputationAmount[i]);\n        }\n\n        // Create Controller:\n        if (UController(0) == _uController) {\n            controller = ControllerInterface(controllerCreator.create(avatar));\n            avatar.transferOwnership(controller);\n        } else {\n            controller = _uController;\n            avatar.transferOwnership(controller);\n            _uController.newOrganization(avatar);\n        }\n        // Transfer ownership:\n        nativeToken.transferOwnership(controller);\n        nativeReputation.transferOwnership(controller);\n\n        locks[address(avatar)] = msg.sender;\n\n        emit NewOrg (address(avatar));\n        return (address(avatar));\n    }\n}\n",
  "sourcePath": "/home/adam/cryptoDev/Ethereum/daostack/arc/contracts/universalSchemes/DaoCreator.sol",
  "compiler": {
    "name": "solc",
    "version": "0.4.24+commit.e67f0147.Emscripten.clang"
  },
  "schemaVersion": "2.0.1",
  "updatedAt": "2018-09-08T15:54:15.448Z"
}