{
  "contractName": "Peepeth",
  "abi": [
    {
      "anonymous": false,
      "inputs": [
        {
          "indexed": false,
          "internalType": "bytes16",
          "name": "_name",
          "type": "bytes16"
        },
        {
          "indexed": false,
          "internalType": "string",
          "name": "_ipfsHash",
          "type": "string"
        }
      ],
      "name": "AccountCreated",
      "type": "event"
    },
    {
      "anonymous": false,
      "inputs": [
        {
          "indexed": false,
          "internalType": "string",
          "name": "_ipfsHash",
          "type": "string"
        }
      ],
      "name": "PeepPosted",
      "type": "event"
    },
    {
      "constant": false,
      "inputs": [
        {
          "internalType": "bytes16",
          "name": "_name",
          "type": "bytes16"
        },
        {
          "internalType": "string",
          "name": "_ipfsHash",
          "type": "string"
        }
      ],
      "name": "createAccount",
      "outputs": [
        {
          "internalType": "bool",
          "name": "",
          "type": "bool"
        }
      ],
      "payable": false,
      "stateMutability": "nonpayable",
      "type": "function"
    },
    {
      "constant": false,
      "inputs": [
        {
          "internalType": "string",
          "name": "_ipfsHash",
          "type": "string"
        }
      ],
      "name": "post",
      "outputs": [
        {
          "internalType": "bool",
          "name": "",
          "type": "bool"
        }
      ],
      "payable": false,
      "stateMutability": "nonpayable",
      "type": "function"
    }
  ],
  "bytecode": "0x608060405234801561001057600080fd5b5061034d806100206000396000f3fe608060405234801561001057600080fd5b50600436106100365760003560e01c80638ee93cf31461003b5780638f929c4a146100f5575b600080fd5b6100e16004803603602081101561005157600080fd5b81019060208101813564010000000081111561006c57600080fd5b82018360208201111561007e57600080fd5b803590602001918460018302840111640100000000831117156100a057600080fd5b91908080601f0160208091040260200160405190810160405280939291908181526020018383808284376000920191909152509295506101b5945050505050565b604080519115158252519081900360200190f35b6100e16004803603604081101561010b57600080fd5b6fffffffffffffffffffffffffffffffff19823516919081019060408101602082013564010000000081111561014057600080fd5b82018360208201111561015257600080fd5b8035906020019184600183028401116401000000008311171561017457600080fd5b91908080601f016020809104026020016040519081016040528093929190818152602001838380828437600092019190915250929550610258945050505050565b60007fe401307ca43dbc3e213e999a7d5562d331efd64c1729ec72a807bfd414b2048f826040518080602001828103825283818151815260200191508051906020019080838360005b838110156102165781810151838201526020016101fe565b50505050905090810190601f1680156102435780820380516001836020036101000a031916815260200191505b509250505060405180910390a1506001919050565b60007fafe4689708fb620a449e130ea754a8f5a9beb6d17f6e672113acdd46833718f9838360405180836001600160801b0319166001600160801b031916815260200180602001828103825283818151815260200191508051906020019080838360005b838110156102d45781810151838201526020016102bc565b50505050905090810190601f1680156103015780820380516001836020036101000a031916815260200191505b50935050505060405180910390a15060019291505056fea265627a7a723158205e613b4b3b20503a49f59605c8756cca35ff6de32fa09e3305a2a2173d98587964736f6c634300050d0032",
  "source": "// Note: this is not the original Peepeth contract\n// This is just a mock to provide some conntract to use when deploying on Ganache\npragma solidity 0.5.13;\n\ncontract Peepeth {\n    event AccountCreated(bytes16 _name, string _ipfsHash);\n    event PeepPosted(string _ipfsHash);\n\n    function createAccount(bytes16 _name, string memory _ipfsHash) public returns (bool) {\n        emit AccountCreated(_name, _ipfsHash);\n        return true;\n    }\n\n    function post(string memory _ipfsHash) public returns (bool) {\n        emit PeepPosted(_ipfsHash);\n        return true;\n    }\n}\n",
  "sourcePath": "/Users/shivgupt/Backup/Documents/projects/Github/DAOstack/DAOstack-Hackers-Kit/peepeth-dao-example/contracts/Peepeth.sol",
  "compiler": {
    "name": "solc",
    "version": "0.5.13+commit.5b0b510c.Emscripten.clang"
  },
  "schemaVersion": "3.0.21",
  "updatedAt": "2020-01-20T12:28:04.494Z",
  "devdoc": {
    "methods": {}
  },
  "userdoc": {
    "methods": {}
  }
}