{
  "contractName": "Avatar",
  "abi": [
    {
      "constant": true,
      "inputs": [],
      "name": "orgName",
      "outputs": [
        {
          "name": "",
          "type": "string"
        }
      ],
      "payable": false,
      "stateMutability": "view",
      "type": "function"
    },
    {
      "constant": false,
      "inputs": [],
      "name": "renounceOwnership",
      "outputs": [],
      "payable": false,
      "stateMutability": "nonpayable",
      "type": "function"
    },
    {
      "constant": true,
      "inputs": [],
      "name": "nativeReputation",
      "outputs": [
        {
          "name": "",
          "type": "address"
        }
      ],
      "payable": false,
      "stateMutability": "view",
      "type": "function"
    },
    {
      "constant": true,
      "inputs": [],
      "name": "owner",
      "outputs": [
        {
          "name": "",
          "type": "address"
        }
      ],
      "payable": false,
      "stateMutability": "view",
      "type": "function"
    },
    {
      "constant": true,
      "inputs": [],
      "name": "nativeToken",
      "outputs": [
        {
          "name": "",
          "type": "address"
        }
      ],
      "payable": false,
      "stateMutability": "view",
      "type": "function"
    },
    {
      "constant": false,
      "inputs": [
        {
          "name": "_newOwner",
          "type": "address"
        }
      ],
      "name": "transferOwnership",
      "outputs": [],
      "payable": false,
      "stateMutability": "nonpayable",
      "type": "function"
    },
    {
      "inputs": [
        {
          "name": "_orgName",
          "type": "string"
        },
        {
          "name": "_nativeToken",
          "type": "address"
        },
        {
          "name": "_nativeReputation",
          "type": "address"
        }
      ],
      "payable": false,
      "stateMutability": "nonpayable",
      "type": "constructor"
    },
    {
      "payable": true,
      "stateMutability": "payable",
      "type": "fallback"
    },
    {
      "anonymous": false,
      "inputs": [
        {
          "indexed": true,
          "name": "_contract",
          "type": "address"
        },
        {
          "indexed": false,
          "name": "_params",
          "type": "bytes"
        }
      ],
      "name": "GenericCall",
      "type": "event"
    },
    {
      "anonymous": false,
      "inputs": [
        {
          "indexed": false,
          "name": "_amountInWei",
          "type": "uint256"
        },
        {
          "indexed": true,
          "name": "_to",
          "type": "address"
        }
      ],
      "name": "SendEther",
      "type": "event"
    },
    {
      "anonymous": false,
      "inputs": [
        {
          "indexed": true,
          "name": "_externalToken",
          "type": "address"
        },
        {
          "indexed": true,
          "name": "_to",
          "type": "address"
        },
        {
          "indexed": false,
          "name": "_value",
          "type": "uint256"
        }
      ],
      "name": "ExternalTokenTransfer",
      "type": "event"
    },
    {
      "anonymous": false,
      "inputs": [
        {
          "indexed": true,
          "name": "_externalToken",
          "type": "address"
        },
        {
          "indexed": false,
          "name": "_from",
          "type": "address"
        },
        {
          "indexed": false,
          "name": "_to",
          "type": "address"
        },
        {
          "indexed": false,
          "name": "_value",
          "type": "uint256"
        }
      ],
      "name": "ExternalTokenTransferFrom",
      "type": "event"
    },
    {
      "anonymous": false,
      "inputs": [
        {
          "indexed": true,
          "name": "_externalToken",
          "type": "address"
        },
        {
          "indexed": false,
          "name": "_spender",
          "type": "address"
        },
        {
          "indexed": false,
          "name": "_addedValue",
          "type": "uint256"
        }
      ],
      "name": "ExternalTokenIncreaseApproval",
      "type": "event"
    },
    {
      "anonymous": false,
      "inputs": [
        {
          "indexed": true,
          "name": "_externalToken",
          "type": "address"
        },
        {
          "indexed": false,
          "name": "_spender",
          "type": "address"
        },
        {
          "indexed": false,
          "name": "_subtractedValue",
          "type": "uint256"
        }
      ],
      "name": "ExternalTokenDecreaseApproval",
      "type": "event"
    },
    {
      "anonymous": false,
      "inputs": [
        {
          "indexed": true,
          "name": "_sender",
          "type": "address"
        },
        {
          "indexed": false,
          "name": "_value",
          "type": "uint256"
        }
      ],
      "name": "ReceiveEther",
      "type": "event"
    },
    {
      "anonymous": false,
      "inputs": [
        {
          "indexed": true,
          "name": "previousOwner",
          "type": "address"
        }
      ],
      "name": "OwnershipRenounced",
      "type": "event"
    },
    {
      "anonymous": false,
      "inputs": [
        {
          "indexed": true,
          "name": "previousOwner",
          "type": "address"
        },
        {
          "indexed": true,
          "name": "newOwner",
          "type": "address"
        }
      ],
      "name": "OwnershipTransferred",
      "type": "event"
    },
    {
      "constant": false,
      "inputs": [
        {
          "name": "_contract",
          "type": "address"
        },
        {
          "name": "_data",
          "type": "bytes"
        }
      ],
      "name": "genericCall",
      "outputs": [],
      "payable": false,
      "stateMutability": "nonpayable",
      "type": "function"
    },
    {
      "constant": false,
      "inputs": [
        {
          "name": "_amountInWei",
          "type": "uint256"
        },
        {
          "name": "_to",
          "type": "address"
        }
      ],
      "name": "sendEther",
      "outputs": [
        {
          "name": "",
          "type": "bool"
        }
      ],
      "payable": false,
      "stateMutability": "nonpayable",
      "type": "function"
    },
    {
      "constant": false,
      "inputs": [
        {
          "name": "_externalToken",
          "type": "address"
        },
        {
          "name": "_to",
          "type": "address"
        },
        {
          "name": "_value",
          "type": "uint256"
        }
      ],
      "name": "externalTokenTransfer",
      "outputs": [
        {
          "name": "",
          "type": "bool"
        }
      ],
      "payable": false,
      "stateMutability": "nonpayable",
      "type": "function"
    },
    {
      "constant": false,
      "inputs": [
        {
          "name": "_externalToken",
          "type": "address"
        },
        {
          "name": "_from",
          "type": "address"
        },
        {
          "name": "_to",
          "type": "address"
        },
        {
          "name": "_value",
          "type": "uint256"
        }
      ],
      "name": "externalTokenTransferFrom",
      "outputs": [
        {
          "name": "",
          "type": "bool"
        }
      ],
      "payable": false,
      "stateMutability": "nonpayable",
      "type": "function"
    },
    {
      "constant": false,
      "inputs": [
        {
          "name": "_externalToken",
          "type": "address"
        },
        {
          "name": "_spender",
          "type": "address"
        },
        {
          "name": "_addedValue",
          "type": "uint256"
        }
      ],
      "name": "externalTokenIncreaseApproval",
      "outputs": [
        {
          "name": "",
          "type": "bool"
        }
      ],
      "payable": false,
      "stateMutability": "nonpayable",
      "type": "function"
    },
    {
      "constant": false,
      "inputs": [
        {
          "name": "_externalToken",
          "type": "address"
        },
        {
          "name": "_spender",
          "type": "address"
        },
        {
          "name": "_subtractedValue",
          "type": "uint256"
        }
      ],
      "name": "externalTokenDecreaseApproval",
      "outputs": [
        {
          "name": "",
          "type": "bool"
        }
      ],
      "payable": false,
      "stateMutability": "nonpayable",
      "type": "function"
    }
  ],
  "bytecode": "0x60806040523480156200001157600080fd5b506040516200172338038062001723833981018060405281019080805182019291906020018051906020019092919080519060200190929190505050336000806101000a81548173ffffffffffffffffffffffffffffffffffffffff021916908373ffffffffffffffffffffffffffffffffffffffff1602179055508260019080519060200190620000a592919062000131565b5081600260006101000a81548173ffffffffffffffffffffffffffffffffffffffff021916908373ffffffffffffffffffffffffffffffffffffffff16021790555080600360006101000a81548173ffffffffffffffffffffffffffffffffffffffff021916908373ffffffffffffffffffffffffffffffffffffffff160217905550505050620001e0565b828054600181600116156101000203166002900490600052602060002090601f016020900481019282601f106200017457805160ff1916838001178555620001a5565b82800160010185558215620001a5579182015b82811115620001a457825182559160200191906001019062000187565b5b509050620001b49190620001b8565b5090565b620001dd91905b80821115620001d9576000816000905550600101620001bf565b5090565b90565b61153380620001f06000396000f3006080604052600436106100ba576000357c0100000000000000000000000000000000000000000000000000000000900463ffffffff1680631386dc2d1461010a5780634650c3081461019a578063715018a61461022357806389ae1c901461023a5780638cf1355c146102915780638da5cb5b14610316578063b756d5a21461036d578063cb16d4a214610412578063d29ab9c414610477578063dab0efff146104fc578063e1758bd814610581578063f2fde38b146105d8575b3373ffffffffffffffffffffffffffffffffffffffff167ff32a9f77675fd5917534c7746608fd3e309eac68fbdcbf5925e24ca97a704396346040518082815260200191505060405180910390a2005b34801561011657600080fd5b5061011f61061b565b6040518080602001828103825283818151815260200191508051906020019080838360005b8381101561015f578082015181840152602081019050610144565b50505050905090810190601f16801561018c5780820380516001836020036101000a031916815260200191505b509250505060405180910390f35b3480156101a657600080fd5b50610221600480360381019080803573ffffffffffffffffffffffffffffffffffffffff169060200190929190803590602001908201803590602001908080601f01602080910402602001604051908101604052809392919081815260200183838082843782019150505050505091929192905050506106b9565b005b34801561022f57600080fd5b5061023861086a565b005b34801561024657600080fd5b5061024f61096c565b604051808273ffffffffffffffffffffffffffffffffffffffff1673ffffffffffffffffffffffffffffffffffffffff16815260200191505060405180910390f35b34801561029d57600080fd5b506102fc600480360381019080803573ffffffffffffffffffffffffffffffffffffffff169060200190929190803573ffffffffffffffffffffffffffffffffffffffff16906020019092919080359060200190929190505050610992565b604051808215151515815260200191505060405180910390f35b34801561032257600080fd5b5061032b610bce565b604051808273ffffffffffffffffffffffffffffffffffffffff1673ffffffffffffffffffffffffffffffffffffffff16815260200191505060405180910390f35b34801561037957600080fd5b506103f8600480360381019080803573ffffffffffffffffffffffffffffffffffffffff169060200190929190803573ffffffffffffffffffffffffffffffffffffffff169060200190929190803573ffffffffffffffffffffffffffffffffffffffff16906020019092919080359060200190929190505050610bf3565b604051808215151515815260200191505060405180910390f35b34801561041e57600080fd5b5061045d60048036038101908080359060200190929190803573ffffffffffffffffffffffffffffffffffffffff169060200190929190505050610d3f565b604051808215151515815260200191505060405180910390f35b34801561048357600080fd5b506104e2600480360381019080803573ffffffffffffffffffffffffffffffffffffffff169060200190929190803573ffffffffffffffffffffffffffffffffffffffff16906020019092919080359060200190929190505050610e3b565b604051808215151515815260200191505060405180910390f35b34801561050857600080fd5b50610567600480360381019080803573ffffffffffffffffffffffffffffffffffffffff169060200190929190803573ffffffffffffffffffffffffffffffffffffffff16906020019092919080359060200190929190505050611077565b604051808215151515815260200191505060405180910390f35b34801561058d57600080fd5b5061059661116f565b604051808273ffffffffffffffffffffffffffffffffffffffff1673ffffffffffffffffffffffffffffffffffffffff16815260200191505060405180910390f35b3480156105e457600080fd5b50610619600480360381019080803573ffffffffffffffffffffffffffffffffffffffff169060200190929190505050611195565b005b60018054600181600116156101000203166002900480601f0160208091040260200160405190810160405280929190818152602001828054600181600116156101000203166002900480156106b15780601f10610686576101008083540402835291602001916106b1565b820191906000526020600020905b81548152906001019060200180831161069457829003601f168201915b505050505081565b60008060009054906101000a900473ffffffffffffffffffffffffffffffffffffffff1673ffffffffffffffffffffffffffffffffffffffff163373ffffffffffffffffffffffffffffffffffffffff1614151561071657600080fd5b8273ffffffffffffffffffffffffffffffffffffffff167f60cb6ac4ce80ddf7e096689e155fdb7a4e5354b2fc7bd67157bde32a1ce44cb6836040518080602001828103825283818151815260200191508051906020019080838360005b8381101561078f578082015181840152602081019050610774565b50505050905090810190601f1680156107bc5780820380516001836020036101000a031916815260200191505b509250505060405180910390a28273ffffffffffffffffffffffffffffffffffffffff168260405180828051906020019080838360005b8381101561080e5780820151818401526020810190506107f3565b50505050905090810190601f16801561083b5780820380516001836020036101000a031916815260200191505b509150506000604051808303816000865af191505090503d6000803e8060008114610865573d6000f35b3d6000fd5b6000809054906101000a900473ffffffffffffffffffffffffffffffffffffffff1673ffffffffffffffffffffffffffffffffffffffff163373ffffffffffffffffffffffffffffffffffffffff161415156108c557600080fd5b6000809054906101000a900473ffffffffffffffffffffffffffffffffffffffff1673ffffffffffffffffffffffffffffffffffffffff167ff8df31144d9c2f0f6b59d69b8b98abd5459d07f2742c4df920b25aae33c6482060405160405180910390a260008060006101000a81548173ffffffffffffffffffffffffffffffffffffffff021916908373ffffffffffffffffffffffffffffffffffffffff160217905550565b600360009054906101000a900473ffffffffffffffffffffffffffffffffffffffff1681565b60008060009054906101000a900473ffffffffffffffffffffffffffffffffffffffff1673ffffffffffffffffffffffffffffffffffffffff163373ffffffffffffffffffffffffffffffffffffffff161415156109ef57600080fd5b8373ffffffffffffffffffffffffffffffffffffffff1663d73dd62384846040518363ffffffff167c0100000000000000000000000000000000000000000000000000000000028152600401808373ffffffffffffffffffffffffffffffffffffffff1673ffffffffffffffffffffffffffffffffffffffff16815260200182815260200192505050602060405180830381600087803b158015610a9257600080fd5b505af1158015610aa6573d6000803e3d6000fd5b505050506040513d6020811015610abc57600080fd5b81019080805190602001909291905050501515610b41576040517f08c379a000000000000000000000000000000000000000000000000000000000815260040180806020018281038252601e8152602001807f696e63726561736520617070726f76616c206d7573742073756363656564000081525060200191505060405180910390fd5b8373ffffffffffffffffffffffffffffffffffffffff167fbe7df27d98bd0614ae920a695c2c2be09c164d8456083da020a98538692c465f8484604051808373ffffffffffffffffffffffffffffffffffffffff1673ffffffffffffffffffffffffffffffffffffffff1681526020018281526020019250505060405180910390a2600190509392505050565b6000809054906101000a900473ffffffffffffffffffffffffffffffffffffffff1681565b60008060009054906101000a900473ffffffffffffffffffffffffffffffffffffffff1673ffffffffffffffffffffffffffffffffffffffff163373ffffffffffffffffffffffffffffffffffffffff16141515610c5057600080fd5b610c7d8484848873ffffffffffffffffffffffffffffffffffffffff166111fc909392919063ffffffff16565b8473ffffffffffffffffffffffffffffffffffffffff167f179c15de44aa7ab84896301974328eb40b5b40fe01cfe0fee2924ea712c3e843858585604051808473ffffffffffffffffffffffffffffffffffffffff1673ffffffffffffffffffffffffffffffffffffffff1681526020018373ffffffffffffffffffffffffffffffffffffffff1673ffffffffffffffffffffffffffffffffffffffff168152602001828152602001935050505060405180910390a260019050949350505050565b60008060009054906101000a900473ffffffffffffffffffffffffffffffffffffffff1673ffffffffffffffffffffffffffffffffffffffff163373ffffffffffffffffffffffffffffffffffffffff16141515610d9c57600080fd5b8173ffffffffffffffffffffffffffffffffffffffff166108fc849081150290604051600060405180830381858888f19350505050158015610de2573d6000803e3d6000fd5b508173ffffffffffffffffffffffffffffffffffffffff167f22fca66666089f39bc900dd6605b489df4aae6260cc8ea8257594cfb8c84926c846040518082815260200191505060405180910390a26001905092915050565b60008060009054906101000a900473ffffffffffffffffffffffffffffffffffffffff1673ffffffffffffffffffffffffffffffffffffffff163373ffffffffffffffffffffffffffffffffffffffff16141515610e9857600080fd5b8373ffffffffffffffffffffffffffffffffffffffff16636618846384846040518363ffffffff167c0100000000000000000000000000000000000000000000000000000000028152600401808373ffffffffffffffffffffffffffffffffffffffff1673ffffffffffffffffffffffffffffffffffffffff16815260200182815260200192505050602060405180830381600087803b158015610f3b57600080fd5b505af1158015610f4f573d6000803e3d6000fd5b505050506040513d6020811015610f6557600080fd5b81019080805190602001909291905050501515610fea576040517f08c379a000000000000000000000000000000000000000000000000000000000815260040180806020018281038252601e8152602001807f646563726561736520617070726f76616c206d7573742073756363656564000081525060200191505060405180910390fd5b8373ffffffffffffffffffffffffffffffffffffffff167f495e426dd61227fe840d969dfba17620c573364af8c37748ea71f96f744ae3348484604051808373ffffffffffffffffffffffffffffffffffffffff1673ffffffffffffffffffffffffffffffffffffffff1681526020018281526020019250505060405180910390a2600190509392505050565b60008060009054906101000a900473ffffffffffffffffffffffffffffffffffffffff1673ffffffffffffffffffffffffffffffffffffffff163373ffffffffffffffffffffffffffffffffffffffff161415156110d457600080fd5b6110ff83838673ffffffffffffffffffffffffffffffffffffffff1661131f9092919063ffffffff16565b8273ffffffffffffffffffffffffffffffffffffffff168473ffffffffffffffffffffffffffffffffffffffff167f49dc2a60d2599a7b6932d78fb694c30dfc596fe4e0282b5d0fd184b52472c04d846040518082815260200191505060405180910390a3600190509392505050565b600260009054906101000a900473ffffffffffffffffffffffffffffffffffffffff1681565b6000809054906101000a900473ffffffffffffffffffffffffffffffffffffffff1673ffffffffffffffffffffffffffffffffffffffff163373ffffffffffffffffffffffffffffffffffffffff161415156111f057600080fd5b6111f98161140d565b50565b8373ffffffffffffffffffffffffffffffffffffffff166323b872dd8484846040518463ffffffff167c0100000000000000000000000000000000000000000000000000000000028152600401808473ffffffffffffffffffffffffffffffffffffffff1673ffffffffffffffffffffffffffffffffffffffff1681526020018373ffffffffffffffffffffffffffffffffffffffff1673ffffffffffffffffffffffffffffffffffffffff1681526020018281526020019350505050602060405180830381600087803b1580156112d357600080fd5b505af11580156112e7573d6000803e3d6000fd5b505050506040513d60208110156112fd57600080fd5b8101908080519060200190929190505050151561131957600080fd5b50505050565b8273ffffffffffffffffffffffffffffffffffffffff1663a9059cbb83836040518363ffffffff167c0100000000000000000000000000000000000000000000000000000000028152600401808373ffffffffffffffffffffffffffffffffffffffff1673ffffffffffffffffffffffffffffffffffffffff16815260200182815260200192505050602060405180830381600087803b1580156113c257600080fd5b505af11580156113d6573d6000803e3d6000fd5b505050506040513d60208110156113ec57600080fd5b8101908080519060200190929190505050151561140857600080fd5b505050565b600073ffffffffffffffffffffffffffffffffffffffff168173ffffffffffffffffffffffffffffffffffffffff161415151561144957600080fd5b8073ffffffffffffffffffffffffffffffffffffffff166000809054906101000a900473ffffffffffffffffffffffffffffffffffffffff1673ffffffffffffffffffffffffffffffffffffffff167f8be0079c531659141344cd1fd0a4f28419497f9722a3daafe3b4186f6b6457e060405160405180910390a3806000806101000a81548173ffffffffffffffffffffffffffffffffffffffff021916908373ffffffffffffffffffffffffffffffffffffffff160217905550505600a165627a7a72305820ee96e941d19e4ce128960ee226ae2b313adb1804d83b548e2a25f1f5efb297d80029",
  "source": "pragma solidity ^0.4.25;\n\nimport \"@daostack/infra/contracts/Reputation.sol\";\nimport \"./DAOToken.sol\";\nimport \"openzeppelin-solidity/contracts/ownership/Ownable.sol\";\nimport \"openzeppelin-solidity/contracts/token/ERC20/StandardToken.sol\";\nimport \"openzeppelin-solidity/contracts/token/ERC20/SafeERC20.sol\";\n\n\n/**\n * @title An Avatar holds tokens, reputation and ether for a controller\n */\ncontract Avatar is Ownable {\n    using SafeERC20 for StandardToken;\n\n    string public orgName;\n    DAOToken public nativeToken;\n    Reputation public nativeReputation;\n\n    event GenericCall(address indexed _contract, bytes _params);\n    event SendEther(uint _amountInWei, address indexed _to);\n    event ExternalTokenTransfer(address indexed _externalToken, address indexed _to, uint _value);\n    event ExternalTokenTransferFrom(address indexed _externalToken, address _from, address _to, uint _value);\n    event ExternalTokenIncreaseApproval(StandardToken indexed _externalToken, address _spender, uint _addedValue);\n    event ExternalTokenDecreaseApproval(StandardToken indexed _externalToken, address _spender, uint _subtractedValue);\n    event ReceiveEther(address indexed _sender, uint _value);\n\n    /**\n    * @dev the constructor takes organization name, native token and reputation system\n    and creates an avatar for a controller\n    */\n    constructor(string _orgName, DAOToken _nativeToken, Reputation _nativeReputation) public {\n        orgName = _orgName;\n        nativeToken = _nativeToken;\n        nativeReputation = _nativeReputation;\n    }\n\n    /**\n    * @dev enables an avatar to receive ethers\n    */\n    function() public payable {\n        emit ReceiveEther(msg.sender, msg.value);\n    }\n\n    /**\n    * @dev perform a generic call to an arbitrary contract\n    * @param _contract  the contract's address to call\n    * @param _data ABI-encoded contract call to call `_contract` address.\n    * @return the return bytes of the called contract's function.\n    */\n    function genericCall(address _contract,bytes _data) public onlyOwner {\n        emit GenericCall(_contract,_data);\n        // solium-disable-next-line security/no-low-level-calls\n        bool result = _contract.call(_data);\n        // solium-disable-next-line security/no-inline-assembly\n        assembly {\n        // Copy the returned data.\n        returndatacopy(0, 0, returndatasize)\n\n        switch result\n        // call returns 0 on error.\n        case 0 { revert(0, returndatasize) }\n        default { return(0, returndatasize) }\n        }\n    }\n\n    /**\n    * @dev send ethers from the avatar's wallet\n    * @param _amountInWei amount to send in Wei units\n    * @param _to send the ethers to this address\n    * @return bool which represents success\n    */\n    function sendEther(uint _amountInWei, address _to) public onlyOwner returns(bool) {\n        _to.transfer(_amountInWei);\n        emit SendEther(_amountInWei, _to);\n        return true;\n    }\n\n    /**\n    * @dev external token transfer\n    * @param _externalToken the token contract\n    * @param _to the destination address\n    * @param _value the amount of tokens to transfer\n    * @return bool which represents success\n    */\n    function externalTokenTransfer(StandardToken _externalToken, address _to, uint _value)\n    public onlyOwner returns(bool)\n    {\n        _externalToken.safeTransfer(_to, _value);\n        emit ExternalTokenTransfer(_externalToken, _to, _value);\n        return true;\n    }\n\n    /**\n    * @dev external token transfer from a specific account\n    * @param _externalToken the token contract\n    * @param _from the account to spend token from\n    * @param _to the destination address\n    * @param _value the amount of tokens to transfer\n    * @return bool which represents success\n    */\n    function externalTokenTransferFrom(\n        StandardToken _externalToken,\n        address _from,\n        address _to,\n        uint _value\n    )\n    public onlyOwner returns(bool)\n    {\n        _externalToken.safeTransferFrom(_from, _to, _value);\n        emit ExternalTokenTransferFrom(_externalToken, _from, _to, _value);\n        return true;\n    }\n\n    /**\n    * @dev increase approval for the spender address to spend a specified amount of tokens\n    *      on behalf of msg.sender.\n    * @param _externalToken the address of the Token Contract\n    * @param _spender address\n    * @param _addedValue the amount of ether (in Wei) which the approval is referring to.\n    * @return bool which represents a success\n    */\n    function externalTokenIncreaseApproval(StandardToken _externalToken, address _spender, uint _addedValue)\n    public onlyOwner returns(bool)\n    {\n        require(_externalToken.increaseApproval(_spender, _addedValue),\"increase approval must succeed\");\n        emit ExternalTokenIncreaseApproval(_externalToken, _spender, _addedValue);\n        return true;\n    }\n\n    /**\n    * @dev decrease approval for the spender address to spend a specified amount of tokens\n    *      on behalf of msg.sender.\n    * @param _externalToken the address of the Token Contract\n    * @param _spender address\n    * @param _subtractedValue the amount of ether (in Wei) which the approval is referring to.\n    * @return bool which represents a success\n    */\n    function externalTokenDecreaseApproval(StandardToken _externalToken, address _spender, uint _subtractedValue )\n    public onlyOwner returns(bool)\n    {\n        require(_externalToken.decreaseApproval(_spender, _subtractedValue),\"decrease approval must succeed\");\n        emit ExternalTokenDecreaseApproval(_externalToken,_spender, _subtractedValue);\n        return true;\n    }\n\n}\n",
  "sourcePath": "@daostack/arc/contracts/controller/Avatar.sol",
  "compiler": {
    "name": "solc",
    "version": "0.4.25+commit.59dbf8f1.Emscripten.clang"
  },
  "schemaVersion": "3.0.0-beta.1",
  "updatedAt": "2019-05-05T09:54:01.341Z"
}