{
  "contractName": "Peepeth",
  "abi": [
    {
      "anonymous": false,
      "inputs": [
        {
          "indexed": false,
          "name": "_name",
          "type": "bytes16"
        },
        {
          "indexed": false,
          "name": "_ipfsHash",
          "type": "string"
        }
      ],
      "name": "AccountCreated",
      "type": "event",
      "signature": "0xafe4689708fb620a449e130ea754a8f5a9beb6d17f6e672113acdd46833718f9"
    },
    {
      "anonymous": false,
      "inputs": [
        {
          "indexed": false,
          "name": "_ipfsHash",
          "type": "string"
        }
      ],
      "name": "PeepPosted",
      "type": "event",
      "signature": "0xe401307ca43dbc3e213e999a7d5562d331efd64c1729ec72a807bfd414b2048f"
    },
    {
      "constant": false,
      "inputs": [
        {
          "name": "_name",
          "type": "bytes16"
        },
        {
          "name": "_ipfsHash",
          "type": "string"
        }
      ],
      "name": "createAccount",
      "outputs": [
        {
          "name": "",
          "type": "bool"
        }
      ],
      "payable": false,
      "stateMutability": "nonpayable",
      "type": "function",
      "signature": "0x8f929c4a"
    },
    {
      "constant": false,
      "inputs": [
        {
          "name": "_ipfsHash",
          "type": "string"
        }
      ],
      "name": "post",
      "outputs": [
        {
          "name": "",
          "type": "bool"
        }
      ],
      "payable": false,
      "stateMutability": "nonpayable",
      "type": "function",
      "signature": "0x8ee93cf3"
    }
  ],
  "bytecode": "0x608060405234801561001057600080fd5b50610319806100206000396000f30060806040526004361061004c576000357c0100000000000000000000000000000000000000000000000000000000900463ffffffff1680638ee93cf3146100515780638f929c4a146100d2575b600080fd5b34801561005d57600080fd5b506100b8600480360381019080803590602001908201803590602001908080601f0160208091040260200160405190810160405280939291908181526020018383808284378201915050505050509192919290505050610170565b604051808215151515815260200191505060405180910390f35b3480156100de57600080fd5b5061015660048036038101908080356fffffffffffffffffffffffffffffffff19169060200190929190803590602001908201803590602001908080601f0160208091040260200160405190810160405280939291908181526020018383808284378201915050505050509192919290505050610217565b604051808215151515815260200191505060405180910390f35b60007fe401307ca43dbc3e213e999a7d5562d331efd64c1729ec72a807bfd414b2048f826040518080602001828103825283818151815260200191508051906020019080838360005b838110156101d45780820151818401526020810190506101b9565b50505050905090810190601f1680156102015780820380516001836020036101000a031916815260200191505b509250505060405180910390a160019050919050565b60007fafe4689708fb620a449e130ea754a8f5a9beb6d17f6e672113acdd46833718f9838360405180836fffffffffffffffffffffffffffffffff19166fffffffffffffffffffffffffffffffff1916815260200180602001828103825283818151815260200191508051906020019080838360005b838110156102a857808201518184015260208101905061028d565b50505050905090810190601f1680156102d55780820380516001836020036101000a031916815260200191505b50935050505060405180910390a160019050929150505600a165627a7a72305820ea254b56ccce3f404b9f6312f920fae061c1e1606f57bdf764d4c433b0f636210029",
  "source": "// Note: this is not the original Peepeth contract\n// This is just a mock to provide some conntract to use when deploying on Ganache\npragma solidity ^0.4.24;\n\n\ncontract Peepeth {\n    event AccountCreated(bytes16 _name, string _ipfsHash);\n    event PeepPosted(string _ipfsHash);\n\n    function createAccount(bytes16 _name, string _ipfsHash) public returns (bool) {\n        emit AccountCreated(_name, _ipfsHash);\n        return true;\n    }\n\n    function post(string _ipfsHash) public returns (bool) {\n        emit PeepPosted(_ipfsHash);\n        return true;\n    }\n}",
  "sourcePath": "/Users/benkaufman/Documents/Work/DAOstack/DAOstack-Hackers-Kit/peepeth-dao-example/contracts/Peepeth.sol",
  "compiler": {
    "name": "solc",
    "version": "0.4.25+commit.59dbf8f1.Emscripten.clang"
  },
  "schemaVersion": "3.0.0-beta.1",
  "updatedAt": "2019-05-05T09:54:05.651Z"
}