{
  "contractName": "PeepScheme",
  "abi": [
    {
      "constant": true,
      "inputs": [
        {
          "name": "",
          "type": "bytes32"
        }
      ],
      "name": "parameters",
      "outputs": [
        {
          "name": "voteApproveParams",
          "type": "bytes32"
        },
        {
          "name": "intVote",
          "type": "address"
        }
      ],
      "payable": false,
      "stateMutability": "view",
      "type": "function",
      "signature": "0x02506804"
    },
    {
      "constant": true,
      "inputs": [
        {
          "name": "",
          "type": "address"
        },
        {
          "name": "",
          "type": "bytes32"
        }
      ],
      "name": "organizationsProposals",
      "outputs": [
        {
          "name": "proposer",
          "type": "address"
        },
        {
          "name": "peepHash",
          "type": "string"
        },
        {
          "name": "reputationChange",
          "type": "uint256"
        }
      ],
      "payable": false,
      "stateMutability": "view",
      "type": "function",
      "signature": "0x06e3a978"
    },
    {
      "constant": true,
      "inputs": [
        {
          "name": "",
          "type": "address"
        }
      ],
      "name": "peepethAccounts",
      "outputs": [
        {
          "name": "",
          "type": "bytes16"
        }
      ],
      "payable": false,
      "stateMutability": "view",
      "type": "function",
      "signature": "0x17867852"
    },
    {
      "constant": false,
      "inputs": [
        {
          "name": "_hashedParameters",
          "type": "bytes32"
        }
      ],
      "name": "updateParameters",
      "outputs": [],
      "payable": false,
      "stateMutability": "nonpayable",
      "type": "function",
      "signature": "0x2ac2af53"
    },
    {
      "constant": true,
      "inputs": [],
      "name": "PEEPETH_KOVAN",
      "outputs": [
        {
          "name": "",
          "type": "address"
        }
      ],
      "payable": false,
      "stateMutability": "view",
      "type": "function",
      "signature": "0x4d709f16"
    },
    {
      "constant": true,
      "inputs": [
        {
          "name": "_stakingToken",
          "type": "address"
        },
        {
          "name": "_proposalId",
          "type": "bytes32"
        }
      ],
      "name": "balanceOfStakingToken",
      "outputs": [
        {
          "name": "",
          "type": "uint256"
        }
      ],
      "payable": false,
      "stateMutability": "view",
      "type": "function",
      "signature": "0x6b8eb403"
    },
    {
      "constant": false,
      "inputs": [],
      "name": "renounceOwnership",
      "outputs": [],
      "payable": false,
      "stateMutability": "nonpayable",
      "type": "function",
      "signature": "0x715018a6"
    },
    {
      "constant": true,
      "inputs": [],
      "name": "owner",
      "outputs": [
        {
          "name": "",
          "type": "address"
        }
      ],
      "payable": false,
      "stateMutability": "view",
      "type": "function",
      "signature": "0x8da5cb5b"
    },
    {
      "constant": true,
      "inputs": [
        {
          "name": "_owner",
          "type": "address"
        },
        {
          "name": "_proposalId",
          "type": "bytes32"
        }
      ],
      "name": "reputationOf",
      "outputs": [
        {
          "name": "",
          "type": "uint256"
        }
      ],
      "payable": false,
      "stateMutability": "view",
      "type": "function",
      "signature": "0x9588378e"
    },
    {
      "constant": true,
      "inputs": [
        {
          "name": "_proposalId",
          "type": "bytes32"
        }
      ],
      "name": "getTotalReputationSupply",
      "outputs": [
        {
          "name": "",
          "type": "uint256"
        }
      ],
      "payable": false,
      "stateMutability": "view",
      "type": "function",
      "signature": "0xb551c373"
    },
    {
      "constant": true,
      "inputs": [],
      "name": "PEEPETH",
      "outputs": [
        {
          "name": "",
          "type": "address"
        }
      ],
      "payable": false,
      "stateMutability": "view",
      "type": "function",
      "signature": "0xba5a3718"
    },
    {
      "constant": false,
      "inputs": [
        {
          "name": "_stakingToken",
          "type": "address"
        },
        {
          "name": "_beneficiary",
          "type": "address"
        },
        {
          "name": "_amount",
          "type": "uint256"
        },
        {
          "name": "_proposalId",
          "type": "bytes32"
        }
      ],
      "name": "stakingTokenTransfer",
      "outputs": [
        {
          "name": "",
          "type": "bool"
        }
      ],
      "payable": false,
      "stateMutability": "nonpayable",
      "type": "function",
      "signature": "0xbea75f28"
    },
    {
      "constant": false,
      "inputs": [
        {
          "name": "_amount",
          "type": "uint256"
        },
        {
          "name": "_beneficiary",
          "type": "address"
        },
        {
          "name": "_proposalId",
          "type": "bytes32"
        }
      ],
      "name": "mintReputation",
      "outputs": [
        {
          "name": "",
          "type": "bool"
        }
      ],
      "payable": false,
      "stateMutability": "nonpayable",
      "type": "function",
      "signature": "0xd29b5d2f"
    },
    {
      "constant": true,
      "inputs": [],
      "name": "PEEPETH_RINKEBY",
      "outputs": [
        {
          "name": "",
          "type": "address"
        }
      ],
      "payable": false,
      "stateMutability": "view",
      "type": "function",
      "signature": "0xd8434a56"
    },
    {
      "constant": true,
      "inputs": [],
      "name": "peepethContract",
      "outputs": [
        {
          "name": "",
          "type": "address"
        }
      ],
      "payable": false,
      "stateMutability": "view",
      "type": "function",
      "signature": "0xd8561eae"
    },
    {
      "constant": false,
      "inputs": [
        {
          "name": "_newOwner",
          "type": "address"
        }
      ],
      "name": "transferOwnership",
      "outputs": [],
      "payable": false,
      "stateMutability": "nonpayable",
      "type": "function",
      "signature": "0xf2fde38b"
    },
    {
      "constant": false,
      "inputs": [
        {
          "name": "_amount",
          "type": "uint256"
        },
        {
          "name": "_beneficiary",
          "type": "address"
        },
        {
          "name": "_proposalId",
          "type": "bytes32"
        }
      ],
      "name": "burnReputation",
      "outputs": [
        {
          "name": "",
          "type": "bool"
        }
      ],
      "payable": false,
      "stateMutability": "nonpayable",
      "type": "function",
      "signature": "0xf81f8bf6"
    },
    {
      "constant": true,
      "inputs": [],
      "name": "hashedParameters",
      "outputs": [
        {
          "name": "",
          "type": "bytes32"
        }
      ],
      "payable": false,
      "stateMutability": "view",
      "type": "function",
      "signature": "0xf98e87ba"
    },
    {
      "inputs": [
        {
          "name": "_peepethContract",
          "type": "address"
        }
      ],
      "payable": false,
      "stateMutability": "nonpayable",
      "type": "constructor",
      "signature": "constructor"
    },
    {
      "anonymous": false,
      "inputs": [
        {
          "indexed": true,
          "name": "_avatar",
          "type": "address"
        },
        {
          "indexed": false,
          "name": "_name",
          "type": "bytes16"
        },
        {
          "indexed": false,
          "name": "_ipfsHash",
          "type": "string"
        }
      ],
      "name": "PeepethAccountRegistered",
      "type": "event",
      "signature": "0xac40a5fa4563e4e0bcd52be8a5e3a2ddff8773ddbed96cf7e84d389280885afd"
    },
    {
      "anonymous": false,
      "inputs": [
        {
          "indexed": true,
          "name": "_avatar",
          "type": "address"
        },
        {
          "indexed": true,
          "name": "_proposalId",
          "type": "bytes32"
        },
        {
          "indexed": true,
          "name": "_intVoteInterface",
          "type": "address"
        },
        {
          "indexed": false,
          "name": "_proposer",
          "type": "address"
        },
        {
          "indexed": false,
          "name": "_peepHash",
          "type": "string"
        },
        {
          "indexed": false,
          "name": "_reputationChange",
          "type": "uint256"
        }
      ],
      "name": "NewPeepProposal",
      "type": "event",
      "signature": "0x7046fb6d609bf79af5ea608e2d72a09e4655891361b6f310d0401dc506e85cfd"
    },
    {
      "anonymous": false,
      "inputs": [
        {
          "indexed": true,
          "name": "_avatar",
          "type": "address"
        },
        {
          "indexed": true,
          "name": "_proposalId",
          "type": "bytes32"
        },
        {
          "indexed": false,
          "name": "_param",
          "type": "int256"
        }
      ],
      "name": "ProposalExecuted",
      "type": "event",
      "signature": "0xd2632e80f5364f02aded1c64e8a04637b7c8bb9c2db2bedf4b6ac47c013acbc0"
    },
    {
      "anonymous": false,
      "inputs": [
        {
          "indexed": true,
          "name": "previousOwner",
          "type": "address"
        }
      ],
      "name": "OwnershipRenounced",
      "type": "event",
      "signature": "0xf8df31144d9c2f0f6b59d69b8b98abd5459d07f2742c4df920b25aae33c64820"
    },
    {
      "anonymous": false,
      "inputs": [
        {
          "indexed": true,
          "name": "previousOwner",
          "type": "address"
        },
        {
          "indexed": true,
          "name": "newOwner",
          "type": "address"
        }
      ],
      "name": "OwnershipTransferred",
      "type": "event",
      "signature": "0x8be0079c531659141344cd1fd0a4f28419497f9722a3daafe3b4186f6b6457e0"
    },
    {
      "constant": false,
      "inputs": [
        {
          "name": "_voteApproveParams",
          "type": "bytes32"
        },
        {
          "name": "_intVote",
          "type": "address"
        }
      ],
      "name": "setParameters",
      "outputs": [
        {
          "name": "",
          "type": "bytes32"
        }
      ],
      "payable": false,
      "stateMutability": "nonpayable",
      "type": "function",
      "signature": "0x68e14dac"
    },
    {
      "constant": true,
      "inputs": [
        {
          "name": "_voteApproveParams",
          "type": "bytes32"
        },
        {
          "name": "_intVote",
          "type": "address"
        }
      ],
      "name": "getParametersHash",
      "outputs": [
        {
          "name": "",
          "type": "bytes32"
        }
      ],
      "payable": false,
      "stateMutability": "pure",
      "type": "function",
      "signature": "0x2453732a"
    },
    {
      "constant": false,
      "inputs": [
        {
          "name": "_avatar",
          "type": "address"
        },
        {
          "name": "_name",
          "type": "bytes16"
        },
        {
          "name": "_ipfsHash",
          "type": "string"
        }
      ],
      "name": "registerPeepethAccount",
      "outputs": [],
      "payable": false,
      "stateMutability": "nonpayable",
      "type": "function",
      "signature": "0xfd4c375d"
    },
    {
      "constant": false,
      "inputs": [
        {
          "name": "_avatar",
          "type": "address"
        },
        {
          "name": "_peepHash",
          "type": "string"
        },
        {
          "name": "_reputationChange",
          "type": "uint256"
        }
      ],
      "name": "proposePeep",
      "outputs": [
        {
          "name": "",
          "type": "bytes32"
        }
      ],
      "payable": false,
      "stateMutability": "nonpayable",
      "type": "function",
      "signature": "0x6f889e30"
    },
    {
      "constant": false,
      "inputs": [
        {
          "name": "_proposalId",
          "type": "bytes32"
        },
        {
          "name": "_param",
          "type": "int256"
        }
      ],
      "name": "executeProposal",
      "outputs": [
        {
          "name": "",
          "type": "bool"
        }
      ],
      "payable": false,
      "stateMutability": "nonpayable",
      "type": "function",
      "signature": "0x9d4c162d"
    }
  ],
  "bytecode": "0x608060405234801561001057600080fd5b506040516020806138dc83398101806040528101908080519060200190929190505050336000806101000a81548173ffffffffffffffffffffffffffffffffffffffff021916908373ffffffffffffffffffffffffffffffffffffffff16021790555080600360006101000a81548173ffffffffffffffffffffffffffffffffffffffff021916908373ffffffffffffffffffffffffffffffffffffffff16021790555050613818806100c46000396000f300608060405260043610610133576000357c0100000000000000000000000000000000000000000000000000000000900463ffffffff168063025068041461013857806306e3a978146101b857806317867852146102bc5780632453732a146103395780632ac2af53146103a65780634d709f16146103d757806368e14dac1461042e5780636b8eb4031461049b5780636f889e3014610500578063715018a6146105af5780638da5cb5b146105c65780639588378e1461061d5780639d4c162d14610682578063b551c373146106d5578063ba5a37181461071a578063bea75f2814610771578063d29b5d2f14610804578063d8434a5614610877578063d8561eae146108ce578063f2fde38b14610925578063f81f8bf614610968578063f98e87ba146109db578063fd4c375d14610a0e575b600080fd5b34801561014457600080fd5b506101676004803603810190808035600019169060200190929190505050610ab4565b6040518083600019166000191681526020018273ffffffffffffffffffffffffffffffffffffffff1673ffffffffffffffffffffffffffffffffffffffff1681526020019250505060405180910390f35b3480156101c457600080fd5b50610207600480360381019080803573ffffffffffffffffffffffffffffffffffffffff1690602001909291908035600019169060200190929190505050610af8565b604051808473ffffffffffffffffffffffffffffffffffffffff1673ffffffffffffffffffffffffffffffffffffffff16815260200180602001838152602001828103825284818151815260200191508051906020019080838360005b8381101561027f578082015181840152602081019050610264565b50505050905090810190601f1680156102ac5780820380516001836020036101000a031916815260200191505b5094505050505060405180910390f35b3480156102c857600080fd5b506102fd600480360381019080803573ffffffffffffffffffffffffffffffffffffffff169060200190929190505050610be7565b60405180826fffffffffffffffffffffffffffffffff19166fffffffffffffffffffffffffffffffff1916815260200191505060405180910390f35b34801561034557600080fd5b506103886004803603810190808035600019169060200190929190803573ffffffffffffffffffffffffffffffffffffffff169060200190929190505050610c17565b60405180826000191660001916815260200191505060405180910390f35b3480156103b257600080fd5b506103d56004803603810190808035600019169060200190929190505050610cee565b005b3480156103e357600080fd5b506103ec610d57565b604051808273ffffffffffffffffffffffffffffffffffffffff1673ffffffffffffffffffffffffffffffffffffffff16815260200191505060405180910390f35b34801561043a57600080fd5b5061047d6004803603810190808035600019169060200190929190803573ffffffffffffffffffffffffffffffffffffffff169060200190929190505050610d6f565b60405180826000191660001916815260200191505060405180910390f35b3480156104a757600080fd5b506104ea600480360381019080803573ffffffffffffffffffffffffffffffffffffffff1690602001909291908035600019169060200190929190505050610e0c565b6040518082815260200191505060405180910390f35b34801561050c57600080fd5b50610591600480360381019080803573ffffffffffffffffffffffffffffffffffffffff169060200190929190803590602001908201803590602001908080601f016020809104026020016040519081016040528093929190818152602001838380828437820191505050505050919291929080359060200190929190505050610f2f565b60405180826000191660001916815260200191505060405180910390f35b3480156105bb57600080fd5b506105c4611322565b005b3480156105d257600080fd5b506105db611424565b604051808273ffffffffffffffffffffffffffffffffffffffff1673ffffffffffffffffffffffffffffffffffffffff16815260200191505060405180910390f35b34801561062957600080fd5b5061066c600480360381019080803573ffffffffffffffffffffffffffffffffffffffff1690602001909291908035600019169060200190929190505050611449565b6040518082815260200191505060405180910390f35b34801561068e57600080fd5b506106bb600480360381019080803560001916906020019092919080359060200190929190505050611702565b604051808215151515815260200191505060405180910390f35b3480156106e157600080fd5b506107046004803603810190808035600019169060200190929190505050612092565b6040518082815260200191505060405180910390f35b34801561072657600080fd5b5061072f612316565b604051808273ffffffffffffffffffffffffffffffffffffffff1673ffffffffffffffffffffffffffffffffffffffff16815260200191505060405180910390f35b34801561077d57600080fd5b506107ea600480360381019080803573ffffffffffffffffffffffffffffffffffffffff169060200190929190803573ffffffffffffffffffffffffffffffffffffffff16906020019092919080359060200190929190803560001916906020019092919050505061232e565b604051808215151515815260200191505060405180910390f35b34801561081057600080fd5b5061085d60048036038101908080359060200190929190803573ffffffffffffffffffffffffffffffffffffffff1690602001909291908035600019169060200190929190505050612683565b604051808215151515815260200191505060405180910390f35b34801561088357600080fd5b5061088c6129a3565b604051808273ffffffffffffffffffffffffffffffffffffffff1673ffffffffffffffffffffffffffffffffffffffff16815260200191505060405180910390f35b3480156108da57600080fd5b506108e36129bb565b604051808273ffffffffffffffffffffffffffffffffffffffff1673ffffffffffffffffffffffffffffffffffffffff16815260200191505060405180910390f35b34801561093157600080fd5b50610966600480360381019080803573ffffffffffffffffffffffffffffffffffffffff1690602001909291905050506129e1565b005b34801561097457600080fd5b506109c160048036038101908080359060200190929190803573ffffffffffffffffffffffffffffffffffffffff1690602001909291908035600019169060200190929190505050612a48565b604051808215151515815260200191505060405180910390f35b3480156109e757600080fd5b506109f0612d68565b60405180826000191660001916815260200191505060405180910390f35b348015610a1a57600080fd5b50610ab2600480360381019080803573ffffffffffffffffffffffffffffffffffffffff16906020019092919080356fffffffffffffffffffffffffffffffff19169060200190929190803590602001908201803590602001908080601f0160208091040260200160405190810160405280939291908181526020018383808284378201915050505050509192919290505050612d6e565b005b60056020528060005260406000206000915090508060000154908060010160009054906101000a900473ffffffffffffffffffffffffffffffffffffffff16905082565b6004602052816000526040600020602052806000526040600020600091509150508060000160009054906101000a900473ffffffffffffffffffffffffffffffffffffffff1690806001018054600181600116156101000203166002900480601f016020809104026020016040519081016040528092919081815260200182805460018160011615610100020316600290048015610bd75780601f10610bac57610100808354040283529160200191610bd7565b820191906000526020600020905b815481529060010190602001808311610bba57829003601f168201915b5050505050908060020154905083565b60066020528060005260406000206000915054906101000a90047001000000000000000000000000000000000281565b600082826040516020018083600019166000191681526020018273ffffffffffffffffffffffffffffffffffffffff1673ffffffffffffffffffffffffffffffffffffffff166c01000000000000000000000000028152601401925050506040516020818303038152906040526040518082805190602001908083835b602083101515610cb95780518252602082019150602081019050602083039250610c94565b6001836020036101000a0380198251168184511680821785525050505050509050019150506040518091039020905092915050565b6000809054906101000a900473ffffffffffffffffffffffffffffffffffffffff1673ffffffffffffffffffffffffffffffffffffffff163373ffffffffffffffffffffffffffffffffffffffff16141515610d4957600080fd5b806001816000191690555050565b73b704a46b605277c718a68d30cb731c8818217ec781565b600080610d7c8484610c17565b90508360056000836000191660001916815260200190815260200160002060000181600019169055508260056000836000191660001916815260200190815260200160002060010160006101000a81548173ffffffffffffffffffffffffffffffffffffffff021916908373ffffffffffffffffffffffffffffffffffffffff1602179055508091505092915050565b60008060026000846000191660001916815260200190815260200160002060010160009054906101000a900473ffffffffffffffffffffffffffffffffffffffff1690508373ffffffffffffffffffffffffffffffffffffffff166370a08231826040518263ffffffff167c0100000000000000000000000000000000000000000000000000000000028152600401808273ffffffffffffffffffffffffffffffffffffffff1673ffffffffffffffffffffffffffffffffffffffff168152602001915050602060405180830381600087803b158015610eeb57600080fd5b505af1158015610eff573d6000803e3d6000fd5b505050506040513d6020811015610f1557600080fd5b810190808051906020019092919050505091505092915050565b6000610f39613646565b6000610f43613679565b60056000610f508961339b565b600019166000191681526020019081526020016000206040805190810160405290816000820154600019166000191681526020016001820160009054906101000a900473ffffffffffffffffffffffffffffffffffffffff1673ffffffffffffffffffffffffffffffffffffffff1673ffffffffffffffffffffffffffffffffffffffff16815250509250826020015173ffffffffffffffffffffffffffffffffffffffff166388737b5e60038560000151338b6040518563ffffffff167c01000000000000000000000000000000000000000000000000000000000281526004018085815260200184600019166000191681526020018373ffffffffffffffffffffffffffffffffffffffff1673ffffffffffffffffffffffffffffffffffffffff1681526020018273ffffffffffffffffffffffffffffffffffffffff1673ffffffffffffffffffffffffffffffffffffffff168152602001945050505050602060405180830381600087803b1580156110cb57600080fd5b505af11580156110df573d6000803e3d6000fd5b505050506040513d60208110156110f557600080fd5b810190808051906020019092919050505091506060604051908101604052803373ffffffffffffffffffffffffffffffffffffffff16815260200187815260200186815250905080600460008973ffffffffffffffffffffffffffffffffffffffff1673ffffffffffffffffffffffffffffffffffffffff1681526020019081526020016000206000846000191660001916815260200190815260200160002060008201518160000160006101000a81548173ffffffffffffffffffffffffffffffffffffffff021916908373ffffffffffffffffffffffffffffffffffffffff16021790555060208201518160010190805190602001906111f89291906136b1565b5060408201518160020155905050826020015173ffffffffffffffffffffffffffffffffffffffff1682600019168873ffffffffffffffffffffffffffffffffffffffff167f7046fb6d609bf79af5ea608e2d72a09e4655891361b6f310d0401dc506e85cfd338a8a604051808473ffffffffffffffffffffffffffffffffffffffff1673ffffffffffffffffffffffffffffffffffffffff16815260200180602001838152602001828103825284818151815260200191508051906020019080838360005b838110156112d95780820151818401526020810190506112be565b50505050905090810190601f1680156113065780820380516001836020036101000a031916815260200191505b5094505050505060405180910390a48193505050509392505050565b6000809054906101000a900473ffffffffffffffffffffffffffffffffffffffff1673ffffffffffffffffffffffffffffffffffffffff163373ffffffffffffffffffffffffffffffffffffffff1614151561137d57600080fd5b6000809054906101000a900473ffffffffffffffffffffffffffffffffffffffff1673ffffffffffffffffffffffffffffffffffffffff167ff8df31144d9c2f0f6b59d69b8b98abd5459d07f2742c4df920b25aae33c6482060405160405180910390a260008060006101000a81548173ffffffffffffffffffffffffffffffffffffffff021916908373ffffffffffffffffffffffffffffffffffffffff160217905550565b6000809054906101000a900473ffffffffffffffffffffffffffffffffffffffff1681565b6000611453613731565b60026000846000191660001916815260200190815260200160002060606040519081016040529081600082015481526020016001820160009054906101000a900473ffffffffffffffffffffffffffffffffffffffff1673ffffffffffffffffffffffffffffffffffffffff1673ffffffffffffffffffffffffffffffffffffffff1681526020016002820160009054906101000a900473ffffffffffffffffffffffffffffffffffffffff1673ffffffffffffffffffffffffffffffffffffffff1673ffffffffffffffffffffffffffffffffffffffff16815250509050600073ffffffffffffffffffffffffffffffffffffffff16816020015173ffffffffffffffffffffffffffffffffffffffff16141561157457600091506116fb565b806020015173ffffffffffffffffffffffffffffffffffffffff166389ae1c906040518163ffffffff167c0100000000000000000000000000000000000000000000000000000000028152600401602060405180830381600087803b1580156115dc57600080fd5b505af11580156115f0573d6000803e3d6000fd5b505050506040513d602081101561160657600080fd5b810190808051906020019092919050505073ffffffffffffffffffffffffffffffffffffffff16634ee2cd7e8583600001516040518363ffffffff167c0100000000000000000000000000000000000000000000000000000000028152600401808373ffffffffffffffffffffffffffffffffffffffff1673ffffffffffffffffffffffffffffffffffffffff16815260200182815260200192505050602060405180830381600087803b1580156116bd57600080fd5b505af11580156116d1573d6000803e3d6000fd5b505050506040513d60208110156116e757600080fd5b810190808051906020019092919050505091505b5092915050565b60008061170d613679565b600060026000876000191660001916815260200190815260200160002060010160009054906101000a900473ffffffffffffffffffffffffffffffffffffffff1692503373ffffffffffffffffffffffffffffffffffffffff16600560006117748661339b565b6000191660001916815260200190815260200160002060010160009054906101000a900473ffffffffffffffffffffffffffffffffffffffff1673ffffffffffffffffffffffffffffffffffffffff1614151561185f576040517f08c379a000000000000000000000000000000000000000000000000000000000815260040180806020018281038252602c8152602001807f4f6e6c792074686520766f74696e67206d616368696e652063616e206578656381526020017f7574652070726f706f73616c000000000000000000000000000000000000000081525060400191505060405180910390fd5b6001851415611f9757600460008473ffffffffffffffffffffffffffffffffffffffff1673ffffffffffffffffffffffffffffffffffffffff16815260200190815260200160002060008760001916600019168152602001908152602001600020606060405190810160405290816000820160009054906101000a900473ffffffffffffffffffffffffffffffffffffffff1673ffffffffffffffffffffffffffffffffffffffff1673ffffffffffffffffffffffffffffffffffffffff168152602001600182018054600181600116156101000203166002900480601f0160208091040260200160405190810160405280929190818152602001828054600181600116156101000203166002900480156119bb5780601f10611990576101008083540402835291602001916119bb565b820191906000526020600020905b81548152906001019060200180831161199e57829003601f168201915b5050505050815260200160028201548152505091508273ffffffffffffffffffffffffffffffffffffffff16638da5cb5b6040518163ffffffff167c0100000000000000000000000000000000000000000000000000000000028152600401602060405180830381600087803b158015611a3457600080fd5b505af1158015611a48573d6000803e3d6000fd5b505050506040513d6020811015611a5e57600080fd5b810190808051906020019092919050505090508073ffffffffffffffffffffffffffffffffffffffff166320204fb7600360009054906101000a900473ffffffffffffffffffffffffffffffffffffffff16600360009054906101000a900473ffffffffffffffffffffffffffffffffffffffff1673ffffffffffffffffffffffffffffffffffffffff16638ee93cf390507c01000000000000000000000000000000000000000000000000000000000285602001516040516024018080602001828103825283818151815260200191508051906020019080838360005b83811015611b57578082015181840152602081019050611b3c565b50505050905090810190601f168015611b845780820380516001836020036101000a031916815260200191505b5092505050604051602081830303815290604052907bffffffffffffffffffffffffffffffffffffffffffffffffffffffff19166020820180517bffffffffffffffffffffffffffffffffffffffffffffffffffffffff8381831617835250505050866040518463ffffffff167c0100000000000000000000000000000000000000000000000000000000028152600401808473ffffffffffffffffffffffffffffffffffffffff1673ffffffffffffffffffffffffffffffffffffffff168152602001806020018373ffffffffffffffffffffffffffffffffffffffff1673ffffffffffffffffffffffffffffffffffffffff168152602001828103825284818151815260200191508051906020019080838360005b83811015611cb6578082015181840152602081019050611c9b565b50505050905090810190601f168015611ce35780820380516001836020036101000a031916815260200191505b50945050505050602060405180830381600087803b158015611d0457600080fd5b505af1158015611d18573d6000803e3d6000fd5b505050506040513d6020811015611d2e57600080fd5b8101908080519060200190929190505050508273ffffffffffffffffffffffffffffffffffffffff16638da5cb5b6040518163ffffffff167c0100000000000000000000000000000000000000000000000000000000028152600401602060405180830381600087803b158015611da457600080fd5b505af1158015611db8573d6000803e3d6000fd5b505050506040513d6020811015611dce57600080fd5b810190808051906020019092919050505073ffffffffffffffffffffffffffffffffffffffff1663eaf994b283604001518460000151866040518463ffffffff167c0100000000000000000000000000000000000000000000000000000000028152600401808481526020018373ffffffffffffffffffffffffffffffffffffffff1673ffffffffffffffffffffffffffffffffffffffff1681526020018273ffffffffffffffffffffffffffffffffffffffff1673ffffffffffffffffffffffffffffffffffffffff1681526020019350505050602060405180830381600087803b158015611ebd57600080fd5b505af1158015611ed1573d6000803e3d6000fd5b505050506040513d6020811015611ee757600080fd5b81019080805190602001909291905050501515611f92576040517f08c379a00000000000000000000000000000000000000000000000000000000081526004018080602001828103825260258152602001807f4661696c656420746f206d696e742072657075746174696f6e20746f2070726f81526020017f706f73657200000000000000000000000000000000000000000000000000000081525060400191505060405180910390fd5b612032565b600460008473ffffffffffffffffffffffffffffffffffffffff1673ffffffffffffffffffffffffffffffffffffffff16815260200190815260200160002060008760001916600019168152602001908152602001600020600080820160006101000a81549073ffffffffffffffffffffffffffffffffffffffff0219169055600182016000612027919061377f565b600282016000905550505b85600019168373ffffffffffffffffffffffffffffffffffffffff167fd2632e80f5364f02aded1c64e8a04637b7c8bb9c2db2bedf4b6ac47c013acbc0876040518082815260200191505060405180910390a36001935050505092915050565b600061209c613731565b60026000846000191660001916815260200190815260200160002060606040519081016040529081600082015481526020016001820160009054906101000a900473ffffffffffffffffffffffffffffffffffffffff1673ffffffffffffffffffffffffffffffffffffffff1673ffffffffffffffffffffffffffffffffffffffff1681526020016002820160009054906101000a900473ffffffffffffffffffffffffffffffffffffffff1673ffffffffffffffffffffffffffffffffffffffff1673ffffffffffffffffffffffffffffffffffffffff16815250509050600073ffffffffffffffffffffffffffffffffffffffff16816020015173ffffffffffffffffffffffffffffffffffffffff1614156121bd5760009150612310565b806020015173ffffffffffffffffffffffffffffffffffffffff166389ae1c906040518163ffffffff167c0100000000000000000000000000000000000000000000000000000000028152600401602060405180830381600087803b15801561222557600080fd5b505af1158015612239573d6000803e3d6000fd5b505050506040513d602081101561224f57600080fd5b810190808051906020019092919050505073ffffffffffffffffffffffffffffffffffffffff1663981b24d082600001516040518263ffffffff167c010000000000000000000000000000000000000000000000000000000002815260040180828152602001915050602060405180830381600087803b1580156122d257600080fd5b505af11580156122e6573d6000803e3d6000fd5b505050506040513d60208110156122fc57600080fd5b810190808051906020019092919050505091505b50919050565b73fa28ec7198028438514b49a3cf353bca5541ce1d81565b6000808260026000826000191660001916815260200190815260200160002060020160009054906101000a900473ffffffffffffffffffffffffffffffffffffffff1673ffffffffffffffffffffffffffffffffffffffff163373ffffffffffffffffffffffffffffffffffffffff16141515612413576040517f08c379a00000000000000000000000000000000000000000000000000000000081526004018080602001828103825260128152602001807f6f6e6c7920566f74696e674d616368696e65000000000000000000000000000081525060200191505060405180910390fd5b60026000856000191660001916815260200190815260200160002060010160009054906101000a900473ffffffffffffffffffffffffffffffffffffffff169150600073ffffffffffffffffffffffffffffffffffffffff168273ffffffffffffffffffffffffffffffffffffffff1614156124925760009250612679565b8173ffffffffffffffffffffffffffffffffffffffff16638da5cb5b6040518163ffffffff167c0100000000000000000000000000000000000000000000000000000000028152600401602060405180830381600087803b1580156124f657600080fd5b505af115801561250a573d6000803e3d6000fd5b505050506040513d602081101561252057600080fd5b810190808051906020019092919050505073ffffffffffffffffffffffffffffffffffffffff1663b9a04cdd888888866040518563ffffffff167c0100000000000000000000000000000000000000000000000000000000028152600401808573ffffffffffffffffffffffffffffffffffffffff1673ffffffffffffffffffffffffffffffffffffffff1681526020018473ffffffffffffffffffffffffffffffffffffffff1673ffffffffffffffffffffffffffffffffffffffff1681526020018381526020018273ffffffffffffffffffffffffffffffffffffffff1673ffffffffffffffffffffffffffffffffffffffff168152602001945050505050602060405180830381600087803b15801561263b57600080fd5b505af115801561264f573d6000803e3d6000fd5b505050506040513d602081101561266557600080fd5b810190808051906020019092919050505092505b5050949350505050565b6000808260026000826000191660001916815260200190815260200160002060020160009054906101000a900473ffffffffffffffffffffffffffffffffffffffff1673ffffffffffffffffffffffffffffffffffffffff163373ffffffffffffffffffffffffffffffffffffffff16141515612768576040517f08c379a00000000000000000000000000000000000000000000000000000000081526004018080602001828103825260128152602001807f6f6e6c7920566f74696e674d616368696e65000000000000000000000000000081525060200191505060405180910390fd5b60026000856000191660001916815260200190815260200160002060010160009054906101000a900473ffffffffffffffffffffffffffffffffffffffff169150600073ffffffffffffffffffffffffffffffffffffffff168273ffffffffffffffffffffffffffffffffffffffff1614156127e7576000925061299a565b8173ffffffffffffffffffffffffffffffffffffffff16638da5cb5b6040518163ffffffff167c0100000000000000000000000000000000000000000000000000000000028152600401602060405180830381600087803b15801561284b57600080fd5b505af115801561285f573d6000803e3d6000fd5b505050506040513d602081101561287557600080fd5b810190808051906020019092919050505073ffffffffffffffffffffffffffffffffffffffff1663eaf994b28787856040518463ffffffff167c0100000000000000000000000000000000000000000000000000000000028152600401808481526020018373ffffffffffffffffffffffffffffffffffffffff1673ffffffffffffffffffffffffffffffffffffffff1681526020018273ffffffffffffffffffffffffffffffffffffffff1673ffffffffffffffffffffffffffffffffffffffff1681526020019350505050602060405180830381600087803b15801561295c57600080fd5b505af1158015612970573d6000803e3d6000fd5b505050506040513d602081101561298657600080fd5b810190808051906020019092919050505092505b50509392505050565b73fa804eed9405f89cf48da33e23ea4be48de933c581565b600360009054906101000a900473ffffffffffffffffffffffffffffffffffffffff1681565b6000809054906101000a900473ffffffffffffffffffffffffffffffffffffffff1673ffffffffffffffffffffffffffffffffffffffff163373ffffffffffffffffffffffffffffffffffffffff16141515612a3c57600080fd5b612a458161354c565b50565b6000808260026000826000191660001916815260200190815260200160002060020160009054906101000a900473ffffffffffffffffffffffffffffffffffffffff1673ffffffffffffffffffffffffffffffffffffffff163373ffffffffffffffffffffffffffffffffffffffff16141515612b2d576040517f08c379a00000000000000000000000000000000000000000000000000000000081526004018080602001828103825260128152602001807f6f6e6c7920566f74696e674d616368696e65000000000000000000000000000081525060200191505060405180910390fd5b60026000856000191660001916815260200190815260200160002060010160009054906101000a900473ffffffffffffffffffffffffffffffffffffffff169150600073ffffffffffffffffffffffffffffffffffffffff168273ffffffffffffffffffffffffffffffffffffffff161415612bac5760009250612d5f565b8173ffffffffffffffffffffffffffffffffffffffff16638da5cb5b6040518163ffffffff167c0100000000000000000000000000000000000000000000000000000000028152600401602060405180830381600087803b158015612c1057600080fd5b505af1158015612c24573d6000803e3d6000fd5b505050506040513d6020811015612c3a57600080fd5b810190808051906020019092919050505073ffffffffffffffffffffffffffffffffffffffff16636e94d2788787856040518463ffffffff167c0100000000000000000000000000000000000000000000000000000000028152600401808481526020018373ffffffffffffffffffffffffffffffffffffffff1673ffffffffffffffffffffffffffffffffffffffff1681526020018273ffffffffffffffffffffffffffffffffffffffff1673ffffffffffffffffffffffffffffffffffffffff1681526020019350505050602060405180830381600087803b158015612d2157600080fd5b505af1158015612d35573d6000803e3d6000fd5b505050506040513d6020811015612d4b57600080fd5b810190808051906020019092919050505092505b50509392505050565b60015481565b600080700100000000000000000000000000000000026fffffffffffffffffffffffffffffffff1916600660008673ffffffffffffffffffffffffffffffffffffffff1673ffffffffffffffffffffffffffffffffffffffff16815260200190815260200160002060009054906101000a9004700100000000000000000000000000000000026fffffffffffffffffffffffffffffffff1916141515612ea2576040517f08c379a00000000000000000000000000000000000000000000000000000000081526004018080602001828103825260278152602001807f205370656369666965642061766174617220697320616c72656164792072656781526020017f697374657265640000000000000000000000000000000000000000000000000081525060400191505060405180910390fd5b82600660008673ffffffffffffffffffffffffffffffffffffffff1673ffffffffffffffffffffffffffffffffffffffff16815260200190815260200160002060006101000a8154816fffffffffffffffffffffffffffffffff0219169083700100000000000000000000000000000000900402179055508373ffffffffffffffffffffffffffffffffffffffff16638da5cb5b6040518163ffffffff167c0100000000000000000000000000000000000000000000000000000000028152600401602060405180830381600087803b158015612f7e57600080fd5b505af1158015612f92573d6000803e3d6000fd5b505050506040513d6020811015612fa857600080fd5b810190808051906020019092919050505090508073ffffffffffffffffffffffffffffffffffffffff166320204fb7600360009054906101000a900473ffffffffffffffffffffffffffffffffffffffff16600360009054906101000a900473ffffffffffffffffffffffffffffffffffffffff1673ffffffffffffffffffffffffffffffffffffffff16638f929c4a90507c010000000000000000000000000000000000000000000000000000000002868660405160240180836fffffffffffffffffffffffffffffffff19166fffffffffffffffffffffffffffffffff1916815260200180602001828103825283818151815260200191508051906020019080838360005b838110156130ca5780820151818401526020810190506130af565b50505050905090810190601f1680156130f75780820380516001836020036101000a031916815260200191505b509350505050604051602081830303815290604052907bffffffffffffffffffffffffffffffffffffffffffffffffffffffff19166020820180517bffffffffffffffffffffffffffffffffffffffffffffffffffffffff8381831617835250505050876040518463ffffffff167c0100000000000000000000000000000000000000000000000000000000028152600401808473ffffffffffffffffffffffffffffffffffffffff1673ffffffffffffffffffffffffffffffffffffffff168152602001806020018373ffffffffffffffffffffffffffffffffffffffff1673ffffffffffffffffffffffffffffffffffffffff168152602001828103825284818151815260200191508051906020019080838360005b8381101561322a57808201518184015260208101905061320f565b50505050905090810190601f1680156132575780820380516001836020036101000a031916815260200191505b50945050505050602060405180830381600087803b15801561327857600080fd5b505af115801561328c573d6000803e3d6000fd5b505050506040513d60208110156132a257600080fd5b8101908080519060200190929190505050508373ffffffffffffffffffffffffffffffffffffffff167fac40a5fa4563e4e0bcd52be8a5e3a2ddff8773ddbed96cf7e84d389280885afd848460405180836fffffffffffffffffffffffffffffffff19166fffffffffffffffffffffffffffffffff1916815260200180602001828103825283818151815260200191508051906020019080838360005b8381101561335a57808201518184015260208101905061333f565b50505050905090810190601f1680156133875780820380516001836020036101000a031916815260200191505b50935050505060405180910390a250505050565b60008173ffffffffffffffffffffffffffffffffffffffff16638da5cb5b6040518163ffffffff167c0100000000000000000000000000000000000000000000000000000000028152600401602060405180830381600087803b15801561340157600080fd5b505af1158015613415573d6000803e3d6000fd5b505050506040513d602081101561342b57600080fd5b810190808051906020019092919050505073ffffffffffffffffffffffffffffffffffffffff16631c4d560830846040518363ffffffff167c0100000000000000000000000000000000000000000000000000000000028152600401808373ffffffffffffffffffffffffffffffffffffffff1673ffffffffffffffffffffffffffffffffffffffff1681526020018273ffffffffffffffffffffffffffffffffffffffff1673ffffffffffffffffffffffffffffffffffffffff16815260200192505050602060405180830381600087803b15801561350a57600080fd5b505af115801561351e573d6000803e3d6000fd5b505050506040513d602081101561353457600080fd5b81019080805190602001909291905050509050919050565b600073ffffffffffffffffffffffffffffffffffffffff168173ffffffffffffffffffffffffffffffffffffffff161415151561358857600080fd5b8073ffffffffffffffffffffffffffffffffffffffff166000809054906101000a900473ffffffffffffffffffffffffffffffffffffffff1673ffffffffffffffffffffffffffffffffffffffff167f8be0079c531659141344cd1fd0a4f28419497f9722a3daafe3b4186f6b6457e060405160405180910390a3806000806101000a81548173ffffffffffffffffffffffffffffffffffffffff021916908373ffffffffffffffffffffffffffffffffffffffff16021790555050565b604080519081016040528060008019168152602001600073ffffffffffffffffffffffffffffffffffffffff1681525090565b606060405190810160405280600073ffffffffffffffffffffffffffffffffffffffff16815260200160608152602001600081525090565b828054600181600116156101000203166002900490600052602060002090601f016020900481019282601f106136f257805160ff1916838001178555613720565b82800160010185558215613720579182015b8281111561371f578251825591602001919060010190613704565b5b50905061372d91906137c7565b5090565b60606040519081016040528060008152602001600073ffffffffffffffffffffffffffffffffffffffff168152602001600073ffffffffffffffffffffffffffffffffffffffff1681525090565b50805460018160011615610100020316600290046000825580601f106137a557506137c4565b601f0160209004906000526020600020908101906137c391906137c7565b5b50565b6137e991905b808211156137e55760008160009055506001016137cd565b5090565b905600a165627a7a72305820a385eba4b2d868495b8ddef37a25152855657805d5b757f29814185ead2b84020029",
  "source": "pragma solidity ^0.4.24;\n\nimport \"@daostack/infra/contracts/votingMachines/ProposalExecuteInterface.sol\";\nimport \"@daostack/arc/contracts/universalSchemes/UniversalScheme.sol\";\nimport \"@daostack/arc/contracts/controller/ControllerInterface.sol\";\nimport \"@daostack/arc/contracts/votingMachines/VotingMachineCallbacks.sol\";\nimport \"./PeepethInterface.sol\";\n\n\n/**\n * @title A universal scheme for proposing \"peeps\" and rewarding proposers with reputation\n * @dev An agent can propose the organization a \"peep\" to send.\n * if accepted the peep will be posted by the organization\n * and the proposer will receive reputation.\n */\ncontract PeepScheme is UniversalScheme, VotingMachineCallbacks, ProposalExecuteInterface {\n\n    // Peepeth contract address on the Ethereum mainnet\n    address public constant PEEPETH = 0xfa28eC7198028438514b49a3CF353BcA5541ce1d;\n    \n    // Peepeth contract address on the Ethereum Rinkeby testnet\n    address public constant PEEPETH_RINKEBY = 0xfA804eED9405f89CF48Da33e23ea4BE48de933C5;\n\n    // Peepeth contract address on the Ethereum Kovan testnet\n    address public constant PEEPETH_KOVAN =  0xb704a46B605277c718A68D30Cb731c8818217eC7;\n\n    address public peepethContract;\n    \n    event PeepethAccountRegistered(address indexed _avatar, bytes16 _name, string _ipfsHash);\n\n    event NewPeepProposal(\n        address indexed _avatar,\n        bytes32 indexed _proposalId,\n        address indexed _intVoteInterface,\n        address _proposer,\n        string _peepHash,\n        uint _reputationChange\n    );\n\n    event ProposalExecuted(address indexed _avatar, bytes32 indexed _proposalId, int _param);\n\n    // A struct representing a proposal to send a new Peep by the avatar of an organization\n    struct PeepProposal {\n        address proposer; // The proposer of the tweet\n        string peepHash; // The IPFS hash of the peep to post\n        uint reputationChange; // Organization reputation reward requested by the proposer.\n    }\n\n    // A mapping from the organization (Avatar) address to the saved proposals of the organization:\n    mapping(address=>mapping(bytes32=>PeepProposal)) public organizationsProposals;\n\n    // A struct representing organization parameters in the Universal Scheme.\n    // The parameters represent a specific configuration set for an organization.\n    // The parameters should be approved annd registered in the controller of the organization.\n    struct Parameters {\n\n        bytes32 voteApproveParams; // The hash of the approved parameters of a Voting Machine for a specific organization.\n                                    // Used in the voting machine as the key in the parameters mapping to \n                                    // Note that these settings should be registered in the Voting Machine prior of using this scheme.\n                                    // You can see how to register the parameters by looking on `2_deploy_dao.js` under the `migrations` folder at line #64.\n        \n        IntVoteInterface intVote; // The address of the Voting Machine to be used to propose and vote on a proposal.\n    }\n    // A mapping from hashes to parameters (use to store a particular configuration on the controller)\n    mapping(bytes32 => Parameters) public parameters;\n    \n    // A mapping from the organization (Avatar) address to its Peepeth account name.\n    mapping(address => bytes16) public peepethAccounts;\n\n    constructor(address _peepethContract) public {\n        peepethContract = _peepethContract;\n    }\n\n    /**\n    * @dev hash the parameters, save them if necessary, and return the hash value\n    */\n    function setParameters(\n        bytes32 _voteApproveParams,\n        IntVoteInterface _intVote\n    ) public returns(bytes32)\n    {\n        bytes32 paramsHash = getParametersHash(\n            _voteApproveParams,\n            _intVote\n        );\n        parameters[paramsHash].voteApproveParams = _voteApproveParams;\n        parameters[paramsHash].intVote = _intVote;\n        return paramsHash;\n    }\n\n    /**\n    * @dev hash the parameters and return the hash\n    */\n    function getParametersHash(\n        bytes32 _voteApproveParams,\n        IntVoteInterface _intVote\n    ) public pure returns(bytes32)\n    {\n        return (keccak256(abi.encodePacked(_voteApproveParams, _intVote)));\n    }\n    \n    /**\n    * @dev Registers an Avatar as a Peepeth account owner\n    * @param _avatar the avatar of the organization to rregister to Peepeth\n    * @param _name the username for the avatar's account\n    * @param _ipfsHash the IPFS hash for the registration message on IPFS. An example for this message can be found at: https://ipfs.io/ipfs/QmQg5xX9RCWT8dxNnJV6WLSC3qQJXgac2vfcALh8ymmrL3\n    */\n    function registerPeepethAccount(address _avatar, bytes16 _name, string _ipfsHash) public {\n        // Check that the avater did not already register to Peepeth.\n        require(peepethAccounts[_avatar] == bytes16(0), \" Specified avatar is already registered\");\n        \n        // Saves the avatar Peepeth username\n        peepethAccounts[_avatar] = _name;\n        \n        ControllerInterface controller = ControllerInterface(Avatar(_avatar).owner());\n        // Sends a call to the Peepeth contract to create an account.\n        // The call will be made from the avatar address such that when received by the Peepeth contract, the msg.sender value will be the avatar's address\n        controller.genericCall(\n            peepethContract, \n            abi.encodeWithSelector(PeepethInterface(peepethContract).createAccount.selector, _name, _ipfsHash),\n            _avatar\n        );\n        \n        emit PeepethAccountRegistered(_avatar, _name, _ipfsHash);\n    }\n\n   \n    function proposePeep(\n        Avatar _avatar,\n        string _peepHash,\n        uint _reputationChange\n    ) public\n      returns(bytes32)\n    {\n        Parameters memory controllerParams = parameters[getParametersFromController(_avatar)];\n\n        bytes32 peepId = controllerParams.intVote.propose(\n            3,\n            controllerParams.voteApproveParams,\n            msg.sender,\n            _avatar\n        );\n\n        // Set the struct:\n        PeepProposal memory proposal = PeepProposal({\n            proposer: msg.sender,\n            peepHash: _peepHash,\n            reputationChange: _reputationChange\n        });\n        organizationsProposals[_avatar][peepId] = proposal;\n\n        emit NewPeepProposal(\n            _avatar,\n            peepId,\n            controllerParams.intVote,\n            msg.sender,\n            _peepHash,\n            _reputationChange\n        );\n\n        return peepId;\n    }\n\n    /**\n    * @dev execution of proposals, can only be called by the voting machine in which the vote is held.\n    * @param _proposalId the ID of the voting in the voting machine\n    * @param _param a parameter of the voting result, 1 yes and 2 is no.\n    */\n    function executeProposal(bytes32 _proposalId, int _param)  public returns(bool) {\n        address avatar = proposalsInfo[_proposalId].avatar;\n\n        // Check the caller is indeed the voting machine:\n        require(\n            parameters[getParametersFromController(Avatar(avatar))].intVote == msg.sender, \n            \"Only the voting machine can execute proposal\"\n        );\n\n        // Check if vote was successful:\n        if (_param == 1) {\n            PeepProposal memory proposal = organizationsProposals[avatar][_proposalId];\n            \n            ControllerInterface controller = ControllerInterface(Avatar(avatar).owner());\n            // Sends a call to the Peepeth contract to post a new peep.\n            // The call will be made from the avatar address such that when received by the Peepeth contract, the msg.sender value will be the avatar's address\n            controller.genericCall(peepethContract, abi.encodeWithSelector(PeepethInterface(peepethContract).post.selector, proposal.peepHash), avatar);\n            \n            // Mints reputation for the proposer of the Peep.\n            require(\n                ControllerInterface(Avatar(avatar).owner()).mintReputation(uint(proposal.reputationChange), proposal.proposer, avatar),\n                \"Failed to mint reputation to proposer\"\n            );\n        } else {\n            delete organizationsProposals[avatar][_proposalId];\n        }\n\n        emit ProposalExecuted(avatar, _proposalId, _param);\n\n        return true;\n    }\n}",
  "sourcePath": "/Users/benkaufman/Documents/Work/DAOstack/DAOstack-Hackers-Kit/peepeth-dao-example/contracts/PeepScheme.sol",
  "compiler": {
    "name": "solc",
    "version": "0.4.25+commit.59dbf8f1.Emscripten.clang"
  },
  "schemaVersion": "3.0.0-beta.1",
  "updatedAt": "2019-05-05T09:54:05.658Z"
}