{
  "contractName": "Reputation",
  "abi": [
    {
      "constant": true,
      "inputs": [],
      "name": "creationBlock",
      "outputs": [
        {
          "name": "",
          "type": "uint256"
        }
      ],
      "payable": false,
      "stateMutability": "view",
      "type": "function"
    },
    {
      "constant": true,
      "inputs": [],
      "name": "decimals",
      "outputs": [
        {
          "name": "",
          "type": "uint8"
        }
      ],
      "payable": false,
      "stateMutability": "view",
      "type": "function"
    },
    {
      "constant": false,
      "inputs": [],
      "name": "renounceOwnership",
      "outputs": [],
      "payable": false,
      "stateMutability": "nonpayable",
      "type": "function"
    },
    {
      "constant": true,
      "inputs": [],
      "name": "owner",
      "outputs": [
        {
          "name": "",
          "type": "address"
        }
      ],
      "payable": false,
      "stateMutability": "view",
      "type": "function"
    },
    {
      "constant": false,
      "inputs": [
        {
          "name": "_newOwner",
          "type": "address"
        }
      ],
      "name": "transferOwnership",
      "outputs": [],
      "payable": false,
      "stateMutability": "nonpayable",
      "type": "function"
    },
    {
      "inputs": [],
      "payable": false,
      "stateMutability": "nonpayable",
      "type": "constructor"
    },
    {
      "anonymous": false,
      "inputs": [
        {
          "indexed": true,
          "name": "_to",
          "type": "address"
        },
        {
          "indexed": false,
          "name": "_amount",
          "type": "uint256"
        }
      ],
      "name": "Mint",
      "type": "event"
    },
    {
      "anonymous": false,
      "inputs": [
        {
          "indexed": true,
          "name": "_from",
          "type": "address"
        },
        {
          "indexed": false,
          "name": "_amount",
          "type": "uint256"
        }
      ],
      "name": "Burn",
      "type": "event"
    },
    {
      "anonymous": false,
      "inputs": [
        {
          "indexed": true,
          "name": "previousOwner",
          "type": "address"
        }
      ],
      "name": "OwnershipRenounced",
      "type": "event"
    },
    {
      "anonymous": false,
      "inputs": [
        {
          "indexed": true,
          "name": "previousOwner",
          "type": "address"
        },
        {
          "indexed": true,
          "name": "newOwner",
          "type": "address"
        }
      ],
      "name": "OwnershipTransferred",
      "type": "event"
    },
    {
      "constant": true,
      "inputs": [],
      "name": "totalSupply",
      "outputs": [
        {
          "name": "",
          "type": "uint256"
        }
      ],
      "payable": false,
      "stateMutability": "view",
      "type": "function"
    },
    {
      "constant": true,
      "inputs": [
        {
          "name": "_owner",
          "type": "address"
        }
      ],
      "name": "balanceOf",
      "outputs": [
        {
          "name": "balance",
          "type": "uint256"
        }
      ],
      "payable": false,
      "stateMutability": "view",
      "type": "function"
    },
    {
      "constant": true,
      "inputs": [
        {
          "name": "_owner",
          "type": "address"
        },
        {
          "name": "_blockNumber",
          "type": "uint256"
        }
      ],
      "name": "balanceOfAt",
      "outputs": [
        {
          "name": "",
          "type": "uint256"
        }
      ],
      "payable": false,
      "stateMutability": "view",
      "type": "function"
    },
    {
      "constant": true,
      "inputs": [
        {
          "name": "_blockNumber",
          "type": "uint256"
        }
      ],
      "name": "totalSupplyAt",
      "outputs": [
        {
          "name": "",
          "type": "uint256"
        }
      ],
      "payable": false,
      "stateMutability": "view",
      "type": "function"
    },
    {
      "constant": false,
      "inputs": [
        {
          "name": "_owner",
          "type": "address"
        },
        {
          "name": "_amount",
          "type": "uint256"
        }
      ],
      "name": "mint",
      "outputs": [
        {
          "name": "",
          "type": "bool"
        }
      ],
      "payable": false,
      "stateMutability": "nonpayable",
      "type": "function"
    },
    {
      "constant": false,
      "inputs": [
        {
          "name": "_owner",
          "type": "address"
        },
        {
          "name": "_amount",
          "type": "uint256"
        }
      ],
      "name": "burn",
      "outputs": [
        {
          "name": "",
          "type": "bool"
        }
      ],
      "payable": false,
      "stateMutability": "nonpayable",
      "type": "function"
    }
  ],
  "bytecode": "0x60806040526012600060146101000a81548160ff021916908360ff16021790555034801561002c57600080fd5b50336000806101000a81548173ffffffffffffffffffffffffffffffffffffffff021916908373ffffffffffffffffffffffffffffffffffffffff16021790555043600181905550610f16806100836000396000f3006080604052600436106100af576000357c0100000000000000000000000000000000000000000000000000000000900463ffffffff16806317634514146100b457806318160ddd146100df578063313ce5671461010a57806340c10f191461013b5780634ee2cd7e146101a057806370a0823114610201578063715018a6146102585780638da5cb5b1461026f578063981b24d0146102c65780639dc29fac14610307578063f2fde38b1461036c575b600080fd5b3480156100c057600080fd5b506100c96103af565b6040518082815260200191505060405180910390f35b3480156100eb57600080fd5b506100f46103b5565b6040518082815260200191505060405180910390f35b34801561011657600080fd5b5061011f6103c5565b604051808260ff1660ff16815260200191505060405180910390f35b34801561014757600080fd5b50610186600480360381019080803573ffffffffffffffffffffffffffffffffffffffff169060200190929190803590602001909291905050506103d8565b604051808215151515815260200191505060405180910390f35b3480156101ac57600080fd5b506101eb600480360381019080803573ffffffffffffffffffffffffffffffffffffffff16906020019092919080359060200190929190505050610520565b6040518082815260200191505060405180910390f35b34801561020d57600080fd5b50610242600480360381019080803573ffffffffffffffffffffffffffffffffffffffff169060200190929190505050610658565b6040518082815260200191505060405180910390f35b34801561026457600080fd5b5061026d61066b565b005b34801561027b57600080fd5b5061028461076d565b604051808273ffffffffffffffffffffffffffffffffffffffff1673ffffffffffffffffffffffffffffffffffffffff16815260200191505060405180910390f35b3480156102d257600080fd5b506102f160048036038101908080359060200190929190505050610792565b6040518082815260200191505060405180910390f35b34801561031357600080fd5b50610352600480360381019080803573ffffffffffffffffffffffffffffffffffffffff16906020019092919080359060200190929190505050610812565b604051808215151515815260200191505060405180910390f35b34801561037857600080fd5b506103ad600480360381019080803573ffffffffffffffffffffffffffffffffffffffff169060200190929190505050610955565b005b60015481565b60006103c043610792565b905090565b600060149054906101000a900460ff1681565b60008060008060009054906101000a900473ffffffffffffffffffffffffffffffffffffffff1673ffffffffffffffffffffffffffffffffffffffff163373ffffffffffffffffffffffffffffffffffffffff1614151561043857600080fd5b6104406103b5565b9150818483011015151561045357600080fd5b61045c85610658565b9050808482011015151561046f57600080fd5b61047c60038584016109bc565b6104c6600260008773ffffffffffffffffffffffffffffffffffffffff1673ffffffffffffffffffffffffffffffffffffffff1681526020019081526020016000208583016109bc565b8473ffffffffffffffffffffffffffffffffffffffff167f0f6798a560793a54c3bcfe86a93cde1e73087d944c0ea20544137d4121396885856040518082815260200191505060405180910390a260019250505092915050565b600080600260008573ffffffffffffffffffffffffffffffffffffffff1673ffffffffffffffffffffffffffffffffffffffff1681526020019081526020016000208054905014806105f9575081600260008573ffffffffffffffffffffffffffffffffffffffff1673ffffffffffffffffffffffffffffffffffffffff16815260200190815260200160002060008154811015156105bb57fe5b9060005260206000200160000160009054906101000a90046fffffffffffffffffffffffffffffffff166fffffffffffffffffffffffffffffffff16115b156106075760009050610652565b61064f600260008573ffffffffffffffffffffffffffffffffffffffff1673ffffffffffffffffffffffffffffffffffffffff16815260200190815260200160002083610b50565b90505b92915050565b60006106648243610520565b9050919050565b6000809054906101000a900473ffffffffffffffffffffffffffffffffffffffff1673ffffffffffffffffffffffffffffffffffffffff163373ffffffffffffffffffffffffffffffffffffffff161415156106c657600080fd5b6000809054906101000a900473ffffffffffffffffffffffffffffffffffffffff1673ffffffffffffffffffffffffffffffffffffffff167ff8df31144d9c2f0f6b59d69b8b98abd5459d07f2742c4df920b25aae33c6482060405160405180910390a260008060006101000a81548173ffffffffffffffffffffffffffffffffffffffff021916908373ffffffffffffffffffffffffffffffffffffffff160217905550565b6000809054906101000a900473ffffffffffffffffffffffffffffffffffffffff1681565b60008060038054905014806107f1575081600360008154811015156107b357fe5b9060005260206000200160000160009054906101000a90046fffffffffffffffffffffffffffffffff166fffffffffffffffffffffffffffffffff16115b156107ff576000905061080d565b61080a600383610b50565b90505b919050565b6000806000806000809054906101000a900473ffffffffffffffffffffffffffffffffffffffff1673ffffffffffffffffffffffffffffffffffffffff163373ffffffffffffffffffffffffffffffffffffffff1614151561087357600080fd5b61087b6103b5565b92508491508183101561088c578291505b61089586610658565b9050818110156108a3578091505b6108b060038385036109bc565b6108fa600260008873ffffffffffffffffffffffffffffffffffffffff1673ffffffffffffffffffffffffffffffffffffffff1681526020019081526020016000208383036109bc565b8573ffffffffffffffffffffffffffffffffffffffff167fcc16f5dbb4873280815c1ee09dbd06736cffcc184412cf7a71a0fdb75d397ca5836040518082815260200191505060405180910390a26001935050505092915050565b6000809054906101000a900473ffffffffffffffffffffffffffffffffffffffff1673ffffffffffffffffffffffffffffffffffffffff163373ffffffffffffffffffffffffffffffffffffffff161415156109b057600080fd5b6109b981610d5f565b50565b60008082836fffffffffffffffffffffffffffffffff161415156109df57600080fd5b600084805490501480610a41575043846001868054905003815481101515610a0357fe5b9060005260206000200160000160009054906101000a90046fffffffffffffffffffffffffffffffff166fffffffffffffffffffffffffffffffff16105b15610aed5783848054809190600101610a5a9190610e59565b815481101515610a6657fe5b906000526020600020019150438260000160006101000a8154816fffffffffffffffffffffffffffffffff02191690836fffffffffffffffffffffffffffffffff160217905550828260000160106101000a8154816fffffffffffffffffffffffffffffffff02191690836fffffffffffffffffffffffffffffffff160217905550610b4a565b836001858054905003815481101515610b0257fe5b906000526020600020019050828160000160106101000a8154816fffffffffffffffffffffffffffffffff02191690836fffffffffffffffffffffffffffffffff1602179055505b50505050565b600080600080600086805490501415610b6c5760009350610d56565b856001878054905003815481101515610b8157fe5b9060005260206000200160000160009054906101000a90046fffffffffffffffffffffffffffffffff166fffffffffffffffffffffffffffffffff1685101515610c1d57856001878054905003815481101515610bda57fe5b9060005260206000200160000160109054906101000a90046fffffffffffffffffffffffffffffffff166fffffffffffffffffffffffffffffffff169350610d56565b856000815481101515610c2c57fe5b9060005260206000200160000160009054906101000a90046fffffffffffffffffffffffffffffffff166fffffffffffffffffffffffffffffffff16851015610c785760009350610d56565b60009250600186805490500391505b82821115610d09576002600184840101811515610ca057fe5b049050848682815481101515610cb257fe5b9060005260206000200160000160009054906101000a90046fffffffffffffffffffffffffffffffff166fffffffffffffffffffffffffffffffff16111515610cfd57809250610d04565b6001810391505b610c87565b8583815481101515610d1757fe5b9060005260206000200160000160109054906101000a90046fffffffffffffffffffffffffffffffff166fffffffffffffffffffffffffffffffff1693505b50505092915050565b600073ffffffffffffffffffffffffffffffffffffffff168173ffffffffffffffffffffffffffffffffffffffff1614151515610d9b57600080fd5b8073ffffffffffffffffffffffffffffffffffffffff166000809054906101000a900473ffffffffffffffffffffffffffffffffffffffff1673ffffffffffffffffffffffffffffffffffffffff167f8be0079c531659141344cd1fd0a4f28419497f9722a3daafe3b4186f6b6457e060405160405180910390a3806000806101000a81548173ffffffffffffffffffffffffffffffffffffffff021916908373ffffffffffffffffffffffffffffffffffffffff16021790555050565b815481835581811115610e8057818360005260206000209182019101610e7f9190610e85565b5b505050565b610ee791905b80821115610ee357600080820160006101000a8154906fffffffffffffffffffffffffffffffff02191690556000820160106101000a8154906fffffffffffffffffffffffffffffffff021916905550600101610e8b565b5090565b905600a165627a7a72305820fabd6e952caeda7d0ae28c5c745a63d0ada0aa71adbd1d4518fcedc2fe622f100029",
  "source": "pragma solidity ^0.4.25;\n\nimport \"openzeppelin-solidity/contracts/ownership/Ownable.sol\";\n\n\n/**\n * @title Reputation system\n * @dev A DAO has Reputation System which allows peers to rate other peers in order to build trust .\n * A reputation is use to assign influence measure to a DAO'S peers.\n * Reputation is similar to regular tokens but with one crucial difference: It is non-transferable.\n * The Reputation contract maintain a map of address to reputation value.\n * It provides an onlyOwner functions to mint and burn reputation _to (or _from) a specific address.\n */\n\ncontract Reputation is Ownable {\n\n    uint8 public decimals = 18;             //Number of decimals of the smallest unit\n    // Event indicating minting of reputation to an address.\n    event Mint(address indexed _to, uint256 _amount);\n    // Event indicating burning of reputation for an address.\n    event Burn(address indexed _from, uint256 _amount);\n\n      /// @dev `Checkpoint` is the structure that attaches a block number to a\n      ///  given value, the block number attached is the one that last changed the\n      ///  value\n    struct Checkpoint {\n\n    // `fromBlock` is the block number that the value was generated from\n        uint128 fromBlock;\n\n          // `value` is the amount of reputation at a specific block number\n        uint128 value;\n    }\n\n      // `creationBlock` is the block number that the Clone Token was created\n    uint public creationBlock;\n\n      // `balances` is the map that tracks the balance of each address, in this\n      //  contract when the balance changes the block number that the change\n      //  occurred is also included in the map\n    mapping (address => Checkpoint[]) balances;\n\n      // Tracks the history of the `totalSupply` of the reputation\n    Checkpoint[] totalSupplyHistory;\n\n    /// @notice Constructor to create a MiniMeToken\n    constructor(\n    ) public\n    {\n        creationBlock = block.number;\n    }\n\n    /// @dev This function makes it easy to get the total number of reputation\n    /// @return The total number of reputation\n    function totalSupply() public view returns (uint) {\n        return totalSupplyAt(block.number);\n    }\n\n  ////////////////\n  // Query balance and totalSupply in History\n  ////////////////\n    /**\n    * @dev return the reputation amount of a given owner\n    * @param _owner an address of the owner which we want to get his reputation\n    */\n    function balanceOf(address _owner) public view returns (uint256 balance) {\n        return balanceOfAt(_owner, block.number);\n    }\n\n      /// @dev Queries the balance of `_owner` at a specific `_blockNumber`\n      /// @param _owner The address from which the balance will be retrieved\n      /// @param _blockNumber The block number when the balance is queried\n      /// @return The balance at `_blockNumber`\n    function balanceOfAt(address _owner, uint _blockNumber)\n    public view returns (uint)\n    {\n        if ((balances[_owner].length == 0) || (balances[_owner][0].fromBlock > _blockNumber)) {\n            return 0;\n          // This will return the expected balance during normal situations\n        } else {\n            return getValueAt(balances[_owner], _blockNumber);\n        }\n    }\n\n      /// @notice Total amount of reputation at a specific `_blockNumber`.\n      /// @param _blockNumber The block number when the totalSupply is queried\n      /// @return The total amount of reputation at `_blockNumber`\n    function totalSupplyAt(uint _blockNumber) public view returns(uint) {\n        if ((totalSupplyHistory.length == 0) || (totalSupplyHistory[0].fromBlock > _blockNumber)) {\n            return 0;\n          // This will return the expected totalSupply during normal situations\n        } else {\n            return getValueAt(totalSupplyHistory, _blockNumber);\n        }\n    }\n\n      /// @notice Generates `_amount` reputation that are assigned to `_owner`\n      /// @param _owner The address that will be assigned the new reputation\n      /// @param _amount The quantity of reputation generated\n      /// @return True if the reputation are generated correctly\n    function mint(address _owner, uint _amount) public onlyOwner returns (bool) {\n        uint curTotalSupply = totalSupply();\n        require(curTotalSupply + _amount >= curTotalSupply); // Check for overflow\n        uint previousBalanceTo = balanceOf(_owner);\n        require(previousBalanceTo + _amount >= previousBalanceTo); // Check for overflow\n        updateValueAtNow(totalSupplyHistory, curTotalSupply + _amount);\n        updateValueAtNow(balances[_owner], previousBalanceTo + _amount);\n        emit Mint(_owner, _amount);\n        return true;\n    }\n\n      /// @notice Burns `_amount` reputation from `_owner`\n      /// @param _owner The address that will lose the reputation\n      /// @param _amount The quantity of reputation to burn\n      /// @return True if the reputation are burned correctly\n    function burn(address _owner, uint _amount) public onlyOwner returns (bool) {\n        uint curTotalSupply = totalSupply();\n        uint amountBurned = _amount;\n        if (curTotalSupply < amountBurned) {\n            amountBurned = curTotalSupply;\n        }\n        uint previousBalanceFrom = balanceOf(_owner);\n        if (previousBalanceFrom < amountBurned) {\n            amountBurned = previousBalanceFrom;\n        }\n          //require(previousBalanceFrom >= _amount);\n        updateValueAtNow(totalSupplyHistory, curTotalSupply - amountBurned);\n        updateValueAtNow(balances[_owner], previousBalanceFrom - amountBurned);\n        emit Burn(_owner, amountBurned);\n        return true;\n    }\n\n  ////////////////\n  // Internal helper functions to query and set a value in a snapshot array\n  ////////////////\n\n      /// @dev `getValueAt` retrieves the number of reputation at a given block number\n      /// @param checkpoints The history of values being queried\n      /// @param _block The block number to retrieve the value at\n      /// @return The number of reputation being queried\n    function getValueAt(Checkpoint[] storage checkpoints, uint _block) internal view returns (uint) {\n        if (checkpoints.length == 0) {\n            return 0;\n        }\n\n          // Shortcut for the actual value\n        if (_block >= checkpoints[checkpoints.length-1].fromBlock) {\n            return checkpoints[checkpoints.length-1].value;\n        }\n        if (_block < checkpoints[0].fromBlock) {\n            return 0;\n        }\n\n          // Binary search of the value in the array\n        uint min = 0;\n        uint max = checkpoints.length-1;\n        while (max > min) {\n            uint mid = (max + min + 1) / 2;\n            if (checkpoints[mid].fromBlock<=_block) {\n                min = mid;\n            } else {\n                max = mid-1;\n            }\n        }\n        return checkpoints[min].value;\n    }\n\n      /// @dev `updateValueAtNow` used to update the `balances` map and the\n      ///  `totalSupplyHistory`\n      /// @param checkpoints The history of data being updated\n      /// @param _value The new number of reputation\n    function updateValueAtNow(Checkpoint[] storage checkpoints, uint _value) internal {\n        require(uint128(_value) == _value); //check value is in the 128 bits bounderies\n        if ((checkpoints.length == 0) || (checkpoints[checkpoints.length - 1].fromBlock < block.number)) {\n            Checkpoint storage newCheckPoint = checkpoints[checkpoints.length++];\n            newCheckPoint.fromBlock = uint128(block.number);\n            newCheckPoint.value = uint128(_value);\n        } else {\n            Checkpoint storage oldCheckPoint = checkpoints[checkpoints.length-1];\n            oldCheckPoint.value = uint128(_value);\n        }\n    }\n}\n",
  "sourcePath": "@daostack/infra/contracts/Reputation.sol",
  "compiler": {
    "name": "solc",
    "version": "0.4.25+commit.59dbf8f1.Emscripten.clang"
  },
  "schemaVersion": "3.0.0-beta.1",
  "updatedAt": "2019-05-05T09:54:01.353Z"
}