{
  "contractName": "VotingMachineCallbacks",
  "abi": [
    {
      "constant": true,
      "inputs": [
        {
          "name": "_proposalId",
          "type": "bytes32"
        }
      ],
      "name": "getTotalReputationSupply",
      "outputs": [
        {
          "name": "",
          "type": "uint256"
        }
      ],
      "payable": false,
      "stateMutability": "view",
      "type": "function"
    },
    {
      "constant": false,
      "inputs": [
        {
          "name": "_amount",
          "type": "uint256"
        },
        {
          "name": "_beneficiary",
          "type": "address"
        },
        {
          "name": "_proposalId",
          "type": "bytes32"
        }
      ],
      "name": "mintReputation",
      "outputs": [
        {
          "name": "",
          "type": "bool"
        }
      ],
      "payable": false,
      "stateMutability": "nonpayable",
      "type": "function"
    },
    {
      "constant": false,
      "inputs": [
        {
          "name": "_amount",
          "type": "uint256"
        },
        {
          "name": "_beneficiary",
          "type": "address"
        },
        {
          "name": "_proposalId",
          "type": "bytes32"
        }
      ],
      "name": "burnReputation",
      "outputs": [
        {
          "name": "",
          "type": "bool"
        }
      ],
      "payable": false,
      "stateMutability": "nonpayable",
      "type": "function"
    },
    {
      "constant": true,
      "inputs": [
        {
          "name": "_owner",
          "type": "address"
        },
        {
          "name": "_proposalId",
          "type": "bytes32"
        }
      ],
      "name": "reputationOf",
      "outputs": [
        {
          "name": "",
          "type": "uint256"
        }
      ],
      "payable": false,
      "stateMutability": "view",
      "type": "function"
    },
    {
      "constant": false,
      "inputs": [
        {
          "name": "_stakingToken",
          "type": "address"
        },
        {
          "name": "_beneficiary",
          "type": "address"
        },
        {
          "name": "_amount",
          "type": "uint256"
        },
        {
          "name": "_proposalId",
          "type": "bytes32"
        }
      ],
      "name": "stakingTokenTransfer",
      "outputs": [
        {
          "name": "",
          "type": "bool"
        }
      ],
      "payable": false,
      "stateMutability": "nonpayable",
      "type": "function"
    },
    {
      "constant": true,
      "inputs": [
        {
          "name": "_stakingToken",
          "type": "address"
        },
        {
          "name": "_proposalId",
          "type": "bytes32"
        }
      ],
      "name": "balanceOfStakingToken",
      "outputs": [
        {
          "name": "",
          "type": "uint256"
        }
      ],
      "payable": false,
      "stateMutability": "view",
      "type": "function"
    }
  ],
  "bytecode": "0x608060405234801561001057600080fd5b5061136b806100206000396000f300608060405260043610610078576000357c0100000000000000000000000000000000000000000000000000000000900463ffffffff1680636b8eb4031461007d5780639588378e146100e2578063b551c37314610147578063bea75f281461018c578063d29b5d2f1461021f578063f81f8bf614610292575b600080fd5b34801561008957600080fd5b506100cc600480360381019080803573ffffffffffffffffffffffffffffffffffffffff1690602001909291908035600019169060200190929190505050610305565b6040518082815260200191505060405180910390f35b3480156100ee57600080fd5b50610131600480360381019080803573ffffffffffffffffffffffffffffffffffffffff1690602001909291908035600019169060200190929190505050610427565b6040518082815260200191505060405180910390f35b34801561015357600080fd5b5061017660048036038101908080356000191690602001909291905050506106df565b6040518082815260200191505060405180910390f35b34801561019857600080fd5b50610205600480360381019080803573ffffffffffffffffffffffffffffffffffffffff169060200190929190803573ffffffffffffffffffffffffffffffffffffffff169060200190929190803590602001909291908035600019169060200190929190505050610962565b604051808215151515815260200191505060405180910390f35b34801561022b57600080fd5b5061027860048036038101908080359060200190929190803573ffffffffffffffffffffffffffffffffffffffff1690602001909291908035600019169060200190929190505050610cb5565b604051808215151515815260200191505060405180910390f35b34801561029e57600080fd5b506102eb60048036038101908080359060200190929190803573ffffffffffffffffffffffffffffffffffffffff1690602001909291908035600019169060200190929190505050610fd3565b604051808215151515815260200191505060405180910390f35b600080600080846000191660001916815260200190815260200160002060010160009054906101000a900473ffffffffffffffffffffffffffffffffffffffff1690508373ffffffffffffffffffffffffffffffffffffffff166370a08231826040518263ffffffff167c0100000000000000000000000000000000000000000000000000000000028152600401808273ffffffffffffffffffffffffffffffffffffffff1673ffffffffffffffffffffffffffffffffffffffff168152602001915050602060405180830381600087803b1580156103e357600080fd5b505af11580156103f7573d6000803e3d6000fd5b505050506040513d602081101561040d57600080fd5b810190808051906020019092919050505091505092915050565b60006104316112f1565b600080846000191660001916815260200190815260200160002060606040519081016040529081600082015481526020016001820160009054906101000a900473ffffffffffffffffffffffffffffffffffffffff1673ffffffffffffffffffffffffffffffffffffffff1673ffffffffffffffffffffffffffffffffffffffff1681526020016002820160009054906101000a900473ffffffffffffffffffffffffffffffffffffffff1673ffffffffffffffffffffffffffffffffffffffff1673ffffffffffffffffffffffffffffffffffffffff16815250509050600073ffffffffffffffffffffffffffffffffffffffff16816020015173ffffffffffffffffffffffffffffffffffffffff16141561055157600091506106d8565b806020015173ffffffffffffffffffffffffffffffffffffffff166389ae1c906040518163ffffffff167c0100000000000000000000000000000000000000000000000000000000028152600401602060405180830381600087803b1580156105b957600080fd5b505af11580156105cd573d6000803e3d6000fd5b505050506040513d60208110156105e357600080fd5b810190808051906020019092919050505073ffffffffffffffffffffffffffffffffffffffff16634ee2cd7e8583600001516040518363ffffffff167c0100000000000000000000000000000000000000000000000000000000028152600401808373ffffffffffffffffffffffffffffffffffffffff1673ffffffffffffffffffffffffffffffffffffffff16815260200182815260200192505050602060405180830381600087803b15801561069a57600080fd5b505af11580156106ae573d6000803e3d6000fd5b505050506040513d60208110156106c457600080fd5b810190808051906020019092919050505091505b5092915050565b60006106e96112f1565b600080846000191660001916815260200190815260200160002060606040519081016040529081600082015481526020016001820160009054906101000a900473ffffffffffffffffffffffffffffffffffffffff1673ffffffffffffffffffffffffffffffffffffffff1673ffffffffffffffffffffffffffffffffffffffff1681526020016002820160009054906101000a900473ffffffffffffffffffffffffffffffffffffffff1673ffffffffffffffffffffffffffffffffffffffff1673ffffffffffffffffffffffffffffffffffffffff16815250509050600073ffffffffffffffffffffffffffffffffffffffff16816020015173ffffffffffffffffffffffffffffffffffffffff161415610809576000915061095c565b806020015173ffffffffffffffffffffffffffffffffffffffff166389ae1c906040518163ffffffff167c0100000000000000000000000000000000000000000000000000000000028152600401602060405180830381600087803b15801561087157600080fd5b505af1158015610885573d6000803e3d6000fd5b505050506040513d602081101561089b57600080fd5b810190808051906020019092919050505073ffffffffffffffffffffffffffffffffffffffff1663981b24d082600001516040518263ffffffff167c010000000000000000000000000000000000000000000000000000000002815260040180828152602001915050602060405180830381600087803b15801561091e57600080fd5b505af1158015610932573d6000803e3d6000fd5b505050506040513d602081101561094857600080fd5b810190808051906020019092919050505091505b50919050565b60008082600080826000191660001916815260200190815260200160002060020160009054906101000a900473ffffffffffffffffffffffffffffffffffffffff1673ffffffffffffffffffffffffffffffffffffffff163373ffffffffffffffffffffffffffffffffffffffff16141515610a46576040517f08c379a00000000000000000000000000000000000000000000000000000000081526004018080602001828103825260128152602001807f6f6e6c7920566f74696e674d616368696e65000000000000000000000000000081525060200191505060405180910390fd5b600080856000191660001916815260200190815260200160002060010160009054906101000a900473ffffffffffffffffffffffffffffffffffffffff169150600073ffffffffffffffffffffffffffffffffffffffff168273ffffffffffffffffffffffffffffffffffffffff161415610ac45760009250610cab565b8173ffffffffffffffffffffffffffffffffffffffff16638da5cb5b6040518163ffffffff167c0100000000000000000000000000000000000000000000000000000000028152600401602060405180830381600087803b158015610b2857600080fd5b505af1158015610b3c573d6000803e3d6000fd5b505050506040513d6020811015610b5257600080fd5b810190808051906020019092919050505073ffffffffffffffffffffffffffffffffffffffff1663b9a04cdd888888866040518563ffffffff167c0100000000000000000000000000000000000000000000000000000000028152600401808573ffffffffffffffffffffffffffffffffffffffff1673ffffffffffffffffffffffffffffffffffffffff1681526020018473ffffffffffffffffffffffffffffffffffffffff1673ffffffffffffffffffffffffffffffffffffffff1681526020018381526020018273ffffffffffffffffffffffffffffffffffffffff1673ffffffffffffffffffffffffffffffffffffffff168152602001945050505050602060405180830381600087803b158015610c6d57600080fd5b505af1158015610c81573d6000803e3d6000fd5b505050506040513d6020811015610c9757600080fd5b810190808051906020019092919050505092505b5050949350505050565b60008082600080826000191660001916815260200190815260200160002060020160009054906101000a900473ffffffffffffffffffffffffffffffffffffffff1673ffffffffffffffffffffffffffffffffffffffff163373ffffffffffffffffffffffffffffffffffffffff16141515610d99576040517f08c379a00000000000000000000000000000000000000000000000000000000081526004018080602001828103825260128152602001807f6f6e6c7920566f74696e674d616368696e65000000000000000000000000000081525060200191505060405180910390fd5b600080856000191660001916815260200190815260200160002060010160009054906101000a900473ffffffffffffffffffffffffffffffffffffffff169150600073ffffffffffffffffffffffffffffffffffffffff168273ffffffffffffffffffffffffffffffffffffffff161415610e175760009250610fca565b8173ffffffffffffffffffffffffffffffffffffffff16638da5cb5b6040518163ffffffff167c0100000000000000000000000000000000000000000000000000000000028152600401602060405180830381600087803b158015610e7b57600080fd5b505af1158015610e8f573d6000803e3d6000fd5b505050506040513d6020811015610ea557600080fd5b810190808051906020019092919050505073ffffffffffffffffffffffffffffffffffffffff1663eaf994b28787856040518463ffffffff167c0100000000000000000000000000000000000000000000000000000000028152600401808481526020018373ffffffffffffffffffffffffffffffffffffffff1673ffffffffffffffffffffffffffffffffffffffff1681526020018273ffffffffffffffffffffffffffffffffffffffff1673ffffffffffffffffffffffffffffffffffffffff1681526020019350505050602060405180830381600087803b158015610f8c57600080fd5b505af1158015610fa0573d6000803e3d6000fd5b505050506040513d6020811015610fb657600080fd5b810190808051906020019092919050505092505b50509392505050565b60008082600080826000191660001916815260200190815260200160002060020160009054906101000a900473ffffffffffffffffffffffffffffffffffffffff1673ffffffffffffffffffffffffffffffffffffffff163373ffffffffffffffffffffffffffffffffffffffff161415156110b7576040517f08c379a00000000000000000000000000000000000000000000000000000000081526004018080602001828103825260128152602001807f6f6e6c7920566f74696e674d616368696e65000000000000000000000000000081525060200191505060405180910390fd5b600080856000191660001916815260200190815260200160002060010160009054906101000a900473ffffffffffffffffffffffffffffffffffffffff169150600073ffffffffffffffffffffffffffffffffffffffff168273ffffffffffffffffffffffffffffffffffffffff16141561113557600092506112e8565b8173ffffffffffffffffffffffffffffffffffffffff16638da5cb5b6040518163ffffffff167c0100000000000000000000000000000000000000000000000000000000028152600401602060405180830381600087803b15801561119957600080fd5b505af11580156111ad573d6000803e3d6000fd5b505050506040513d60208110156111c357600080fd5b810190808051906020019092919050505073ffffffffffffffffffffffffffffffffffffffff16636e94d2788787856040518463ffffffff167c0100000000000000000000000000000000000000000000000000000000028152600401808481526020018373ffffffffffffffffffffffffffffffffffffffff1673ffffffffffffffffffffffffffffffffffffffff1681526020018273ffffffffffffffffffffffffffffffffffffffff1673ffffffffffffffffffffffffffffffffffffffff1681526020019350505050602060405180830381600087803b1580156112aa57600080fd5b505af11580156112be573d6000803e3d6000fd5b505050506040513d60208110156112d457600080fd5b810190808051906020019092919050505092505b50509392505050565b60606040519081016040528060008152602001600073ffffffffffffffffffffffffffffffffffffffff168152602001600073ffffffffffffffffffffffffffffffffffffffff16815250905600a165627a7a72305820dba80484993ebb3b10037ff8e8c289f6f4cd8a69758c35c6fd2d88e04314a5cc0029",
  "source": "pragma solidity ^0.4.25;\n\nimport \"../universalSchemes/UniversalScheme.sol\";\nimport \"@daostack/infra/contracts/votingMachines/GenesisProtocol.sol\";\n\n\ncontract VotingMachineCallbacks is VotingMachineCallbacksInterface {\n\n    struct ProposalInfo {\n        uint blockNumber; // the proposal's block number\n        Avatar avatar; // the proposal's avatar\n        address votingMachine;\n    }\n\n    modifier onlyVotingMachine(bytes32 _proposalId) {\n        require(msg.sender == proposalsInfo[_proposalId].votingMachine,\"only VotingMachine\");\n        _;\n    }\n            //proposalId ->     ProposalInfo\n    mapping(bytes32      =>     ProposalInfo    ) proposalsInfo;\n\n    function getTotalReputationSupply(bytes32 _proposalId) external view returns(uint256) {\n        ProposalInfo memory proposal = proposalsInfo[_proposalId];\n        if (proposal.avatar == Avatar(0)) {\n            return 0;\n        }\n        return proposal.avatar.nativeReputation().totalSupplyAt(proposal.blockNumber);\n    }\n\n    function mintReputation(uint _amount,address _beneficiary,bytes32 _proposalId) external onlyVotingMachine(_proposalId) returns(bool) {\n        Avatar avatar = proposalsInfo[_proposalId].avatar;\n        if (avatar == Avatar(0)) {\n            return false;\n        }\n        return ControllerInterface(avatar.owner()).mintReputation(_amount,_beneficiary,address(avatar));\n    }\n\n    function burnReputation(uint _amount,address _beneficiary,bytes32 _proposalId) external onlyVotingMachine(_proposalId) returns(bool) {\n        Avatar avatar = proposalsInfo[_proposalId].avatar;\n        if (avatar == Avatar(0)) {\n            return false;\n        }\n        return ControllerInterface(avatar.owner()).burnReputation(_amount,_beneficiary,address(avatar));\n    }\n\n    function reputationOf(address _owner,bytes32 _proposalId) external view returns(uint) {\n        ProposalInfo memory proposal = proposalsInfo[_proposalId];\n        if (proposal.avatar == Avatar(0)) {\n            return 0;\n        }\n        return proposal.avatar.nativeReputation().balanceOfAt(_owner,proposal.blockNumber);\n    }\n\n    function stakingTokenTransfer(\n        StandardToken _stakingToken,\n        address _beneficiary,\n        uint _amount,\n        bytes32 _proposalId)\n    external\n    onlyVotingMachine(_proposalId)\n    returns(bool)\n    {\n        Avatar avatar = proposalsInfo[_proposalId].avatar;\n        if (avatar == Avatar(0)) {\n            return false;\n        }\n        return ControllerInterface(avatar.owner()).externalTokenTransfer(_stakingToken,_beneficiary,_amount,address(avatar));\n    }\n\n    function balanceOfStakingToken(StandardToken _stakingToken,bytes32 _proposalId) external view returns(uint) {\n        Avatar avatar = proposalsInfo[_proposalId].avatar;\n        return _stakingToken.balanceOf(address(avatar));\n    }\n}\n",
  "sourcePath": "@daostack/arc/contracts/votingMachines/VotingMachineCallbacks.sol",
  "compiler": {
    "name": "solc",
    "version": "0.4.25+commit.59dbf8f1.Emscripten.clang"
  },
  "schemaVersion": "3.0.0-beta.1",
  "updatedAt": "2019-05-05T09:54:01.352Z"
}