{
  "contractName": "ICOScheme",
  "abi": [
    {
      "anonymous": false,
      "inputs": [
        {
          "indexed": true,
          "internalType": "address",
          "name": "_beneficiary",
          "type": "address"
        },
        {
          "indexed": false,
          "internalType": "uint256",
          "name": "_incomingEther",
          "type": "uint256"
        },
        {
          "indexed": false,
          "internalType": "uint256",
          "name": "_tokensAmount",
          "type": "uint256"
        }
      ],
      "name": "DonationReceived",
      "type": "event"
    },
    {
      "anonymous": false,
      "inputs": [
        {
          "indexed": false,
          "internalType": "address",
          "name": "account",
          "type": "address"
        }
      ],
      "name": "Paused",
      "type": "event"
    },
    {
      "anonymous": false,
      "inputs": [
        {
          "indexed": true,
          "internalType": "address",
          "name": "account",
          "type": "address"
        }
      ],
      "name": "PauserAdded",
      "type": "event"
    },
    {
      "anonymous": false,
      "inputs": [
        {
          "indexed": true,
          "internalType": "address",
          "name": "account",
          "type": "address"
        }
      ],
      "name": "PauserRemoved",
      "type": "event"
    },
    {
      "anonymous": false,
      "inputs": [
        {
          "indexed": true,
          "internalType": "address",
          "name": "_beneficiary",
          "type": "address"
        },
        {
          "indexed": false,
          "internalType": "uint256",
          "name": "_reputationAmount",
          "type": "uint256"
        }
      ],
      "name": "ReputationRedeemed",
      "type": "event"
    },
    {
      "anonymous": false,
      "inputs": [
        {
          "indexed": false,
          "internalType": "address",
          "name": "account",
          "type": "address"
        }
      ],
      "name": "Unpaused",
      "type": "event"
    },
    {
      "payable": true,
      "stateMutability": "payable",
      "type": "fallback"
    },
    {
      "constant": false,
      "inputs": [
        {
          "internalType": "address",
          "name": "account",
          "type": "address"
        }
      ],
      "name": "addPauser",
      "outputs": [],
      "payable": false,
      "stateMutability": "nonpayable",
      "type": "function"
    },
    {
      "constant": true,
      "inputs": [],
      "name": "avatar",
      "outputs": [
        {
          "internalType": "contract Avatar",
          "name": "",
          "type": "address"
        }
      ],
      "payable": false,
      "stateMutability": "view",
      "type": "function"
    },
    {
      "constant": true,
      "inputs": [
        {
          "internalType": "address",
          "name": "",
          "type": "address"
        }
      ],
      "name": "beneficiaries",
      "outputs": [
        {
          "internalType": "uint256",
          "name": "",
          "type": "uint256"
        }
      ],
      "payable": false,
      "stateMutability": "view",
      "type": "function"
    },
    {
      "constant": true,
      "inputs": [],
      "name": "cap",
      "outputs": [
        {
          "internalType": "uint256",
          "name": "",
          "type": "uint256"
        }
      ],
      "payable": false,
      "stateMutability": "view",
      "type": "function"
    },
    {
      "constant": true,
      "inputs": [],
      "name": "endBlock",
      "outputs": [
        {
          "internalType": "uint256",
          "name": "",
          "type": "uint256"
        }
      ],
      "payable": false,
      "stateMutability": "view",
      "type": "function"
    },
    {
      "constant": true,
      "inputs": [
        {
          "internalType": "address",
          "name": "account",
          "type": "address"
        }
      ],
      "name": "isPauser",
      "outputs": [
        {
          "internalType": "bool",
          "name": "",
          "type": "bool"
        }
      ],
      "payable": false,
      "stateMutability": "view",
      "type": "function"
    },
    {
      "constant": false,
      "inputs": [],
      "name": "pause",
      "outputs": [],
      "payable": false,
      "stateMutability": "nonpayable",
      "type": "function"
    },
    {
      "constant": true,
      "inputs": [],
      "name": "paused",
      "outputs": [
        {
          "internalType": "bool",
          "name": "",
          "type": "bool"
        }
      ],
      "payable": false,
      "stateMutability": "view",
      "type": "function"
    },
    {
      "constant": true,
      "inputs": [],
      "name": "price",
      "outputs": [
        {
          "internalType": "uint256",
          "name": "",
          "type": "uint256"
        }
      ],
      "payable": false,
      "stateMutability": "view",
      "type": "function"
    },
    {
      "constant": false,
      "inputs": [],
      "name": "renouncePauser",
      "outputs": [],
      "payable": false,
      "stateMutability": "nonpayable",
      "type": "function"
    },
    {
      "constant": true,
      "inputs": [],
      "name": "startBlock",
      "outputs": [
        {
          "internalType": "uint256",
          "name": "",
          "type": "uint256"
        }
      ],
      "payable": false,
      "stateMutability": "view",
      "type": "function"
    },
    {
      "constant": true,
      "inputs": [],
      "name": "totalEthRaised",
      "outputs": [
        {
          "internalType": "uint256",
          "name": "",
          "type": "uint256"
        }
      ],
      "payable": false,
      "stateMutability": "view",
      "type": "function"
    },
    {
      "constant": true,
      "inputs": [],
      "name": "totalRepForDonators",
      "outputs": [
        {
          "internalType": "uint256",
          "name": "",
          "type": "uint256"
        }
      ],
      "payable": false,
      "stateMutability": "view",
      "type": "function"
    },
    {
      "constant": false,
      "inputs": [],
      "name": "unpause",
      "outputs": [],
      "payable": false,
      "stateMutability": "nonpayable",
      "type": "function"
    },
    {
      "constant": false,
      "inputs": [
        {
          "internalType": "contract Avatar",
          "name": "_avatar",
          "type": "address"
        },
        {
          "internalType": "uint256",
          "name": "_cap",
          "type": "uint256"
        },
        {
          "internalType": "uint256",
          "name": "_price",
          "type": "uint256"
        },
        {
          "internalType": "uint256",
          "name": "_startBlock",
          "type": "uint256"
        },
        {
          "internalType": "uint256",
          "name": "_endBlock",
          "type": "uint256"
        },
        {
          "internalType": "uint256",
          "name": "_totalRepForDonators",
          "type": "uint256"
        }
      ],
      "name": "initialize",
      "outputs": [],
      "payable": false,
      "stateMutability": "nonpayable",
      "type": "function"
    },
    {
      "constant": true,
      "inputs": [],
      "name": "isActive",
      "outputs": [
        {
          "internalType": "bool",
          "name": "",
          "type": "bool"
        }
      ],
      "payable": false,
      "stateMutability": "view",
      "type": "function"
    },
    {
      "constant": false,
      "inputs": [
        {
          "internalType": "address payable",
          "name": "_beneficiary",
          "type": "address"
        }
      ],
      "name": "donate",
      "outputs": [
        {
          "internalType": "uint256",
          "name": "",
          "type": "uint256"
        }
      ],
      "payable": true,
      "stateMutability": "payable",
      "type": "function"
    },
    {
      "constant": false,
      "inputs": [
        {
          "internalType": "address",
          "name": "_beneficiary",
          "type": "address"
        }
      ],
      "name": "redeemReputation",
      "outputs": [
        {
          "internalType": "uint256",
          "name": "",
          "type": "uint256"
        }
      ],
      "payable": false,
      "stateMutability": "nonpayable",
      "type": "function"
    }
  ],
  "bytecode": "0x60806040526100266100186001600160e01b0361003516565b6001600160e01b0361003916565b6001805460ff191690556101ae565b3390565b61005181600061008860201b6110c01790919060201c565b6040516001600160a01b038216907f6719d08c1888103bea251a4ed56406bd0c3e69723c8a1686e017e7bbe159b6f890600090a250565b61009b82826001600160e01b0361012c16565b1561010757604080517f08c379a000000000000000000000000000000000000000000000000000000000815260206004820152601f60248201527f526f6c65733a206163636f756e7420616c72656164792068617320726f6c6500604482015290519081900360640190fd5b6001600160a01b0316600090815260209190915260409020805460ff19166001179055565b60006001600160a01b03821661018e576040517f08c379a0000000000000000000000000000000000000000000000000000000008152600401808060200182810382526022815260200180620014146022913960400191505060405180910390fd5b506001600160a01b03166000908152602091909152604090205460ff1690565b61125680620001be6000396000f3fe6080604052600436106101085760003560e01c80635aef7de611610095578063748c3d5011610064578063748c3d501461035e57806382dc1ec4146103735780638456cb59146103a6578063a035b1fe146103bb578063c9e904be146103d057610108565b80635aef7de6146102d05780635c975abb146103015780636ef8d66d146103165780637271bb401461032b57610108565b8063355274ea116100dc578063355274ea1461020d5780633f4ba83a1461022257806345ff4c801461023757806346fbf68e1461028857806348cd4cb1146102bb57610108565b8062362a9514610164578063015677391461019c578063083c6323146101cf57806322f3e2d4146101e4575b610111336103e5565b610162576040805162461bcd60e51b815260206004820152601f60248201527f446f6e6174696f6e206d7573742062652067726561746572207468616e203000604482015290519081900360640190fd5b005b61018a6004803603602081101561017a57600080fd5b50356001600160a01b03166103e5565b60408051918252519081900360200190f35b3480156101a857600080fd5b5061018a600480360360208110156101bf57600080fd5b50356001600160a01b0316610764565b3480156101db57600080fd5b5061018a610776565b3480156101f057600080fd5b506101f961077c565b604080519115158252519081900360200190f35b34801561021957600080fd5b5061018a6107ba565b34801561022e57600080fd5b506101626107c0565b34801561024357600080fd5b50610162600480360360c081101561025a57600080fd5b506001600160a01b038135169060208101359060408101359060608101359060808101359060a001356108a9565b34801561029457600080fd5b506101f9600480360360208110156102ab57600080fd5b50356001600160a01b0316610939565b3480156102c757600080fd5b5061018a610951565b3480156102dc57600080fd5b506102e5610957565b604080516001600160a01b039092168252519081900360200190f35b34801561030d57600080fd5b506101f961096b565b34801561032257600080fd5b50610162610974565b34801561033757600080fd5b5061018a6004803603602081101561034e57600080fd5b50356001600160a01b0316610986565b34801561036a57600080fd5b5061018a610c54565b34801561037f57600080fd5b506101626004803603602081101561039657600080fd5b50356001600160a01b0316610c5a565b3480156103b257600080fd5b50610162610cac565b3480156103c757600080fd5b5061018a610d72565b3480156103dc57600080fd5b5061018a610d78565b60015460009060ff1615610433576040805162461bcd60e51b815260206004820152601060248201526f14185d5cd8589b194e881c185d5cd95960821b604482015290519081900360640190fd5b61043b61077c565b610480576040805162461bcd60e51b815260206004820152601160248201527049434f206973206e6f742061637469766560781b604482015290519081900360640190fd5b600034116104bf5760405162461bcd60e51b81526004018080602001828103825260268152602001806111d66026913960400191505060405180910390fd5b6000806104d9600854600254610d7e90919063ffffffff16565b34111561050e576008546002546104f59163ffffffff610d7e16565b9150610507348363ffffffff610d7e16565b9050610512565b3491505b600061052960035484610dc790919063ffffffff16565b60088054850190556001600160a01b03808716600090815260076020526040808220805488019055600154905193945061010090049091169185156108fc0291869190818181858888f19350505050158015610589573d6000803e3d6000fd5b506001809054906101000a90046001600160a01b03166001600160a01b0316638da5cb5b6040518163ffffffff1660e01b815260040160206040518083038186803b1580156105d757600080fd5b505afa1580156105eb573d6000803e3d6000fd5b505050506040513d602081101561060157600080fd5b505160015460408051633203f21960e11b8152600481018590526001600160a01b0389811660248301526101009093048316604482015290519190921691636407e4329160648083019260209291908290030181600087803b15801561066657600080fd5b505af115801561067a573d6000803e3d6000fd5b505050506040513d602081101561069057600080fd5b50516106db576040805162461bcd60e51b81526020600482015260156024820152744661696c656420746f206d696e7420746f6b656e7360581b604482015290519081900360640190fd5b8115610719576040516001600160a01b0386169083156108fc029084906000818181858888f19350505050158015610717573d6000803e3d6000fd5b505b604080518481526020810183905281516001600160a01b038816927f4b0304ab2f313234b1cea012339c8f8c3bf2c8bb357d81a579cfdb35d2e3d030928290030190a2949350505050565b60076020526000908152604090205481565b60055481565b600060025460085410610791575060006107b7565b60055443106107a2575060006107b7565b60045443116107b3575060006107b7565b5060015b90565b60025481565b6107d06107cb610e20565b610939565b61080b5760405162461bcd60e51b81526004018080602001828103825260308152602001806111426030913960400191505060405180910390fd5b60015460ff16610859576040805162461bcd60e51b815260206004820152601460248201527314185d5cd8589b194e881b9bdd081c185d5cd95960621b604482015290519081900360640190fd5b6001805460ff191690557f5db9ee0a495bf2e6ff9c91a7834c1ba4fdd244a5e8aa4e537bd38aeae4b073aa61088c610e20565b604080516001600160a01b039092168252519081900360200190a1565b846108fb576040805162461bcd60e51b815260206004820152601d60248201527f636170206d7573742062652067726561746572207468616e207a65726f000000604482015290519081900360640190fd5b600180546001600160a01b0390971661010002610100600160a81b031990971696909617909555600293909355600391909155600455600555600655565b600061094b818363ffffffff610e2416565b92915050565b60045481565b60015461010090046001600160a01b031681565b60015460ff1690565b61098461097f610e20565b610e8b565b565b60015460009060ff16156109d4576040805162461bcd60e51b815260206004820152601060248201526f14185d5cd8589b194e881c185d5cd95960821b604482015290519081900360640190fd5b6109dc61077c565b15610a24576040805162461bcd60e51b815260206004820152601360248201527249434f206973207374696c6c2061637469766560681b604482015290519081900360640190fd5b6001600160a01b03821660009081526007602052604090205480610a795760405162461bcd60e51b81526004018080602001828103825260268152602001806111fc6026913960400191505060405180910390fd5b6000610aa282610a96600854600654610ed390919063ffffffff16565b9063ffffffff610dc716565b6001600160a01b038086166000908152600760209081526040808320929092556001548251638da5cb5b60e01b81529251949550610100900490921692638da5cb5b92600480840193919291829003018186803b158015610b0257600080fd5b505afa158015610b16573d6000803e3d6000fd5b505050506040513d6020811015610b2c57600080fd5b50516001546040805163757cca5960e11b8152600481018590526001600160a01b038881166024830152610100909304831660448201529051919092169163eaf994b29160648083019260209291908290030181600087803b158015610b9157600080fd5b505af1158015610ba5573d6000803e3d6000fd5b505050506040513d6020811015610bbb57600080fd5b5051610c0e576040805162461bcd60e51b815260206004820152601960248201527f4661696c656420746f206d696e742072657075746174696f6e00000000000000604482015290519081900360640190fd5b6040805182815290516001600160a01b038616917fa00cace86c6c9ef49d9c7ab35ae117692761207f9f165ba5ab7218d981ca002d919081900360200190a29392505050565b60065481565b610c656107cb610e20565b610ca05760405162461bcd60e51b81526004018080602001828103825260308152602001806111426030913960400191505060405180910390fd5b610ca981610f15565b50565b610cb76107cb610e20565b610cf25760405162461bcd60e51b81526004018080602001828103825260308152602001806111426030913960400191505060405180910390fd5b60015460ff1615610d3d576040805162461bcd60e51b815260206004820152601060248201526f14185d5cd8589b194e881c185d5cd95960821b604482015290519081900360640190fd5b6001805460ff1916811790557f62e78cea01bee320cd4e420270b5ea74000d11b0c9f74754ebdbfc544b05a25861088c610e20565b60035481565b60085481565b6000610dc083836040518060400160405280601e81526020017f536166654d6174683a207375627472616374696f6e206f766572666c6f770000815250610f5d565b9392505050565b600082610dd65750600061094b565b82820282848281610de357fe5b0414610dc05760405162461bcd60e51b81526004018080602001828103825260218152602001806111936021913960400191505060405180910390fd5b3390565b60006001600160a01b038216610e6b5760405162461bcd60e51b81526004018080602001828103825260228152602001806111b46022913960400191505060405180910390fd5b506001600160a01b03166000908152602091909152604090205460ff1690565b610e9c60008263ffffffff610ff416565b6040516001600160a01b038216907fcd265ebaf09df2871cc7bd4133404a235ba12eff2041bb89d9c714a2621c7c7e90600090a250565b6000610dc083836040518060400160405280601a81526020017f536166654d6174683a206469766973696f6e206279207a65726f00000000000081525061105b565b610f2660008263ffffffff6110c016565b6040516001600160a01b038216907f6719d08c1888103bea251a4ed56406bd0c3e69723c8a1686e017e7bbe159b6f890600090a250565b60008184841115610fec5760405162461bcd60e51b81526004018080602001828103825283818151815260200191508051906020019080838360005b83811015610fb1578181015183820152602001610f99565b50505050905090810190601f168015610fde5780820380516001836020036101000a031916815260200191505b509250505060405180910390fd5b505050900390565b610ffe8282610e24565b6110395760405162461bcd60e51b81526004018080602001828103825260218152602001806111726021913960400191505060405180910390fd5b6001600160a01b0316600090815260209190915260409020805460ff19169055565b600081836110aa5760405162461bcd60e51b8152602060048201818152835160248401528351909283926044909101919085019080838360008315610fb1578181015183820152602001610f99565b5060008385816110b657fe5b0495945050505050565b6110ca8282610e24565b1561111c576040805162461bcd60e51b815260206004820152601f60248201527f526f6c65733a206163636f756e7420616c72656164792068617320726f6c6500604482015290519081900360640190fd5b6001600160a01b0316600090815260209190915260409020805460ff1916600117905556fe506175736572526f6c653a2063616c6c657220646f6573206e6f742068617665207468652050617573657220726f6c65526f6c65733a206163636f756e7420646f6573206e6f74206861766520726f6c65536166654d6174683a206d756c7469706c69636174696f6e206f766572666c6f77526f6c65733a206163636f756e7420697320746865207a65726f20616464726573734e6f20457468657220776572652073656e7420696e2074686520636f6e747269627574696f6e42656e656669636961727920646964206e6f7420646f6e6174656420696e207468652049434fa265627a7a72315820ee6f1cc2eb8d60a215c39ea8dc4aad4b8a7c003b291bfef5e114d0e4ce6f657a64736f6c634300050d0032526f6c65733a206163636f756e7420697320746865207a65726f2061646472657373",
  "source": "pragma solidity 0.5.13;\n\nimport \"@daostack/arc/contracts/controller/Avatar.sol\";\nimport \"@daostack/arc/contracts/controller/Controller.sol\";\nimport \"openzeppelin-solidity/contracts/lifecycle/Pausable.sol\";\n\n\n/**\n * @title A scheme (non-universal) for rasing funds for an oganization in an ICO model\n * @dev An organization can start an ICO using this scheme and \n * offer its tokens and reputation for sale at a fixed rate.\n */\ncontract ICOScheme is Pausable {\n    using SafeMath for uint;\n\n    \n    Avatar public avatar; // Avatar of the organization raising funds\n\n    uint public cap; // Cap in Wei\n    uint public price; // Price represents tokens per 1 Eth\n    uint public startBlock;\n    uint public endBlock;\n\n    uint public totalRepForDonators;\n    mapping(address => uint) public beneficiaries;\n\n    uint public totalEthRaised;\n\n    event DonationReceived(address indexed _beneficiary, uint _incomingEther, uint _tokensAmount);\n    event ReputationRedeemed(address indexed _beneficiary, uint _reputationAmount);\n\n\n    function initialize (\n        Avatar _avatar,\n        uint _cap,\n        uint _price,\n        uint _startBlock,\n        uint _endBlock,\n        uint _totalRepForDonators\n    ) external\n    {\n        require(_cap != 0, \"cap must be greater than zero\");\n        avatar = _avatar;\n        cap = _cap;\n        price = _price;\n        startBlock = _startBlock;\n        endBlock = _endBlock;\n        totalRepForDonators = _totalRepForDonators;\n    }\n\n    /**\n    * @dev Fallback function, when ether is sent it will donate to the ICO.\n    * The ether will be returned if the donation is failed.\n    */\n    function () external payable {\n        // Return ether if couldn't donate.\n        require(donate(msg.sender) != 0, \"Donation must be greater than 0\");\n    } \n\n    /**\n     * @dev Check is the ICO active (halted is still considered active). Active ICO:\n     * 1. The ICO didn't reach it's cap yet.\n     * 2. The current block isn't bigger than the \"endBlock\" & Smaller then the \"startBlock\"\n     * @return bool which represents a successful of the function\n     */\n    function isActive() public view returns(bool) {\n        if (totalEthRaised >= cap) {\n            return false;\n        }\n        if (block.number >= endBlock) {\n            return false;\n        }\n        if (block.number <= startBlock) {\n            return false;\n        }\n\n        return true;\n    }\n\n    /**\n     * @dev Donating ethers to get tokens.\n     * If the donation is higher than the remaining ethers in the \"cap\",\n     * The donator will get the change in ethers.\n     * @param _beneficiary The donator's address - which will receive the ICO's tokens.\n     * @return uint number of tokens minted for the donation.\n     */\n    function donate(address payable _beneficiary) public payable whenNotPaused returns(uint) {\n\n        // Check ICO is active:\n        require(isActive(), \"ICO is not active\");\n\n        require(msg.value > 0, \"No Ether were sent in the contribution\");\n\n        uint incomingEther;\n        uint change;\n\n        // Compute how much tokens to buy:\n        if (msg.value > cap.sub(totalEthRaised)) {\n            incomingEther = cap.sub(totalEthRaised);\n            change = (msg.value).sub(incomingEther);\n        } else {\n            incomingEther = msg.value;\n        }\n\n        uint tokens = incomingEther.mul(price);\n\n        // Update total raised, call event and return amount of tokens bought:\n        totalEthRaised += incomingEther;\n\n        beneficiaries[_beneficiary] = beneficiaries[_beneficiary] + incomingEther;\n\n        // Send ether to the defined address, mint, and send change to beneficiary:\n        address(avatar).transfer(incomingEther);\n\n        require(\n            Controller(avatar.owner()).mintTokens(tokens, _beneficiary, address(avatar)),\n            \"Failed to mint tokens\"\n        );\n        \n        if (change != 0) {\n            _beneficiary.transfer(change);\n        }\n\n        emit DonationReceived(_beneficiary, incomingEther, tokens);\n        \n        return tokens;\n    }\n\n    /**\n     * @dev Redeem reputation in the DAO after the ICO is over.\n     * The beneficiay will get reputation based on his relative donation in the ICO.\n     * @param _beneficiary The beneficiary's address (used when donated ETH) - which will receive the DAO's reputation.\n     * @return uint number of reputation minted for the beneficiary.\n     */\n    function redeemReputation(address _beneficiary) public whenNotPaused returns(uint) {\n        // Check ICO is not active:\n        require(!isActive(), \"ICO is still active\");\n\n        uint beneficiaryDonation = beneficiaries[_beneficiary];\n\n        require(beneficiaryDonation > 0, \"Beneficiary did not donated in the ICO\");\n\n        uint reputation = totalRepForDonators.div(totalEthRaised).mul(beneficiaryDonation);\n\n        beneficiaries[_beneficiary] = 0;\n\n        require(\n            Controller(avatar.owner()).mintReputation(reputation, _beneficiary, address(avatar)),\n            \"Failed to mint reputation\"\n        );\n\n        emit ReputationRedeemed(_beneficiary, reputation);\n\n        return reputation;\n    }\n\n\n}\n",
  "sourcePath": "/Users/shivgupt/Backup/Documents/projects/Github/DAOstack/DAOstack-Hackers-Kit/daico/contracts/ICOScheme.sol",
  "compiler": {
    "name": "solc",
    "version": "0.5.13+commit.5b0b510c.Emscripten.clang"
  },
  "schemaVersion": "3.0.21",
  "updatedAt": "2020-02-04T10:58:32.483Z",
  "devdoc": {
    "details": "An organization can start an ICO using this scheme and  offer its tokens and reputation for sale at a fixed rate.",
    "methods": {
      "donate(address)": {
        "details": "Donating ethers to get tokens. If the donation is higher than the remaining ethers in the \"cap\", The donator will get the change in ethers.",
        "params": {
          "_beneficiary": "The donator's address - which will receive the ICO's tokens."
        },
        "return": "uint number of tokens minted for the donation."
      },
      "isActive()": {
        "details": "Check is the ICO active (halted is still considered active). Active ICO: 1. The ICO didn't reach it's cap yet. 2. The current block isn't bigger than the \"endBlock\" & Smaller then the \"startBlock\"",
        "return": "bool which represents a successful of the function"
      },
      "pause()": {
        "details": "Called by a pauser to pause, triggers stopped state."
      },
      "paused()": {
        "details": "Returns true if the contract is paused, and false otherwise."
      },
      "redeemReputation(address)": {
        "details": "Redeem reputation in the DAO after the ICO is over. The beneficiay will get reputation based on his relative donation in the ICO.",
        "params": {
          "_beneficiary": "The beneficiary's address (used when donated ETH) - which will receive the DAO's reputation."
        },
        "return": "uint number of reputation minted for the beneficiary."
      },
      "unpause()": {
        "details": "Called by a pauser to unpause, returns to normal state."
      }
    },
    "title": "A scheme (non-universal) for rasing funds for an oganization in an ICO model"
  },
  "userdoc": {
    "methods": {}
  }
}