{
  "contractName": "PeepScheme",
  "abi": [
    {
      "inputs": [
        {
          "internalType": "address",
          "name": "_peepethContract",
          "type": "address"
        }
      ],
      "payable": false,
      "stateMutability": "nonpayable",
      "type": "constructor"
    },
    {
      "anonymous": false,
      "inputs": [
        {
          "indexed": true,
          "internalType": "address",
          "name": "_avatar",
          "type": "address"
        },
        {
          "indexed": true,
          "internalType": "bytes32",
          "name": "_proposalId",
          "type": "bytes32"
        },
        {
          "indexed": true,
          "internalType": "address",
          "name": "_intVoteInterface",
          "type": "address"
        },
        {
          "indexed": false,
          "internalType": "address",
          "name": "_proposer",
          "type": "address"
        },
        {
          "indexed": false,
          "internalType": "string",
          "name": "_peepHash",
          "type": "string"
        },
        {
          "indexed": false,
          "internalType": "uint256",
          "name": "_reputationChange",
          "type": "uint256"
        }
      ],
      "name": "NewPeepProposal",
      "type": "event"
    },
    {
      "anonymous": false,
      "inputs": [
        {
          "indexed": true,
          "internalType": "address",
          "name": "_avatar",
          "type": "address"
        },
        {
          "indexed": false,
          "internalType": "bytes16",
          "name": "_name",
          "type": "bytes16"
        },
        {
          "indexed": false,
          "internalType": "string",
          "name": "_ipfsHash",
          "type": "string"
        }
      ],
      "name": "PeepethAccountRegistered",
      "type": "event"
    },
    {
      "anonymous": false,
      "inputs": [
        {
          "indexed": true,
          "internalType": "address",
          "name": "_avatar",
          "type": "address"
        },
        {
          "indexed": true,
          "internalType": "bytes32",
          "name": "_proposalId",
          "type": "bytes32"
        },
        {
          "indexed": false,
          "internalType": "int256",
          "name": "_param",
          "type": "int256"
        }
      ],
      "name": "ProposalExecuted",
      "type": "event"
    },
    {
      "constant": true,
      "inputs": [
        {
          "internalType": "contract IERC20",
          "name": "_stakingToken",
          "type": "address"
        },
        {
          "internalType": "bytes32",
          "name": "_proposalId",
          "type": "bytes32"
        }
      ],
      "name": "balanceOfStakingToken",
      "outputs": [
        {
          "internalType": "uint256",
          "name": "",
          "type": "uint256"
        }
      ],
      "payable": false,
      "stateMutability": "view",
      "type": "function"
    },
    {
      "constant": false,
      "inputs": [
        {
          "internalType": "uint256",
          "name": "_amount",
          "type": "uint256"
        },
        {
          "internalType": "address",
          "name": "_beneficiary",
          "type": "address"
        },
        {
          "internalType": "bytes32",
          "name": "_proposalId",
          "type": "bytes32"
        }
      ],
      "name": "burnReputation",
      "outputs": [
        {
          "internalType": "bool",
          "name": "",
          "type": "bool"
        }
      ],
      "payable": false,
      "stateMutability": "nonpayable",
      "type": "function"
    },
    {
      "constant": true,
      "inputs": [
        {
          "internalType": "bytes32",
          "name": "_proposalId",
          "type": "bytes32"
        }
      ],
      "name": "getTotalReputationSupply",
      "outputs": [
        {
          "internalType": "uint256",
          "name": "",
          "type": "uint256"
        }
      ],
      "payable": false,
      "stateMutability": "view",
      "type": "function"
    },
    {
      "constant": false,
      "inputs": [
        {
          "internalType": "uint256",
          "name": "_amount",
          "type": "uint256"
        },
        {
          "internalType": "address",
          "name": "_beneficiary",
          "type": "address"
        },
        {
          "internalType": "bytes32",
          "name": "_proposalId",
          "type": "bytes32"
        }
      ],
      "name": "mintReputation",
      "outputs": [
        {
          "internalType": "bool",
          "name": "",
          "type": "bool"
        }
      ],
      "payable": false,
      "stateMutability": "nonpayable",
      "type": "function"
    },
    {
      "constant": true,
      "inputs": [
        {
          "internalType": "address",
          "name": "",
          "type": "address"
        },
        {
          "internalType": "bytes32",
          "name": "",
          "type": "bytes32"
        }
      ],
      "name": "organizationsProposals",
      "outputs": [
        {
          "internalType": "address",
          "name": "proposer",
          "type": "address"
        },
        {
          "internalType": "string",
          "name": "peepHash",
          "type": "string"
        },
        {
          "internalType": "uint256",
          "name": "reputationChange",
          "type": "uint256"
        }
      ],
      "payable": false,
      "stateMutability": "view",
      "type": "function"
    },
    {
      "constant": true,
      "inputs": [
        {
          "internalType": "bytes32",
          "name": "",
          "type": "bytes32"
        }
      ],
      "name": "parameters",
      "outputs": [
        {
          "internalType": "bytes32",
          "name": "voteApproveParams",
          "type": "bytes32"
        },
        {
          "internalType": "contract IntVoteInterface",
          "name": "intVote",
          "type": "address"
        }
      ],
      "payable": false,
      "stateMutability": "view",
      "type": "function"
    },
    {
      "constant": true,
      "inputs": [
        {
          "internalType": "address",
          "name": "",
          "type": "address"
        }
      ],
      "name": "peepethAccounts",
      "outputs": [
        {
          "internalType": "bytes16",
          "name": "",
          "type": "bytes16"
        }
      ],
      "payable": false,
      "stateMutability": "view",
      "type": "function"
    },
    {
      "constant": true,
      "inputs": [],
      "name": "peepethContract",
      "outputs": [
        {
          "internalType": "address",
          "name": "",
          "type": "address"
        }
      ],
      "payable": false,
      "stateMutability": "view",
      "type": "function"
    },
    {
      "constant": true,
      "inputs": [
        {
          "internalType": "address",
          "name": "",
          "type": "address"
        },
        {
          "internalType": "bytes32",
          "name": "",
          "type": "bytes32"
        }
      ],
      "name": "proposalsInfo",
      "outputs": [
        {
          "internalType": "uint256",
          "name": "blockNumber",
          "type": "uint256"
        },
        {
          "internalType": "contract Avatar",
          "name": "avatar",
          "type": "address"
        }
      ],
      "payable": false,
      "stateMutability": "view",
      "type": "function"
    },
    {
      "constant": true,
      "inputs": [
        {
          "internalType": "address",
          "name": "_owner",
          "type": "address"
        },
        {
          "internalType": "bytes32",
          "name": "_proposalId",
          "type": "bytes32"
        }
      ],
      "name": "reputationOf",
      "outputs": [
        {
          "internalType": "uint256",
          "name": "",
          "type": "uint256"
        }
      ],
      "payable": false,
      "stateMutability": "view",
      "type": "function"
    },
    {
      "constant": false,
      "inputs": [
        {
          "internalType": "contract IERC20",
          "name": "_stakingToken",
          "type": "address"
        },
        {
          "internalType": "address",
          "name": "_beneficiary",
          "type": "address"
        },
        {
          "internalType": "uint256",
          "name": "_amount",
          "type": "uint256"
        },
        {
          "internalType": "bytes32",
          "name": "_proposalId",
          "type": "bytes32"
        }
      ],
      "name": "stakingTokenTransfer",
      "outputs": [
        {
          "internalType": "bool",
          "name": "",
          "type": "bool"
        }
      ],
      "payable": false,
      "stateMutability": "nonpayable",
      "type": "function"
    },
    {
      "constant": false,
      "inputs": [
        {
          "internalType": "bytes32",
          "name": "_voteApproveParams",
          "type": "bytes32"
        },
        {
          "internalType": "contract IntVoteInterface",
          "name": "_intVote",
          "type": "address"
        }
      ],
      "name": "setParameters",
      "outputs": [
        {
          "internalType": "bytes32",
          "name": "",
          "type": "bytes32"
        }
      ],
      "payable": false,
      "stateMutability": "nonpayable",
      "type": "function"
    },
    {
      "constant": true,
      "inputs": [
        {
          "internalType": "bytes32",
          "name": "_voteApproveParams",
          "type": "bytes32"
        },
        {
          "internalType": "contract IntVoteInterface",
          "name": "_intVote",
          "type": "address"
        }
      ],
      "name": "getParametersHash",
      "outputs": [
        {
          "internalType": "bytes32",
          "name": "",
          "type": "bytes32"
        }
      ],
      "payable": false,
      "stateMutability": "pure",
      "type": "function"
    },
    {
      "constant": false,
      "inputs": [
        {
          "internalType": "contract Avatar",
          "name": "_avatar",
          "type": "address"
        },
        {
          "internalType": "bytes16",
          "name": "_name",
          "type": "bytes16"
        },
        {
          "internalType": "string",
          "name": "_ipfsHash",
          "type": "string"
        }
      ],
      "name": "registerPeepethAccount",
      "outputs": [],
      "payable": false,
      "stateMutability": "nonpayable",
      "type": "function"
    },
    {
      "constant": false,
      "inputs": [
        {
          "internalType": "contract Avatar",
          "name": "_avatar",
          "type": "address"
        },
        {
          "internalType": "string",
          "name": "_peepHash",
          "type": "string"
        },
        {
          "internalType": "uint256",
          "name": "_reputationChange",
          "type": "uint256"
        }
      ],
      "name": "proposePeep",
      "outputs": [
        {
          "internalType": "bytes32",
          "name": "",
          "type": "bytes32"
        }
      ],
      "payable": false,
      "stateMutability": "nonpayable",
      "type": "function"
    },
    {
      "constant": false,
      "inputs": [
        {
          "internalType": "bytes32",
          "name": "_proposalId",
          "type": "bytes32"
        },
        {
          "internalType": "int256",
          "name": "_param",
          "type": "int256"
        }
      ],
      "name": "executeProposal",
      "outputs": [
        {
          "internalType": "bool",
          "name": "",
          "type": "bool"
        }
      ],
      "payable": false,
      "stateMutability": "nonpayable",
      "type": "function"
    }
  ],
  "bytecode": "0x608060405234801561001057600080fd5b50604051611fe1380380611fe18339818101604052602081101561003357600080fd5b5051600180546001600160a01b0319166001600160a01b03909216919091179055611f7e806100636000396000f3fe608060405234801561001057600080fd5b50600436106101005760003560e01c80639588378e11610097578063d29b5d2f11610066578063d29b5d2f14610474578063d8561eae146104a6578063f81f8bf6146104ca578063fd4c375d146104fc57610100565b80639588378e146103b85780639d4c162d146103e4578063b551c3731461041b578063bea75f281461043857610100565b806360bdbb3f116100d357806360bdbb3f1461027e57806368e14dac146102aa5780636b8eb403146102d65780636f889e301461030257610100565b8063025068041461010557806306e3a9781461014357806317867852146101fd5780632453732a14610240575b600080fd5b6101226004803603602081101561011b57600080fd5b50356105c1565b604080519283526001600160a01b0390911660208301528051918290030190f35b61016f6004803603604081101561015957600080fd5b506001600160a01b0381351690602001356105e3565b604080516001600160a01b0385168152908101829052606060208083018281528551928401929092528451608084019186019080838360005b838110156101c05781810151838201526020016101a8565b50505050905090810190601f1680156101ed5780820380516001836020036101000a031916815260200191505b5094505050505060405180910390f35b6102236004803603602081101561021357600080fd5b50356001600160a01b03166106a1565b604080516001600160801b03199092168252519081900360200190f35b61026c6004803603604081101561025657600080fd5b50803590602001356001600160a01b03166106b6565b60408051918252519081900360200190f35b6101226004803603604081101561029457600080fd5b506001600160a01b0381351690602001356106f8565b61026c600480360360408110156102c057600080fd5b50803590602001356001600160a01b0316610722565b61026c600480360360408110156102ec57600080fd5b506001600160a01b038135169060200135610767565b61026c6004803603606081101561031857600080fd5b6001600160a01b038235169190810190604081016020820135600160201b81111561034257600080fd5b82018360208201111561035457600080fd5b803590602001918460018302840111600160201b8311171561037557600080fd5b91908080601f0160208091040260200160405190810160405280939291908181526020018383808284376000920191909152509295505091359250610825915050565b61026c600480360360408110156103ce57600080fd5b506001600160a01b038135169060200135610a53565b610407600480360360408110156103fa57600080fd5b5080359060200135610b61565b604080519115158252519081900360200190f35b61026c6004803603602081101561043157600080fd5b5035611181565b6104076004803603608081101561044e57600080fd5b506001600160a01b038135811691602081013590911690604081013590606001356112bb565b6104076004803603606081101561048a57600080fd5b508035906001600160a01b03602082013516906040013561145d565b6104ae6115f6565b604080516001600160a01b039092168252519081900360200190f35b610407600480360360608110156104e057600080fd5b508035906001600160a01b036020820135169060400135611605565b6105bf6004803603606081101561051257600080fd5b6001600160a01b03823516916001600160801b031960208201351691810190606081016040820135600160201b81111561054b57600080fd5b82018360208201111561055d57600080fd5b803590602001918460018302840111600160201b8311171561057e57600080fd5b91908080601f016020809104026020016040519081016040528093929190818152602001838380828437600092019190915250929550611766945050505050565b005b600360205260009081526040902080546001909101546001600160a01b031682565b600260208181526000938452604080852082529284529282902080546001808301805486516101009382161593909302600019011694909404601f81018790048702820187019095528481526001600160a01b039091169491939092918301828280156106915780601f1061066657610100808354040283529160200191610691565b820191906000526020600020905b81548152906001019060200180831161067457829003601f168201915b5050505050908060020154905083565b60046020526000908152604090205460801b81565b6040805160208082018590526bffffffffffffffffffffffff19606085901b168284015282516034818403018152605490920190925280519101205b92915050565b6000602081815292815260408082209093529081522080546001909101546001600160a01b031682565b60008061072f84846106b6565b600081815260036020526040902085815560010180546001600160a01b0386166001600160a01b031990911617905591505092915050565b336000908152602081815260408083208484529091528120600101546001600160a01b03168061079b5760009150506106f2565b836001600160a01b03166370a08231826040518263ffffffff1660e01b815260040180826001600160a01b03166001600160a01b0316815260200191505060206040518083038186803b1580156107f157600080fd5b505afa158015610805573d6000803e3d6000fd5b505050506040513d602081101561081b57600080fd5b5051949350505050565b600061082f611dda565b6003600061083c87611bbf565b8152602080820192909252604090810160009081208251808401845281548082526001909201546001600160a01b039081168287018190528551634439bdaf60e11b8152600360048201526024810194909452336044850152908b166064840152935190955091936388737b5e9260848084019382900301818787803b1580156108c557600080fd5b505af11580156108d9573d6000803e3d6000fd5b505050506040513d60208110156108ef57600080fd5b505190506108fb611df1565b506040805160608101825233815260208082018881528284018890526001600160a01b038a8116600090815260028452858120878252845294909420835181546001600160a01b0319169516949094178455518051929384939092610967926001850192910190611e1b565b506040820151816002015590505082602001516001600160a01b031682886001600160a01b03167f7046fb6d609bf79af5ea608e2d72a09e4655891361b6f310d0401dc506e85cfd338a8a60405180846001600160a01b03166001600160a01b0316815260200180602001838152602001828103825284818151815260200191508051906020019080838360005b83811015610a0d5781810151838201526020016109f5565b50505050905090810190601f168015610a3a5780820380516001836020036101000a031916815260200191505b5094505050505060405180910390a45095945050505050565b6000610a5d611dda565b5033600090815260208181526040808320858452825291829020825180840190935280548352600101546001600160a01b0316908201819052610aa45760009150506106f2565b80602001516001600160a01b03166389ae1c906040518163ffffffff1660e01b815260040160206040518083038186803b158015610ae157600080fd5b505afa158015610af5573d6000803e3d6000fd5b505050506040513d6020811015610b0b57600080fd5b505181516040805163277166bf60e11b81526001600160a01b038881166004830152602482019390935290519190921691634ee2cd7e916044808301926020929190829003018186803b1580156107f157600080fd5b3360009081526020818152604080832085845290915281206001015483906001600160a01b0316610bce576040805162461bcd60e51b81526020600482015260126024820152716f6e6c7920566f74696e674d616368696e6560701b604482015290519081900360640190fd5b3360009081526020818152604080832087845290915290206001908101546001600160a01b0316908414156110ec57610c05611df1565b6001600160a01b0382811660009081526002602081815260408084208b85528252928390208351606081018552815490951685526001808201805486516101009382161593909302600019011694909404601f81018490048402820184019095528481529093858301939192830182828015610cc25780601f10610c9757610100808354040283529160200191610cc2565b820191906000526020600020905b815481529060010190602001808311610ca557829003601f168201915b5050505050815260200160028201548152505090506000826001600160a01b0316638da5cb5b6040518163ffffffff1660e01b815260040160206040518083038186803b158015610d1257600080fd5b505afa158015610d26573d6000803e3d6000fd5b505050506040513d6020811015610d3c57600080fd5b5051600154602084810151604051602481018381528251604483015282519596506001600160a01b038088169663d1b7089a9690911694638ee93cf360e01b9493839260649091019185019080838360005b83811015610da6578181015183820152602001610d8e565b50505050905090810190601f168015610dd35780820380516001836020036101000a031916815260200191505b5060408051601f198184030181529181526020820180516001600160e01b03166001600160e01b0319978816178152905160e089901b90961686526001600160a01b0380881660048801908152908d166044880152600060648801819052608060248901908152845160848a0152845194988f9850919650919450909260a49091019190808383885b83811015610e74578181015183820152602001610e5c565b50505050905090810190601f168015610ea15780820380516001836020036101000a031916815260200191505b5095505050505050600060405180830381600087803b158015610ec357600080fd5b505af1158015610ed7573d6000803e3d6000fd5b505050506040513d6000823e601f3d908101601f191682016040908152811015610f0057600080fd5b815160208301805160405192949293830192919084600160201b821115610f2657600080fd5b908301906020820185811115610f3b57600080fd5b8251600160201b811182820188101715610f5457600080fd5b82525081516020918201929091019080838360005b83811015610f81578181015183820152602001610f69565b50505050905090810190601f168015610fae5780820380516001836020036101000a031916815260200191505b506040525050505050826001600160a01b0316638da5cb5b6040518163ffffffff1660e01b815260040160206040518083038186803b158015610ff057600080fd5b505afa158015611004573d6000803e3d6000fd5b505050506040513d602081101561101a57600080fd5b50516040808401518451825163757cca5960e11b815260048101929092526001600160a01b03908116602483015286811660448301529151919092169163eaf994b29160648083019260209291908290030181600087803b15801561107e57600080fd5b505af1158015611092573d6000803e3d6000fd5b505050506040513d60208110156110a857600080fd5b50516110e55760405162461bcd60e51b8152600401808060200182810382526025815260200180611efe6025913960400191505060405180910390fd5b5050611136565b6001600160a01b0381166000908152600260209081526040808320888452909152812080546001600160a01b03191681559061112b6001830182611e99565b600282016000905550505b60408051858152905186916001600160a01b038416917fd2632e80f5364f02aded1c64e8a04637b7c8bb9c2db2bedf4b6ac47c013acbc09181900360200190a3506001949350505050565b600061118b611dda565b5033600090815260208181526040808320858452825291829020825180840190935280548352600101546001600160a01b03169082018190526111d25760009150506112b6565b80602001516001600160a01b03166389ae1c906040518163ffffffff1660e01b815260040160206040518083038186803b15801561120f57600080fd5b505afa158015611223573d6000803e3d6000fd5b505050506040513d602081101561123957600080fd5b5051815160408051630981b24d60e41b81526004810192909252516001600160a01b039092169163981b24d091602480820192602092909190829003018186803b15801561128657600080fd5b505afa15801561129a573d6000803e3d6000fd5b505050506040513d60208110156112b057600080fd5b50519150505b919050565b3360009081526020818152604080832084845290915281206001015482906001600160a01b0316611328576040805162461bcd60e51b81526020600482015260126024820152716f6e6c7920566f74696e674d616368696e6560701b604482015290519081900360640190fd5b336000908152602081815260408083208684529091529020600101546001600160a01b03168061135c576000925050611454565b806001600160a01b0316638da5cb5b6040518163ffffffff1660e01b815260040160206040518083038186803b15801561139557600080fd5b505afa1580156113a9573d6000803e3d6000fd5b505050506040513d60208110156113bf57600080fd5b50516040805163b9a04cdd60e01b81526001600160a01b038a8116600483015289811660248301526044820189905284811660648301529151919092169163b9a04cdd9160848083019260209291908290030181600087803b15801561142457600080fd5b505af1158015611438573d6000803e3d6000fd5b505050506040513d602081101561144e57600080fd5b50519250505b50949350505050565b3360009081526020818152604080832084845290915281206001015482906001600160a01b03166114ca576040805162461bcd60e51b81526020600482015260126024820152716f6e6c7920566f74696e674d616368696e6560701b604482015290519081900360640190fd5b336000908152602081815260408083208684529091529020600101546001600160a01b0316806114fe5760009250506115ee565b806001600160a01b0316638da5cb5b6040518163ffffffff1660e01b815260040160206040518083038186803b15801561153757600080fd5b505afa15801561154b573d6000803e3d6000fd5b505050506040513d602081101561156157600080fd5b50516040805163757cca5960e11b8152600481018990526001600160a01b03888116602483015284811660448301529151919092169163eaf994b29160648083019260209291908290030181600087803b1580156115be57600080fd5b505af11580156115d2573d6000803e3d6000fd5b505050506040513d60208110156115e857600080fd5b50519250505b509392505050565b6001546001600160a01b031681565b3360009081526020818152604080832084845290915281206001015482906001600160a01b0316611672576040805162461bcd60e51b81526020600482015260126024820152716f6e6c7920566f74696e674d616368696e6560701b604482015290519081900360640190fd5b336000908152602081815260408083208684529091529020600101546001600160a01b0316806116a65760009250506115ee565b806001600160a01b0316638da5cb5b6040518163ffffffff1660e01b815260040160206040518083038186803b1580156116df57600080fd5b505afa1580156116f3573d6000803e3d6000fd5b505050506040513d602081101561170957600080fd5b505160408051630dd29a4f60e31b8152600481018990526001600160a01b038881166024830152848116604483015291519190921691636e94d2789160648083019260209291908290030181600087803b1580156115be57600080fd5b6001600160a01b03831660009081526004602052604090205460801b6001600160801b031916156117c85760405162461bcd60e51b8152600401808060200182810382526027815260200180611f236027913960400191505060405180910390fd5b6001600160a01b038316600081815260046020818152604080842080546001600160801b031916608089901c1790558051638da5cb5b60e01b81529051939493638da5cb5b938281019392829003018186803b15801561182757600080fd5b505afa15801561183b573d6000803e3d6000fd5b505050506040513d602081101561185157600080fd5b5051600154604080516001600160801b0319871660248201908152604482019283528651606483015286519495506001600160a01b038087169563d1b7089a95909116936347c94e2560e11b938a938a9390929160840190602085019080838360005b838110156118cc5781810151838201526020016118b4565b50505050905090810190601f1680156118f95780820380516001836020036101000a031916815260200191505b509350505050604051602081830303815290604052906001600160e01b0319166020820180516001600160e01b0383818316178352505050508760006040518563ffffffff1660e01b815260040180856001600160a01b03166001600160a01b0316815260200180602001846001600160a01b03166001600160a01b03168152602001838152602001828103825285818151815260200191508051906020019080838360005b838110156119b757818101518382015260200161199f565b50505050905090810190601f1680156119e45780820380516001836020036101000a031916815260200191505b5095505050505050600060405180830381600087803b158015611a0657600080fd5b505af1158015611a1a573d6000803e3d6000fd5b505050506040513d6000823e601f3d908101601f191682016040908152811015611a4357600080fd5b815160208301805160405192949293830192919084600160201b821115611a6957600080fd5b908301906020820185811115611a7e57600080fd5b8251600160201b811182820188101715611a9757600080fd5b82525081516020918201929091019080838360005b83811015611ac4578181015183820152602001611aac565b50505050905090810190601f168015611af15780820380516001836020036101000a031916815260200191505b506040525050505050836001600160a01b03167fac40a5fa4563e4e0bcd52be8a5e3a2ddff8773ddbed96cf7e84d389280885afd848460405180836001600160801b0319166001600160801b031916815260200180602001828103825283818151815260200191508051906020019080838360005b83811015611b7e578181015183820152602001611b66565b50505050905090810190601f168015611bab5780820380516001836020036101000a031916815260200191505b50935050505060405180910390a250505050565b6000816001600160a01b0316638da5cb5b6040518163ffffffff1660e01b815260040160206040518083038186803b158015611bfa57600080fd5b505afa158015611c0e573d6000803e3d6000fd5b505050506040513d6020811015611c2457600080fd5b505160408051639be2faed60e01b81523060048201526001600160a01b03858116602483015291519190921691639be2faed916044808301926020929190829003018186803b158015611c7657600080fd5b505afa158015611c8a573d6000803e3d6000fd5b505050506040513d6020811015611ca057600080fd5b5051611cf3576040805162461bcd60e51b815260206004820152601860248201527f736368656d65206973206e6f7420726567697374657265640000000000000000604482015290519081900360640190fd5b816001600160a01b0316638da5cb5b6040518163ffffffff1660e01b815260040160206040518083038186803b158015611d2c57600080fd5b505afa158015611d40573d6000803e3d6000fd5b505050506040513d6020811015611d5657600080fd5b505160408051630389aac160e31b81523060048201526001600160a01b03858116602483015291519190921691631c4d5608916044808301926020929190829003018186803b158015611da857600080fd5b505afa158015611dbc573d6000803e3d6000fd5b505050506040513d6020811015611dd257600080fd5b505192915050565b604080518082019091526000808252602082015290565b604051806060016040528060006001600160a01b0316815260200160608152602001600081525090565b828054600181600116156101000203166002900490600052602060002090601f016020900481019282601f10611e5c57805160ff1916838001178555611e89565b82800160010185558215611e89579182015b82811115611e89578251825591602001919060010190611e6e565b50611e95929150611ee0565b5090565b50805460018160011615610100020316600290046000825580601f10611ebf5750611edd565b601f016020900490600052602060002090810190611edd9190611ee0565b50565b611efa91905b80821115611e955760008155600101611ee6565b9056fe4661696c656420746f206d696e742072657075746174696f6e20746f2070726f706f736572205370656369666965642061766174617220697320616c72656164792072656769737465726564a265627a7a72315820a02abcd2ad806eb5197acb39741092f9e65289b589827055ba48ed718963f9a664736f6c634300050d0032",
  "source": "pragma solidity 0.5.13;\n\nimport \"@daostack/infra/contracts/votingMachines/ProposalExecuteInterface.sol\";\nimport \"@daostack/arc/contracts/universalSchemes/UniversalScheme.sol\";\nimport \"@daostack/arc/contracts/controller/Controller.sol\";\nimport \"@daostack/arc/contracts/votingMachines/VotingMachineCallbacks.sol\";\nimport \"./PeepethInterface.sol\";\n\n\n/**\n * @title A universal scheme for proposing \"peeps\" and rewarding proposers with reputation\n * @dev An agent can propose the organization a \"peep\" to send.\n * if accepted the peep will be posted by the organization\n * and the proposer will receive reputation.\n */\ncontract PeepScheme is UniversalScheme, VotingMachineCallbacks, ProposalExecuteInterface {\n\n    // Peepeth contract address on the Ethereum mainnet\n    // address public constant PEEPETH = 0xfa28eC7198028438514b49a3CF353BcA5541ce1d;\n    \n    // Peepeth contract address on the Ethereum Rinkeby testnet\n    // address public constant PEEPETH_RINKEBY = 0xfA804eED9405f89CF48Da33e23ea4BE48de933C5;\n\n    // Peepeth contract address on the Ethereum Kovan testnet\n    // address public constant PEEPETH_KOVAN =  0xb704a46B605277c718A68D30Cb731c8818217eC7;\n\n    address public peepethContract;\n    \n    event PeepethAccountRegistered(address indexed _avatar, bytes16 _name, string _ipfsHash);\n\n    event NewPeepProposal(\n        address indexed _avatar,\n        bytes32 indexed _proposalId,\n        address indexed _intVoteInterface,\n        address _proposer,\n        string _peepHash,\n        uint _reputationChange\n    );\n\n    event ProposalExecuted(address indexed _avatar, bytes32 indexed _proposalId, int _param);\n\n    // A struct representing a proposal to send a new Peep by the avatar of an organization\n    struct PeepProposal {\n        address proposer; // The proposer of the tweet\n        string peepHash; // The IPFS hash of the peep to post\n        uint reputationChange; // Organization reputation reward requested by the proposer.\n    }\n\n    // A mapping from the organization (Avatar) address to the saved proposals of the organization:\n    mapping(address=>mapping(bytes32=>PeepProposal)) public organizationsProposals;\n\n    // A struct representing organization parameters in the Universal Scheme.\n    // The parameters represent a specific configuration set for an organization.\n    // The parameters should be approved annd registered in the controller of the organization.\n    struct Parameters {\n\n        bytes32 voteApproveParams; // The hash of the approved parameters of a Voting Machine for a specific organization.\n                                    // Used in the voting machine as the key in the parameters mapping to \n                                    // Note that these settings should be registered in the Voting Machine prior of using this scheme.\n                                    // You can see how to register the parameters by looking on `2_deploy_dao.js` under the `migrations` folder at line #64.\n        \n        IntVoteInterface intVote; // The address of the Voting Machine to be used to propose and vote on a proposal.\n    }\n    // A mapping from hashes to parameters (use to store a particular configuration on the controller)\n    mapping(bytes32 => Parameters) public parameters;\n    \n    // A mapping from the organization (Avatar) address to its Peepeth account name.\n    mapping(address => bytes16) public peepethAccounts;\n\n    constructor(address _peepethContract) public {\n        peepethContract = _peepethContract;\n    }\n\n    /**\n    * @dev hash the parameters, save them if necessary, and return the hash value\n    */\n    function setParameters(\n        bytes32 _voteApproveParams,\n        IntVoteInterface _intVote\n    ) public returns(bytes32)\n    {\n        bytes32 paramsHash = getParametersHash(\n            _voteApproveParams,\n            _intVote\n        );\n        parameters[paramsHash].voteApproveParams = _voteApproveParams;\n        parameters[paramsHash].intVote = _intVote;\n        return paramsHash;\n    }\n\n    /**\n    * @dev hash the parameters and return the hash\n    */\n    function getParametersHash(\n        bytes32 _voteApproveParams,\n        IntVoteInterface _intVote\n    ) public pure returns(bytes32)\n    {\n        return (keccak256(abi.encodePacked(_voteApproveParams, _intVote)));\n    }\n    \n    /**\n    * @dev Registers an Avatar as a Peepeth account owner\n    * @param _avatar the avatar of the organization to rregister to Peepeth\n    * @param _name the username for the avatar's account\n    * @param _ipfsHash the IPFS hash for the registration message on IPFS. An example for this message can be found at: https://ipfs.io/ipfs/QmQg5xX9RCWT8dxNnJV6WLSC3qQJXgac2vfcALh8ymmrL3\n    */\n    function registerPeepethAccount(Avatar _avatar, bytes16 _name, string memory _ipfsHash) public {\n        // Check that the avater did not already register to Peepeth.\n        require(peepethAccounts[address(_avatar)] == bytes16(0), \" Specified avatar is already registered\");\n        \n        // Saves the avatar Peepeth username\n        peepethAccounts[address(_avatar)] = _name;\n        \n        Controller controller = Controller(_avatar.owner());\n        // Sends a call to the Peepeth contract to create an account.\n        // The call will be made from the avatar address such that when received by the Peepeth contract, the msg.sender value will be the avatar's address\n        controller.genericCall(\n            peepethContract, \n            abi.encodeWithSelector(PeepethInterface(peepethContract).createAccount.selector, _name, _ipfsHash),\n            _avatar,\n            0\n        );\n        \n        emit PeepethAccountRegistered(address(_avatar), _name, _ipfsHash);\n    }\n\n   \n    function proposePeep(\n        Avatar _avatar,\n        string memory _peepHash,\n        uint _reputationChange\n    ) public\n      returns(bytes32)\n    {\n        Parameters memory controllerParams = parameters[getParametersFromController(_avatar)];\n\n        bytes32 peepId = controllerParams.intVote.propose(\n            3,\n            controllerParams.voteApproveParams,\n            msg.sender,\n            address(_avatar)\n        );\n\n        // Set the struct:\n        PeepProposal memory proposal = PeepProposal({\n            proposer: msg.sender,\n            peepHash: _peepHash,\n            reputationChange: _reputationChange\n        });\n        organizationsProposals[address(_avatar)][peepId] = proposal;\n\n        emit NewPeepProposal(\n            address(_avatar),\n            peepId,\n            address(controllerParams.intVote),\n            msg.sender,\n            _peepHash,\n            _reputationChange\n        );\n\n        return peepId;\n    }\n\n    /**\n    * @dev execution of proposals, can only be called by the voting machine in which the vote is held.\n    * @param _proposalId the ID of the voting in the voting machine\n    * @param _param a parameter of the voting result, 1 yes and 2 is no.\n    */\n    function executeProposal(bytes32 _proposalId, int _param) external onlyVotingMachine(_proposalId) returns(bool) {\n        Avatar avatar = proposalsInfo[msg.sender][_proposalId].avatar;\n        //address avatar = proposalsInfo[_proposalId].avatar;\n\n        // Check if vote was successful:\n        if (_param == 1) {\n            PeepProposal memory proposal = organizationsProposals[address(avatar)][_proposalId];\n            \n            Controller controller = Controller(Avatar(avatar).owner());\n            // Sends a call to the Peepeth contract to post a new peep.\n            // The call will be made from the avatar address such that when received by the Peepeth contract, the msg.sender value will be the avatar's address\n            controller.genericCall(peepethContract, abi.encodeWithSelector(PeepethInterface(peepethContract).post.selector, proposal.peepHash), avatar, 0);\n            \n            // Mints reputation for the proposer of the Peep.\n            require(\n                Controller(Avatar(avatar).owner()).mintReputation(uint(proposal.reputationChange), proposal.proposer, address(avatar)),\n                \"Failed to mint reputation to proposer\"\n            );\n        } else {\n            delete organizationsProposals[address(avatar)][_proposalId];\n        }\n\n        emit ProposalExecuted(address(avatar), _proposalId, _param);\n\n        return true;\n    }\n}\n",
  "sourcePath": "/Users/shivgupt/Backup/Documents/projects/Github/DAOstack/DAOstack-Hackers-Kit/peepeth-dao-example/contracts/PeepScheme.sol",
  "compiler": {
    "name": "solc",
    "version": "0.5.13+commit.5b0b510c.Emscripten.clang"
  },
  "schemaVersion": "3.0.21",
  "updatedAt": "2020-01-20T12:28:04.488Z",
  "devdoc": {
    "details": "An agent can propose the organization a \"peep\" to send. if accepted the peep will be posted by the organization and the proposer will receive reputation.",
    "methods": {
      "executeProposal(bytes32,int256)": {
        "details": "execution of proposals, can only be called by the voting machine in which the vote is held.",
        "params": {
          "_param": "a parameter of the voting result, 1 yes and 2 is no.",
          "_proposalId": "the ID of the voting in the voting machine"
        }
      },
      "getParametersHash(bytes32,address)": {
        "details": "hash the parameters and return the hash"
      },
      "registerPeepethAccount(address,bytes16,string)": {
        "details": "Registers an Avatar as a Peepeth account owner",
        "params": {
          "_avatar": "the avatar of the organization to rregister to Peepeth",
          "_ipfsHash": "the IPFS hash for the registration message on IPFS. An example for this message can be found at: https://ipfs.io/ipfs/QmQg5xX9RCWT8dxNnJV6WLSC3qQJXgac2vfcALh8ymmrL3",
          "_name": "the username for the avatar's account"
        }
      },
      "setParameters(bytes32,address)": {
        "details": "hash the parameters, save them if necessary, and return the hash value"
      }
    },
    "title": "A universal scheme for proposing \"peeps\" and rewarding proposers with reputation"
  },
  "userdoc": {
    "methods": {}
  }
}